{
  "contractName": "GenesisFactory",
  "abi": [
    {
      "anonymous": false,
      "inputs": [
        {
          "indexed": false,
          "internalType": "string",
          "name": "Status",
          "type": "string"
        },
        {
          "indexed": false,
          "internalType": "address",
          "name": "Transporter",
          "type": "address"
        },
        {
          "indexed": false,
          "internalType": "address",
          "name": "TransportAddress",
          "type": "address"
        }
      ],
      "name": "NewChangeTransportEvent",
      "type": "event"
    },
    {
      "anonymous": false,
      "inputs": [
        {
          "indexed": false,
          "internalType": "address",
          "name": "Manager",
          "type": "address"
        },
        {
          "indexed": false,
          "internalType": "address",
          "name": "Genesis",
          "type": "address"
        }
      ],
      "name": "NewEvent",
      "type": "event"
    },
    {
      "anonymous": false,
      "inputs": [
        {
          "indexed": false,
          "internalType": "address",
          "name": "Reviewer",
          "type": "address"
        },
        {
          "indexed": false,
          "internalType": "address",
          "name": "Review",
          "type": "address"
        },
        {
          "indexed": false,
          "internalType": "string",
          "name": "Comment",
          "type": "string"
        },
        {
          "indexed": false,
          "internalType": "uint8",
          "name": "rate",
          "type": "uint8"
        }
      ],
      "name": "NewReviewEvent",
      "type": "event"
    },
    {
      "anonymous": false,
      "inputs": [
        {
          "indexed": false,
          "internalType": "address",
          "name": "StakerAddress",
          "type": "address"
        },
        {
          "indexed": false,
          "internalType": "uint32",
          "name": "TimeStamp",
          "type": "uint32"
        },
        {
          "indexed": false,
          "internalType": "uint256",
          "name": "Amount",
          "type": "uint256"
        }
      ],
      "name": "Stake",
      "type": "event"
    },
    {
      "anonymous": false,
      "inputs": [
        {
          "indexed": false,
          "internalType": "address",
          "name": "StakerAddress",
          "type": "address"
        },
        {
          "indexed": false,
          "internalType": "uint32",
          "name": "TimeStamp",
          "type": "uint32"
        },
        {
          "indexed": false,
          "internalType": "uint256",
          "name": "Amount",
          "type": "uint256"
        }
      ],
      "name": "UnStake",
      "type": "event"
    },
    {
      "inputs": [
        {
          "internalType": "address",
          "name": "",
          "type": "address"
        }
      ],
      "name": "AddressToGenesis",
      "outputs": [
        {
          "internalType": "uint256",
          "name": "ID",
          "type": "uint256"
        },
        {
          "internalType": "string",
          "name": "CompanyName",
          "type": "string"
        },
        {
          "internalType": "string",
          "name": "ProductName",
          "type": "string"
        },
        {
          "internalType": "string",
          "name": "Image",
          "type": "string"
        },
        {
          "internalType": "string",
          "name": "Code",
          "type": "string"
        },
        {
          "internalType": "uint32",
          "name": "Weight",
          "type": "uint32"
        },
        {
          "internalType": "uint32",
          "name": "Timestamp",
          "type": "uint32"
        },
        {
          "internalType": "address",
          "name": "ManagerAddress",
          "type": "address"
        },
        {
          "internalType": "address",
          "name": "GenesisAddress",
          "type": "address"
        }
      ],
      "stateMutability": "view",
      "type": "function"
    },
    {
      "inputs": [
        {
          "internalType": "uint256",
          "name": "",
          "type": "uint256"
        }
      ],
      "name": "GenesisList",
      "outputs": [
        {
          "internalType": "uint256",
          "name": "ID",
          "type": "uint256"
        },
        {
          "internalType": "string",
          "name": "CompanyName",
          "type": "string"
        },
        {
          "internalType": "string",
          "name": "ProductName",
          "type": "string"
        },
        {
          "internalType": "string",
          "name": "Image",
          "type": "string"
        },
        {
          "internalType": "string",
          "name": "Code",
          "type": "string"
        },
        {
          "internalType": "uint32",
          "name": "Weight",
          "type": "uint32"
        },
        {
          "internalType": "uint32",
          "name": "Timestamp",
          "type": "uint32"
        },
        {
          "internalType": "address",
          "name": "ManagerAddress",
          "type": "address"
        },
        {
          "internalType": "address",
          "name": "GenesisAddress",
          "type": "address"
        }
      ],
      "stateMutability": "view",
      "type": "function"
    },
    {
      "inputs": [
        {
          "internalType": "string",
          "name": "CompanyName",
          "type": "string"
        },
        {
          "internalType": "string",
          "name": "ProductName",
          "type": "string"
        },
        {
          "internalType": "string",
          "name": "Image",
          "type": "string"
        },
        {
          "internalType": "string",
          "name": "Code",
          "type": "string"
        },
        {
          "internalType": "uint32",
          "name": "Weight",
          "type": "uint32"
        }
      ],
      "name": "CreateGenesis",
      "outputs": [],
      "stateMutability": "nonpayable",
      "type": "function"
    }
  ],
  "bytecode": "0x6080604052737ef2e0048f5baede046f6bf797943daf4ed8cb476000806101000a81548173ffffffffffffffffffffffffffffffffffffffff021916908373ffffffffffffffffffffffffffffffffffffffff16021790555073fb7628067f0821938fe6d388cd3caf71dd88636b600160006101000a81548173ffffffffffffffffffffffffffffffffffffffff021916908373ffffffffffffffffffffffffffffffffffffffff16021790555060008054906101000a900473ffffffffffffffffffffffffffffffffffffffff16600260006101000a81548173ffffffffffffffffffffffffffffffffffffffff021916908373ffffffffffffffffffffffffffffffffffffffff16021790555034801561011a57600080fd5b506113c18061012a6000396000f3fe608060405234801561001057600080fd5b50600436106100415760003560e01c80631abbec45146100465780636d8aeadc1461007e57806381e58d24146100b6575b600080fd5b610060600480360381019061005b9190610e44565b6100d2565b6040516100759998979695949392919061101a565b60405180910390f35b61009860048036038101906100939190610d1b565b6103b0565b6040516100ad9998979695949392919061101a565b60405180910390f35b6100d060048036038101906100cb9190610d6d565b61067e565b005b600381815481106100e257600080fd5b906000526020600020906007020160009150905080600001549080600101805461010b906111da565b80601f0160208091040260200160405190810160405280929190818152602001828054610137906111da565b80156101845780601f1061015957610100808354040283529160200191610184565b820191906000526020600020905b81548152906001019060200180831161016757829003601f168201915b505050505090806002018054610199906111da565b80601f01602080910402602001604051908101604052809291908181526020018280546101c5906111da565b80156102125780601f106101e757610100808354040283529160200191610212565b820191906000526020600020905b8154815290600101906020018083116101f557829003601f168201915b505050505090806003018054610227906111da565b80601f0160208091040260200160405190810160405280929190818152602001828054610253906111da565b80156102a05780601f10610275576101008083540402835291602001916102a0565b820191906000526020600020905b81548152906001019060200180831161028357829003601f168201915b5050505050908060040180546102b5906111da565b80601f01602080910402602001604051908101604052809291908181526020018280546102e1906111da565b801561032e5780601f106103035761010080835404028352916020019161032e565b820191906000526020600020905b81548152906001019060200180831161031157829003601f168201915b5050505050908060050160009054906101000a900463ffffffff16908060050160049054906101000a900463ffffffff16908060050160089054906101000a900473ffffffffffffffffffffffffffffffffffffffff16908060060160009054906101000a900473ffffffffffffffffffffffffffffffffffffffff16905089565b60046020528060005260406000206000915090508060000154908060010180546103d9906111da565b80601f0160208091040260200160405190810160405280929190818152602001828054610405906111da565b80156104525780601f1061042757610100808354040283529160200191610452565b820191906000526020600020905b81548152906001019060200180831161043557829003601f168201915b505050505090806002018054610467906111da565b80601f0160208091040260200160405190810160405280929190818152602001828054610493906111da565b80156104e05780601f106104b5576101008083540402835291602001916104e0565b820191906000526020600020905b8154815290600101906020018083116104c357829003601f168201915b5050505050908060030180546104f5906111da565b80601f0160208091040260200160405190810160405280929190818152602001828054610521906111da565b801561056e5780601f106105435761010080835404028352916020019161056e565b820191906000526020600020905b81548152906001019060200180831161055157829003601f168201915b505050505090806004018054610583906111da565b80601f01602080910402602001604051908101604052809291908181526020018280546105af906111da565b80156105fc5780601f106105d1576101008083540402835291602001916105fc565b820191906000526020600020905b8154815290600101906020018083116105df57829003601f168201915b5050505050908060050160009054906101000a900463ffffffff16908060050160049054906101000a900463ffffffff16908060050160089054906101000a900473ffffffffffffffffffffffffffffffffffffffff16908060060160009054906101000a900473ffffffffffffffffffffffffffffffffffffffff16905089565b60011515600260009054906101000a900473ffffffffffffffffffffffffffffffffffffffff1673ffffffffffffffffffffffffffffffffffffffff1663db343539336040518263ffffffff1660e01b81526004016106dd9190610fec565b60206040518083038186803b1580156106f557600080fd5b505afa158015610709573d6000803e3d6000fd5b505050506040513d601f19601f8201168201806040525081019061072d9190610d44565b15151461073957600080fd5b600061074d85854233600380549050610b39565b9050600060405180610120016040528060038054905081526020018881526020018781526020018681526020018581526020018463ffffffff1681526020014263ffffffff1681526020013373ffffffffffffffffffffffffffffffffffffffff1681526020018373ffffffffffffffffffffffffffffffffffffffff1681525090506003819080600181540180825580915050600190039060005260206000209060070201600090919091909150600082015181600001556020820151816001019080519060200190610822929190610bbc565b50604082015181600201908051906020019061083f929190610bbc565b50606082015181600301908051906020019061085c929190610bbc565b506080820151816004019080519060200190610879929190610bbc565b5060a08201518160050160006101000a81548163ffffffff021916908363ffffffff16021790555060c08201518160050160046101000a81548163ffffffff021916908363ffffffff16021790555060e08201518160050160086101000a81548173ffffffffffffffffffffffffffffffffffffffff021916908373ffffffffffffffffffffffffffffffffffffffff1602179055506101008201518160060160006101000a81548173ffffffffffffffffffffffffffffffffffffffff021916908373ffffffffffffffffffffffffffffffffffffffff160217905550505080600460008473ffffffffffffffffffffffffffffffffffffffff1673ffffffffffffffffffffffffffffffffffffffff1681526020019081526020016000206000820151816000015560208201518160010190805190602001906109bf929190610bbc565b5060408201518160020190805190602001906109dc929190610bbc565b5060608201518160030190805190602001906109f9929190610bbc565b506080820151816004019080519060200190610a16929190610bbc565b5060a08201518160050160006101000a81548163ffffffff021916908363ffffffff16021790555060c08201518160050160046101000a81548163ffffffff021916908363ffffffff16021790555060e08201518160050160086101000a81548173ffffffffffffffffffffffffffffffffffffffff021916908373ffffffffffffffffffffffffffffffffffffffff1602179055506101008201518160060160006101000a81548173ffffffffffffffffffffffffffffffffffffffff021916908373ffffffffffffffffffffffffffffffffffffffff1602179055509050507f2eab9bbcd3573a37c80df886e181d345b1b44fb6fd6a220f526b8992e332b0fa3383604051610b28929190610fc3565b60405180910390a150505050505050565b60008273ffffffffffffffffffffffffffffffffffffffff163373ffffffffffffffffffffffffffffffffffffffff1614610b7357600080fd5b60008686868686604051602001610b8e959493929190610f6c565b60405160208183030381529060405280519060200120905060008160601c9050809250505095945050505050565b828054610bc8906111da565b90600052602060002090601f016020900481019282610bea5760008555610c31565b82601f10610c0357805160ff1916838001178555610c31565b82800160010185558215610c31579182015b82811115610c30578251825591602001919060010190610c15565b5b509050610c3e9190610c42565b5090565b5b80821115610c5b576000816000905550600101610c43565b5090565b6000610c72610c6d846110e8565b6110c3565b905082815260208101848484011115610c8a57600080fd5b610c95848285611198565b509392505050565b600081359050610cac8161132f565b92915050565b600081519050610cc181611346565b92915050565b600082601f830112610cd857600080fd5b8135610ce8848260208601610c5f565b91505092915050565b600081359050610d008161135d565b92915050565b600081359050610d1581611374565b92915050565b600060208284031215610d2d57600080fd5b6000610d3b84828501610c9d565b91505092915050565b600060208284031215610d5657600080fd5b6000610d6484828501610cb2565b91505092915050565b600080600080600060a08688031215610d8557600080fd5b600086013567ffffffffffffffff811115610d9f57600080fd5b610dab88828901610cc7565b955050602086013567ffffffffffffffff811115610dc857600080fd5b610dd488828901610cc7565b945050604086013567ffffffffffffffff811115610df157600080fd5b610dfd88828901610cc7565b935050606086013567ffffffffffffffff811115610e1a57600080fd5b610e2688828901610cc7565b9250506080610e3788828901610d06565b9150509295509295909350565b600060208284031215610e5657600080fd5b6000610e6484828501610cf1565b91505092915050565b610e7681611140565b82525050565b610e8d610e8882611140565b61123d565b82525050565b6000610e9e82611119565b610ea88185611124565b9350610eb88185602086016111a7565b610ec1816112db565b840191505092915050565b6000610ed782611119565b610ee18185611135565b9350610ef18185602086016111a7565b80840191505092915050565b6000610f0a600783611124565b9150610f1582611306565b602082019050919050565b610f298161117e565b82525050565b610f40610f3b8261117e565b611261565b82525050565b610f4f81611188565b82525050565b610f66610f6182611188565b61126b565b82525050565b6000610f788288610ecc565b9150610f848287610ecc565b9150610f908286610f55565b600482019150610fa08285610e7c565b601482019150610fb08284610f2f565b6020820191508190509695505050505050565b6000604082019050610fd86000830185610e6d565b610fe56020830184610e6d565b9392505050565b6000604082019050818103600083015261100581610efd565b90506110146020830184610e6d565b92915050565b600061012082019050611030600083018c610f20565b8181036020830152611042818b610e93565b90508181036040830152611056818a610e93565b9050818103606083015261106a8189610e93565b9050818103608083015261107e8188610e93565b905061108d60a0830187610f46565b61109a60c0830186610f46565b6110a760e0830185610e6d565b6110b5610100830184610e6d565b9a9950505050505050505050565b60006110cd6110de565b90506110d9828261120c565b919050565b6000604051905090565b600067ffffffffffffffff821115611103576111026112ac565b5b61110c826112db565b9050602081019050919050565b600081519050919050565b600082825260208201905092915050565b600081905092915050565b600061114b8261115e565b9050919050565b60008115159050919050565b600073ffffffffffffffffffffffffffffffffffffffff82169050919050565b6000819050919050565b600063ffffffff82169050919050565b82818337600083830152505050565b60005b838110156111c55780820151818401526020810190506111aa565b838111156111d4576000848401525b50505050565b600060028204905060018216806111f257607f821691505b602082108114156112065761120561127d565b5b50919050565b611215826112db565b810181811067ffffffffffffffff82111715611234576112336112ac565b5b80604052505050565b60006112488261124f565b9050919050565b600061125a826112f9565b9050919050565b6000819050919050565b6000611276826112ec565b9050919050565b7f4e487b7100000000000000000000000000000000000000000000000000000000600052602260045260246000fd5b7f4e487b7100000000000000000000000000000000000000000000000000000000600052604160045260246000fd5b6000601f19601f8301169050919050565b60008160e01b9050919050565b60008160601b9050919050565b7f47656e6573697300000000000000000000000000000000000000000000000000600082015250565b61133881611140565b811461134357600080fd5b50565b61134f81611152565b811461135a57600080fd5b50565b6113668161117e565b811461137157600080fd5b50565b61137d81611188565b811461138857600080fd5b5056fea2646970667358221220218939b195b2e672e32bf01196fa3ca76d4294d8e5ee2a79948ea1e3b24e61d964736f6c63430008040033",
  "immutableReferences": {},
  "source": "// SPDX-License-Identifier: GPL-3.0\r\n\r\npragma solidity >=0.7.0 <0.9.0;\r\nimport \"../Essential/Essential_Event.sol\";\r\nimport \"../Essential/Essential_Encode.sol\";\r\nimport \"../Essential/Essential_Constant.sol\";\r\nimport \"../Stake/Stake_Staking.sol\";\r\n\r\n/**\r\n * @title Storage\r\n * @dev Store & retrieve value in a variable\r\n */\r\ncontract GenesisFactory is Event, Encode, Constant{\r\n    \r\n    struct Genesis {\r\n        uint        ID;\r\n        string      CompanyName;\r\n        string      ProductName;\r\n        string      Image;\r\n        string      Code;\r\n        uint32      Weight;\r\n        uint32      Timestamp;\r\n        address     ManagerAddress;\r\n        address     GenesisAddress;\r\n    }\r\n   \r\n    StakePool                   private _Stake = StakePool(StakeContractAddress);\r\n    Genesis[]                   public GenesisList;\r\n    mapping(address => Genesis) public AddressToGenesis;\r\n    \r\n    function CreateGenesis(\r\n        string memory CompanyName,\r\n        string memory ProductName,\r\n        string memory Image,\r\n        string memory Code,\r\n        uint32        Weight\r\n    ) \r\n    external\r\n    {\r\n        require(_Stake.StakeForFunction(\"Genesis\",msg.sender) == true);\r\n        address GenesisAddress = CreateAddress(ProductName, Image,  uint32(block.timestamp), msg.sender, GenesisList.length);\r\n        Genesis memory NewGenesis = Genesis(GenesisList.length, CompanyName, ProductName, Image, Code, Weight,  uint32(block.timestamp), msg.sender, GenesisAddress);\r\n        GenesisList.push(NewGenesis);\r\n        AddressToGenesis[GenesisAddress] = NewGenesis;\r\n        emit NewEvent(msg.sender,GenesisAddress);\r\n    }\r\n}",
  "sourcePath": "C:/Users/user/mew-supplychain/contracts/contracts/Factory/Factory_Genesis.sol",
  "compiler": {
    "name": "solc",
    "version": "0.8.4+commit.c7e474f2.Emscripten.clang"
  },
  "schemaVersion": "3.4.1",
  "updatedAt": "2021-08-05T19:56:57.803Z",
  "devdoc": {
    "details": "Store & retrieve value in a variable",
    "kind": "dev",
    "methods": {},
    "title": "Storage",
    "version": 1
  },
  "userdoc": {
    "kind": "user",
    "methods": {},
    "version": 1
  }
}