{
  "contractName": "GenesisSearch",
  "abi": [
    {
      "anonymous": false,
      "inputs": [
        {
          "indexed": false,
          "internalType": "string",
          "name": "Status",
          "type": "string"
        },
        {
          "indexed": false,
          "internalType": "address",
          "name": "Transporter",
          "type": "address"
        },
        {
          "indexed": false,
          "internalType": "address",
          "name": "TransportAddress",
          "type": "address"
        }
      ],
      "name": "NewChangeTransportEvent",
      "type": "event"
    },
    {
      "anonymous": false,
      "inputs": [
        {
          "indexed": false,
          "internalType": "address",
          "name": "Manager",
          "type": "address"
        },
        {
          "indexed": false,
          "internalType": "address",
          "name": "Genesis",
          "type": "address"
        }
      ],
      "name": "NewEvent",
      "type": "event"
    },
    {
      "anonymous": false,
      "inputs": [
        {
          "indexed": false,
          "internalType": "address",
          "name": "Reviewer",
          "type": "address"
        },
        {
          "indexed": false,
          "internalType": "address",
          "name": "Review",
          "type": "address"
        },
        {
          "indexed": false,
          "internalType": "string",
          "name": "Comment",
          "type": "string"
        },
        {
          "indexed": false,
          "internalType": "uint8",
          "name": "rate",
          "type": "uint8"
        }
      ],
      "name": "NewReviewEvent",
      "type": "event"
    },
    {
      "anonymous": false,
      "inputs": [
        {
          "indexed": false,
          "internalType": "address",
          "name": "StakerAddress",
          "type": "address"
        },
        {
          "indexed": false,
          "internalType": "uint32",
          "name": "TimeStamp",
          "type": "uint32"
        },
        {
          "indexed": false,
          "internalType": "uint256",
          "name": "Amount",
          "type": "uint256"
        }
      ],
      "name": "Stake",
      "type": "event"
    },
    {
      "anonymous": false,
      "inputs": [
        {
          "indexed": false,
          "internalType": "address",
          "name": "StakerAddress",
          "type": "address"
        },
        {
          "indexed": false,
          "internalType": "uint32",
          "name": "TimeStamp",
          "type": "uint32"
        },
        {
          "indexed": false,
          "internalType": "uint256",
          "name": "Amount",
          "type": "uint256"
        }
      ],
      "name": "UnStake",
      "type": "event"
    },
    {
      "inputs": [
        {
          "internalType": "address",
          "name": "",
          "type": "address"
        }
      ],
      "name": "AddressToGenesis",
      "outputs": [
        {
          "internalType": "uint256",
          "name": "ID",
          "type": "uint256"
        },
        {
          "internalType": "string",
          "name": "CompanyName",
          "type": "string"
        },
        {
          "internalType": "string",
          "name": "ProductName",
          "type": "string"
        },
        {
          "internalType": "string",
          "name": "Image",
          "type": "string"
        },
        {
          "internalType": "string",
          "name": "Code",
          "type": "string"
        },
        {
          "internalType": "uint32",
          "name": "Weight",
          "type": "uint32"
        },
        {
          "internalType": "uint32",
          "name": "Timestamp",
          "type": "uint32"
        },
        {
          "internalType": "address",
          "name": "ManagerAddress",
          "type": "address"
        },
        {
          "internalType": "address",
          "name": "GenesisAddress",
          "type": "address"
        }
      ],
      "stateMutability": "view",
      "type": "function"
    },
    {
      "inputs": [
        {
          "internalType": "string",
          "name": "CompanyName",
          "type": "string"
        },
        {
          "internalType": "string",
          "name": "ProductName",
          "type": "string"
        },
        {
          "internalType": "string",
          "name": "Image",
          "type": "string"
        },
        {
          "internalType": "string",
          "name": "Code",
          "type": "string"
        },
        {
          "internalType": "uint32",
          "name": "Weight",
          "type": "uint32"
        }
      ],
      "name": "CreateGenesis",
      "outputs": [],
      "stateMutability": "nonpayable",
      "type": "function"
    },
    {
      "inputs": [
        {
          "internalType": "uint256",
          "name": "",
          "type": "uint256"
        }
      ],
      "name": "GenesisList",
      "outputs": [
        {
          "internalType": "uint256",
          "name": "ID",
          "type": "uint256"
        },
        {
          "internalType": "string",
          "name": "CompanyName",
          "type": "string"
        },
        {
          "internalType": "string",
          "name": "ProductName",
          "type": "string"
        },
        {
          "internalType": "string",
          "name": "Image",
          "type": "string"
        },
        {
          "internalType": "string",
          "name": "Code",
          "type": "string"
        },
        {
          "internalType": "uint32",
          "name": "Weight",
          "type": "uint32"
        },
        {
          "internalType": "uint32",
          "name": "Timestamp",
          "type": "uint32"
        },
        {
          "internalType": "address",
          "name": "ManagerAddress",
          "type": "address"
        },
        {
          "internalType": "address",
          "name": "GenesisAddress",
          "type": "address"
        }
      ],
      "stateMutability": "view",
      "type": "function"
    },
    {
      "inputs": [
        {
          "internalType": "address",
          "name": "Address",
          "type": "address"
        }
      ],
      "name": "SearchGenesisByAddress",
      "outputs": [
        {
          "components": [
            {
              "internalType": "uint256",
              "name": "ID",
              "type": "uint256"
            },
            {
              "internalType": "string",
              "name": "CompanyName",
              "type": "string"
            },
            {
              "internalType": "string",
              "name": "ProductName",
              "type": "string"
            },
            {
              "internalType": "string",
              "name": "Image",
              "type": "string"
            },
            {
              "internalType": "string",
              "name": "Code",
              "type": "string"
            },
            {
              "internalType": "uint32",
              "name": "Weight",
              "type": "uint32"
            },
            {
              "internalType": "uint32",
              "name": "Timestamp",
              "type": "uint32"
            },
            {
              "internalType": "address",
              "name": "ManagerAddress",
              "type": "address"
            },
            {
              "internalType": "address",
              "name": "GenesisAddress",
              "type": "address"
            }
          ],
          "internalType": "struct GenesisFactory.Genesis",
          "name": "",
          "type": "tuple"
        }
      ],
      "stateMutability": "view",
      "type": "function"
    },
    {
      "inputs": [
        {
          "internalType": "address",
          "name": "ManagerAddress",
          "type": "address"
        }
      ],
      "name": "SearchGenesisByManagerAddress",
      "outputs": [
        {
          "internalType": "uint256[]",
          "name": "",
          "type": "uint256[]"
        }
      ],
      "stateMutability": "view",
      "type": "function"
    },
    {
      "inputs": [
        {
          "internalType": "uint256",
          "name": "ID",
          "type": "uint256"
        }
      ],
      "name": "SearchGenesisByID",
      "outputs": [
        {
          "components": [
            {
              "internalType": "uint256",
              "name": "ID",
              "type": "uint256"
            },
            {
              "internalType": "string",
              "name": "CompanyName",
              "type": "string"
            },
            {
              "internalType": "string",
              "name": "ProductName",
              "type": "string"
            },
            {
              "internalType": "string",
              "name": "Image",
              "type": "string"
            },
            {
              "internalType": "string",
              "name": "Code",
              "type": "string"
            },
            {
              "internalType": "uint32",
              "name": "Weight",
              "type": "uint32"
            },
            {
              "internalType": "uint32",
              "name": "Timestamp",
              "type": "uint32"
            },
            {
              "internalType": "address",
              "name": "ManagerAddress",
              "type": "address"
            },
            {
              "internalType": "address",
              "name": "GenesisAddress",
              "type": "address"
            }
          ],
          "internalType": "struct GenesisFactory.Genesis",
          "name": "",
          "type": "tuple"
        }
      ],
      "stateMutability": "view",
      "type": "function"
    }
  ],
  "bytecode": "0x6080604052737ef2e0048f5baede046f6bf797943daf4ed8cb476000806101000a81548173ffffffffffffffffffffffffffffffffffffffff021916908373ffffffffffffffffffffffffffffffffffffffff16021790555073965ecf3b23e96f095f1811096333731610aba986600160006101000a81548173ffffffffffffffffffffffffffffffffffffffff021916908373ffffffffffffffffffffffffffffffffffffffff16021790555060008054906101000a900473ffffffffffffffffffffffffffffffffffffffff16600260006101000a81548173ffffffffffffffffffffffffffffffffffffffff021916908373ffffffffffffffffffffffffffffffffffffffff16021790555034801561011a57600080fd5b506121718061012a6000396000f3fe608060405234801561001057600080fd5b50600436106100625760003560e01c80631abbec45146100675780635951cefd1461009f5780636d8aeadc146100cf57806381e58d24146101075780639109ab9f14610123578063e42261a414610153575b600080fd5b610081600480360381019061007c9190611938565b610183565b60405161009699989796959493929190611d08565b60405180910390f35b6100b960048036038101906100b4919061180f565b610461565b6040516100c69190611c96565b60405180910390f35b6100e960048036038101906100e4919061180f565b6106cf565b6040516100fe99989796959493929190611d08565b60405180910390f35b610121600480360381019061011c9190611861565b61099d565b005b61013d6004803603810190610138919061180f565b610e58565b60405161014a9190611ce6565b60405180910390f35b61016d60048036038101906101689190611938565b6111fc565b60405161017a9190611ce6565b60405180910390f35b6003818154811061019357600080fd5b90600052602060002090600702016000915090508060000154908060010180546101bc90611f12565b80601f01602080910402602001604051908101604052809291908181526020018280546101e890611f12565b80156102355780601f1061020a57610100808354040283529160200191610235565b820191906000526020600020905b81548152906001019060200180831161021857829003601f168201915b50505050509080600201805461024a90611f12565b80601f016020809104026020016040519081016040528092919081815260200182805461027690611f12565b80156102c35780601f10610298576101008083540402835291602001916102c3565b820191906000526020600020905b8154815290600101906020018083116102a657829003601f168201915b5050505050908060030180546102d890611f12565b80601f016020809104026020016040519081016040528092919081815260200182805461030490611f12565b80156103515780601f1061032657610100808354040283529160200191610351565b820191906000526020600020905b81548152906001019060200180831161033457829003601f168201915b50505050509080600401805461036690611f12565b80601f016020809104026020016040519081016040528092919081815260200182805461039290611f12565b80156103df5780601f106103b4576101008083540402835291602001916103df565b820191906000526020600020905b8154815290600101906020018083116103c257829003601f168201915b5050505050908060050160009054906101000a900463ffffffff16908060050160049054906101000a900463ffffffff16908060050160089054906101000a900473ffffffffffffffffffffffffffffffffffffffff16908060060160009054906101000a900473ffffffffffffffffffffffffffffffffffffffff16905089565b60606000600380549050905060008060005b8381101561053c578573ffffffffffffffffffffffffffffffffffffffff16600382815481106104cc577f4e487b7100000000000000000000000000000000000000000000000000000000600052603260045260246000fd5b906000526020600020906007020160050160089054906101000a900473ffffffffffffffffffffffffffffffffffffffff1673ffffffffffffffffffffffffffffffffffffffff16141561052957828061052590611f75565b9350505b808061053490611f75565b915050610473565b5060008267ffffffffffffffff81111561057f577f4e487b7100000000000000000000000000000000000000000000000000000000600052604160045260246000fd5b6040519080825280602002602001820160405280156105ad5781602001602082028036833780820191505090505b50905060005b848110156106c2578673ffffffffffffffffffffffffffffffffffffffff166003828154811061060c577f4e487b7100000000000000000000000000000000000000000000000000000000600052603260045260246000fd5b906000526020600020906007020160050160089054906101000a900473ffffffffffffffffffffffffffffffffffffffff1673ffffffffffffffffffffffffffffffffffffffff1614156106af5780828481518110610694577f4e487b7100000000000000000000000000000000000000000000000000000000600052603260045260246000fd5b60200260200101818152505082806106ab90611f75565b9350505b80806106ba90611f75565b9150506105b3565b5080945050505050919050565b60046020528060005260406000206000915090508060000154908060010180546106f890611f12565b80601f016020809104026020016040519081016040528092919081815260200182805461072490611f12565b80156107715780601f1061074657610100808354040283529160200191610771565b820191906000526020600020905b81548152906001019060200180831161075457829003601f168201915b50505050509080600201805461078690611f12565b80601f01602080910402602001604051908101604052809291908181526020018280546107b290611f12565b80156107ff5780601f106107d4576101008083540402835291602001916107ff565b820191906000526020600020905b8154815290600101906020018083116107e257829003601f168201915b50505050509080600301805461081490611f12565b80601f016020809104026020016040519081016040528092919081815260200182805461084090611f12565b801561088d5780601f106108625761010080835404028352916020019161088d565b820191906000526020600020905b81548152906001019060200180831161087057829003601f168201915b5050505050908060040180546108a290611f12565b80601f01602080910402602001604051908101604052809291908181526020018280546108ce90611f12565b801561091b5780601f106108f05761010080835404028352916020019161091b565b820191906000526020600020905b8154815290600101906020018083116108fe57829003601f168201915b5050505050908060050160009054906101000a900463ffffffff16908060050160049054906101000a900463ffffffff16908060050160089054906101000a900473ffffffffffffffffffffffffffffffffffffffff16908060060160009054906101000a900473ffffffffffffffffffffffffffffffffffffffff16905089565b60011515600260009054906101000a900473ffffffffffffffffffffffffffffffffffffffff1673ffffffffffffffffffffffffffffffffffffffff1663db343539336040518263ffffffff1660e01b81526004016109fc9190611cb8565b60206040518083038186803b158015610a1457600080fd5b505afa158015610a28573d6000803e3d6000fd5b505050506040513d601f19601f82011682018060405250810190610a4c9190611838565b151514610a5857600080fd5b6000610a6c858542336003805490506115a9565b9050600060405180610120016040528060038054905081526020018881526020018781526020018681526020018581526020018463ffffffff1681526020014263ffffffff1681526020013373ffffffffffffffffffffffffffffffffffffffff1681526020018373ffffffffffffffffffffffffffffffffffffffff1681525090506003819080600181540180825580915050600190039060005260206000209060070201600090919091909150600082015181600001556020820151816001019080519060200190610b4192919061162c565b506040820151816002019080519060200190610b5e92919061162c565b506060820151816003019080519060200190610b7b92919061162c565b506080820151816004019080519060200190610b9892919061162c565b5060a08201518160050160006101000a81548163ffffffff021916908363ffffffff16021790555060c08201518160050160046101000a81548163ffffffff021916908363ffffffff16021790555060e08201518160050160086101000a81548173ffffffffffffffffffffffffffffffffffffffff021916908373ffffffffffffffffffffffffffffffffffffffff1602179055506101008201518160060160006101000a81548173ffffffffffffffffffffffffffffffffffffffff021916908373ffffffffffffffffffffffffffffffffffffffff160217905550505080600460008473ffffffffffffffffffffffffffffffffffffffff1673ffffffffffffffffffffffffffffffffffffffff168152602001908152602001600020600082015181600001556020820151816001019080519060200190610cde92919061162c565b506040820151816002019080519060200190610cfb92919061162c565b506060820151816003019080519060200190610d1892919061162c565b506080820151816004019080519060200190610d3592919061162c565b5060a08201518160050160006101000a81548163ffffffff021916908363ffffffff16021790555060c08201518160050160046101000a81548163ffffffff021916908363ffffffff16021790555060e08201518160050160086101000a81548173ffffffffffffffffffffffffffffffffffffffff021916908373ffffffffffffffffffffffffffffffffffffffff1602179055506101008201518160060160006101000a81548173ffffffffffffffffffffffffffffffffffffffff021916908373ffffffffffffffffffffffffffffffffffffffff1602179055509050507f2eab9bbcd3573a37c80df886e181d345b1b44fb6fd6a220f526b8992e332b0fa3383604051610e47929190611c6d565b60405180910390a150505050505050565b610e606116b2565b600460008373ffffffffffffffffffffffffffffffffffffffff1673ffffffffffffffffffffffffffffffffffffffff1681526020019081526020016000206040518061012001604052908160008201548152602001600182018054610ec590611f12565b80601f0160208091040260200160405190810160405280929190818152602001828054610ef190611f12565b8015610f3e5780601f10610f1357610100808354040283529160200191610f3e565b820191906000526020600020905b815481529060010190602001808311610f2157829003601f168201915b50505050508152602001600282018054610f5790611f12565b80601f0160208091040260200160405190810160405280929190818152602001828054610f8390611f12565b8015610fd05780601f10610fa557610100808354040283529160200191610fd0565b820191906000526020600020905b815481529060010190602001808311610fb357829003601f168201915b50505050508152602001600382018054610fe990611f12565b80601f016020809104026020016040519081016040528092919081815260200182805461101590611f12565b80156110625780601f1061103757610100808354040283529160200191611062565b820191906000526020600020905b81548152906001019060200180831161104557829003601f168201915b5050505050815260200160048201805461107b90611f12565b80601f01602080910402602001604051908101604052809291908181526020018280546110a790611f12565b80156110f45780601f106110c9576101008083540402835291602001916110f4565b820191906000526020600020905b8154815290600101906020018083116110d757829003601f168201915b505050505081526020016005820160009054906101000a900463ffffffff1663ffffffff1663ffffffff1681526020016005820160049054906101000a900463ffffffff1663ffffffff1663ffffffff1681526020016005820160089054906101000a900473ffffffffffffffffffffffffffffffffffffffff1673ffffffffffffffffffffffffffffffffffffffff1673ffffffffffffffffffffffffffffffffffffffff1681526020016006820160009054906101000a900473ffffffffffffffffffffffffffffffffffffffff1673ffffffffffffffffffffffffffffffffffffffff1673ffffffffffffffffffffffffffffffffffffffff16815250509050919050565b6112046116b2565b6003828154811061123e577f4e487b7100000000000000000000000000000000000000000000000000000000600052603260045260246000fd5b9060005260206000209060070201604051806101200160405290816000820154815260200160018201805461127290611f12565b80601f016020809104026020016040519081016040528092919081815260200182805461129e90611f12565b80156112eb5780601f106112c0576101008083540402835291602001916112eb565b820191906000526020600020905b8154815290600101906020018083116112ce57829003601f168201915b5050505050815260200160028201805461130490611f12565b80601f016020809104026020016040519081016040528092919081815260200182805461133090611f12565b801561137d5780601f106113525761010080835404028352916020019161137d565b820191906000526020600020905b81548152906001019060200180831161136057829003601f168201915b5050505050815260200160038201805461139690611f12565b80601f01602080910402602001604051908101604052809291908181526020018280546113c290611f12565b801561140f5780601f106113e45761010080835404028352916020019161140f565b820191906000526020600020905b8154815290600101906020018083116113f257829003601f168201915b5050505050815260200160048201805461142890611f12565b80601f016020809104026020016040519081016040528092919081815260200182805461145490611f12565b80156114a15780601f10611476576101008083540402835291602001916114a1565b820191906000526020600020905b81548152906001019060200180831161148457829003601f168201915b505050505081526020016005820160009054906101000a900463ffffffff1663ffffffff1663ffffffff1681526020016005820160049054906101000a900463ffffffff1663ffffffff1663ffffffff1681526020016005820160089054906101000a900473ffffffffffffffffffffffffffffffffffffffff1673ffffffffffffffffffffffffffffffffffffffff1673ffffffffffffffffffffffffffffffffffffffff1681526020016006820160009054906101000a900473ffffffffffffffffffffffffffffffffffffffff1673ffffffffffffffffffffffffffffffffffffffff1673ffffffffffffffffffffffffffffffffffffffff16815250509050919050565b60008273ffffffffffffffffffffffffffffffffffffffff163373ffffffffffffffffffffffffffffffffffffffff16146115e357600080fd5b600086868686866040516020016115fe959493929190611c16565b60405160208183030381529060405280519060200120905060008160601c9050809250505095945050505050565b82805461163890611f12565b90600052602060002090601f01602090048101928261165a57600085556116a1565b82601f1061167357805160ff19168380011785556116a1565b828001600101855582156116a1579182015b828111156116a0578251825591602001919060010190611685565b5b5090506116ae9190611736565b5090565b6040518061012001604052806000815260200160608152602001606081526020016060815260200160608152602001600063ffffffff168152602001600063ffffffff168152602001600073ffffffffffffffffffffffffffffffffffffffff168152602001600073ffffffffffffffffffffffffffffffffffffffff1681525090565b5b8082111561174f576000816000905550600101611737565b5090565b600061176661176184611dd6565b611db1565b90508281526020810184848401111561177e57600080fd5b611789848285611ed0565b509392505050565b6000813590506117a0816120df565b92915050565b6000815190506117b5816120f6565b92915050565b600082601f8301126117cc57600080fd5b81356117dc848260208601611753565b91505092915050565b6000813590506117f48161210d565b92915050565b60008135905061180981612124565b92915050565b60006020828403121561182157600080fd5b600061182f84828501611791565b91505092915050565b60006020828403121561184a57600080fd5b6000611858848285016117a6565b91505092915050565b600080600080600060a0868803121561187957600080fd5b600086013567ffffffffffffffff81111561189357600080fd5b61189f888289016117bb565b955050602086013567ffffffffffffffff8111156118bc57600080fd5b6118c8888289016117bb565b945050604086013567ffffffffffffffff8111156118e557600080fd5b6118f1888289016117bb565b935050606086013567ffffffffffffffff81111561190e57600080fd5b61191a888289016117bb565b925050608061192b888289016117fa565b9150509295509295909350565b60006020828403121561194a57600080fd5b6000611958848285016117e5565b91505092915050565b600061196d8383611bac565b60208301905092915050565b61198281611e78565b82525050565b61199181611e78565b82525050565b6119a86119a382611e78565b611fbe565b82525050565b60006119b982611e17565b6119c38185611e3a565b93506119ce83611e07565b8060005b838110156119ff5781516119e68882611961565b97506119f183611e2d565b9250506001810190506119d2565b5085935050505092915050565b6000611a1782611e22565b611a218185611e4b565b9350611a31818560208601611edf565b611a3a8161208b565b840191505092915050565b6000611a5082611e22565b611a5a8185611e5c565b9350611a6a818560208601611edf565b611a738161208b565b840191505092915050565b6000611a8982611e22565b611a938185611e6d565b9350611aa3818560208601611edf565b80840191505092915050565b6000611abc600783611e5c565b9150611ac7826120b6565b602082019050919050565b600061012083016000830151611aeb6000860182611bac565b5060208301518482036020860152611b038282611a0c565b91505060408301518482036040860152611b1d8282611a0c565b91505060608301518482036060860152611b378282611a0c565b91505060808301518482036080860152611b518282611a0c565b91505060a0830151611b6660a0860182611be1565b5060c0830151611b7960c0860182611be1565b5060e0830151611b8c60e0860182611979565b50610100830151611ba1610100860182611979565b508091505092915050565b611bb581611eb6565b82525050565b611bc481611eb6565b82525050565b611bdb611bd682611eb6565b611fe2565b82525050565b611bea81611ec0565b82525050565b611bf981611ec0565b82525050565b611c10611c0b82611ec0565b611fec565b82525050565b6000611c228288611a7e565b9150611c2e8287611a7e565b9150611c3a8286611bff565b600482019150611c4a8285611997565b601482019150611c5a8284611bca565b6020820191508190509695505050505050565b6000604082019050611c826000830185611988565b611c8f6020830184611988565b9392505050565b60006020820190508181036000830152611cb081846119ae565b905092915050565b60006040820190508181036000830152611cd181611aaf565b9050611ce06020830184611988565b92915050565b60006020820190508181036000830152611d008184611ad2565b905092915050565b600061012082019050611d1e600083018c611bbb565b8181036020830152611d30818b611a45565b90508181036040830152611d44818a611a45565b90508181036060830152611d588189611a45565b90508181036080830152611d6c8188611a45565b9050611d7b60a0830187611bf0565b611d8860c0830186611bf0565b611d9560e0830185611988565b611da3610100830184611988565b9a9950505050505050505050565b6000611dbb611dcc565b9050611dc78282611f44565b919050565b6000604051905090565b600067ffffffffffffffff821115611df157611df061205c565b5b611dfa8261208b565b9050602081019050919050565b6000819050602082019050919050565b600081519050919050565b600081519050919050565b6000602082019050919050565b600082825260208201905092915050565b600082825260208201905092915050565b600082825260208201905092915050565b600081905092915050565b6000611e8382611e96565b9050919050565b60008115159050919050565b600073ffffffffffffffffffffffffffffffffffffffff82169050919050565b6000819050919050565b600063ffffffff82169050919050565b82818337600083830152505050565b60005b83811015611efd578082015181840152602081019050611ee2565b83811115611f0c576000848401525b50505050565b60006002820490506001821680611f2a57607f821691505b60208210811415611f3e57611f3d61202d565b5b50919050565b611f4d8261208b565b810181811067ffffffffffffffff82111715611f6c57611f6b61205c565b5b80604052505050565b6000611f8082611eb6565b91507fffffffffffffffffffffffffffffffffffffffffffffffffffffffffffffffff821415611fb357611fb2611ffe565b5b600182019050919050565b6000611fc982611fd0565b9050919050565b6000611fdb826120a9565b9050919050565b6000819050919050565b6000611ff78261209c565b9050919050565b7f4e487b7100000000000000000000000000000000000000000000000000000000600052601160045260246000fd5b7f4e487b7100000000000000000000000000000000000000000000000000000000600052602260045260246000fd5b7f4e487b7100000000000000000000000000000000000000000000000000000000600052604160045260246000fd5b6000601f19601f8301169050919050565b60008160e01b9050919050565b60008160601b9050919050565b7f47656e6573697300000000000000000000000000000000000000000000000000600082015250565b6120e881611e78565b81146120f357600080fd5b50565b6120ff81611e8a565b811461210a57600080fd5b50565b61211681611eb6565b811461212157600080fd5b50565b61212d81611ec0565b811461213857600080fd5b5056fea2646970667358221220647da0d9f509a81e8289d7d994379f64c10624f0a72e549b7c3f3ccbf832994964736f6c63430008040033",
  "immutableReferences": {},
  "source": "// SPDX-License-Identifier: GPL-3.0\r\n\r\npragma solidity >=0.7.0 <0.9.0;\r\nimport \"../Factory/Factory_Genesis.sol\";\r\n\r\n/**\r\n * @title Storage\r\n * @dev Store & retrieve value in a variable\r\n */\r\ncontract GenesisSearch is GenesisFactory{\r\n    function SearchGenesisByAddress(\r\n        address Address\r\n    )\r\n    public\r\n    view\r\n    returns(Genesis memory)\r\n    {\r\n        return AddressToGenesis[Address];\r\n    }\r\n    \r\n    function SearchGenesisByManagerAddress(\r\n        address ManagerAddress\r\n    )\r\n    public\r\n    view\r\n    returns(uint[] memory)\r\n    {\r\n        uint GenesisAmount = GenesisList.length;\r\n        uint ManagerGenesisAmount = 0;\r\n        uint Count = 0;\r\n        \r\n        for(uint i = 0; i < GenesisAmount; i++){\r\n            if(GenesisList[i].ManagerAddress == ManagerAddress){\r\n                ManagerGenesisAmount++;\r\n            }\r\n        }\r\n        \r\n        uint[] memory result = new uint[](ManagerGenesisAmount);\r\n        \r\n        for(uint i = 0; i < GenesisAmount; i++){\r\n            if(GenesisList[i].ManagerAddress == ManagerAddress){\r\n                result[Count] = i;\r\n                Count++;\r\n            }\r\n        }\r\n        \r\n        return result;\r\n    }\r\n    \r\n    function SearchGenesisByID(\r\n        uint ID\r\n    )\r\n    public\r\n    view\r\n    returns(Genesis memory)\r\n    {\r\n        return GenesisList[ID];\r\n    }\r\n}",
  "sourcePath": "C:/Users/user/mew-supplychain/contracts/contracts/Search/Search_Genesis.sol",
  "compiler": {
    "name": "solc",
    "version": "0.8.4+commit.c7e474f2.Emscripten.clang"
  },
  "schemaVersion": "3.4.1",
  "updatedAt": "2021-08-05T19:30:22.172Z",
  "devdoc": {
    "details": "Store & retrieve value in a variable",
    "kind": "dev",
    "methods": {},
    "title": "Storage",
    "version": 1
  },
  "userdoc": {
    "kind": "user",
    "methods": {},
    "version": 1
  }
}