{
  "contractName": "MerchandiseSearch",
  "abi": [
    {
      "anonymous": false,
      "inputs": [
        {
          "indexed": false,
          "internalType": "string",
          "name": "Status",
          "type": "string"
        },
        {
          "indexed": false,
          "internalType": "address",
          "name": "Transporter",
          "type": "address"
        },
        {
          "indexed": false,
          "internalType": "address",
          "name": "TransportAddress",
          "type": "address"
        }
      ],
      "name": "NewChangeTransportEvent",
      "type": "event"
    },
    {
      "anonymous": false,
      "inputs": [
        {
          "indexed": false,
          "internalType": "address",
          "name": "Manager",
          "type": "address"
        },
        {
          "indexed": false,
          "internalType": "address",
          "name": "Genesis",
          "type": "address"
        }
      ],
      "name": "NewEvent",
      "type": "event"
    },
    {
      "anonymous": false,
      "inputs": [
        {
          "indexed": false,
          "internalType": "address",
          "name": "Reviewer",
          "type": "address"
        },
        {
          "indexed": false,
          "internalType": "address",
          "name": "Review",
          "type": "address"
        },
        {
          "indexed": false,
          "internalType": "string",
          "name": "Comment",
          "type": "string"
        },
        {
          "indexed": false,
          "internalType": "uint8",
          "name": "rate",
          "type": "uint8"
        }
      ],
      "name": "NewReviewEvent",
      "type": "event"
    },
    {
      "anonymous": false,
      "inputs": [
        {
          "indexed": false,
          "internalType": "address",
          "name": "StakerAddress",
          "type": "address"
        },
        {
          "indexed": false,
          "internalType": "uint32",
          "name": "TimeStamp",
          "type": "uint32"
        },
        {
          "indexed": false,
          "internalType": "uint256",
          "name": "Amount",
          "type": "uint256"
        }
      ],
      "name": "Stake",
      "type": "event"
    },
    {
      "anonymous": false,
      "inputs": [
        {
          "indexed": false,
          "internalType": "address",
          "name": "StakerAddress",
          "type": "address"
        },
        {
          "indexed": false,
          "internalType": "uint32",
          "name": "TimeStamp",
          "type": "uint32"
        },
        {
          "indexed": false,
          "internalType": "uint256",
          "name": "Amount",
          "type": "uint256"
        }
      ],
      "name": "UnStake",
      "type": "event"
    },
    {
      "inputs": [
        {
          "internalType": "address",
          "name": "",
          "type": "address"
        }
      ],
      "name": "AddressToMerchandise",
      "outputs": [
        {
          "internalType": "uint256",
          "name": "ID",
          "type": "uint256"
        },
        {
          "internalType": "string",
          "name": "CompanyName",
          "type": "string"
        },
        {
          "internalType": "string",
          "name": "ProductName",
          "type": "string"
        },
        {
          "internalType": "string",
          "name": "Image",
          "type": "string"
        },
        {
          "internalType": "string",
          "name": "Code",
          "type": "string"
        },
        {
          "internalType": "uint32",
          "name": "Weight",
          "type": "uint32"
        },
        {
          "internalType": "uint32",
          "name": "Timestamp",
          "type": "uint32"
        },
        {
          "internalType": "address",
          "name": "ManagerAddress",
          "type": "address"
        },
        {
          "internalType": "address",
          "name": "MerchandiseAddress",
          "type": "address"
        },
        {
          "internalType": "address",
          "name": "PrevProcessAddress",
          "type": "address"
        }
      ],
      "stateMutability": "view",
      "type": "function"
    },
    {
      "inputs": [
        {
          "internalType": "string",
          "name": "CompanyName",
          "type": "string"
        },
        {
          "internalType": "string",
          "name": "ProductName",
          "type": "string"
        },
        {
          "internalType": "string",
          "name": "Image",
          "type": "string"
        },
        {
          "internalType": "string",
          "name": "Code",
          "type": "string"
        },
        {
          "internalType": "uint32",
          "name": "Weight",
          "type": "uint32"
        },
        {
          "internalType": "address",
          "name": "PrevProcessAddress",
          "type": "address"
        }
      ],
      "name": "CreateMerchandise",
      "outputs": [],
      "stateMutability": "nonpayable",
      "type": "function"
    },
    {
      "inputs": [
        {
          "internalType": "uint256",
          "name": "",
          "type": "uint256"
        }
      ],
      "name": "MerchandiseList",
      "outputs": [
        {
          "internalType": "uint256",
          "name": "ID",
          "type": "uint256"
        },
        {
          "internalType": "string",
          "name": "CompanyName",
          "type": "string"
        },
        {
          "internalType": "string",
          "name": "ProductName",
          "type": "string"
        },
        {
          "internalType": "string",
          "name": "Image",
          "type": "string"
        },
        {
          "internalType": "string",
          "name": "Code",
          "type": "string"
        },
        {
          "internalType": "uint32",
          "name": "Weight",
          "type": "uint32"
        },
        {
          "internalType": "uint32",
          "name": "Timestamp",
          "type": "uint32"
        },
        {
          "internalType": "address",
          "name": "ManagerAddress",
          "type": "address"
        },
        {
          "internalType": "address",
          "name": "MerchandiseAddress",
          "type": "address"
        },
        {
          "internalType": "address",
          "name": "PrevProcessAddress",
          "type": "address"
        }
      ],
      "stateMutability": "view",
      "type": "function"
    },
    {
      "inputs": [
        {
          "internalType": "address",
          "name": "Address",
          "type": "address"
        }
      ],
      "name": "SearchMerchandiseByAddress",
      "outputs": [
        {
          "components": [
            {
              "internalType": "uint256",
              "name": "ID",
              "type": "uint256"
            },
            {
              "internalType": "string",
              "name": "CompanyName",
              "type": "string"
            },
            {
              "internalType": "string",
              "name": "ProductName",
              "type": "string"
            },
            {
              "internalType": "string",
              "name": "Image",
              "type": "string"
            },
            {
              "internalType": "string",
              "name": "Code",
              "type": "string"
            },
            {
              "internalType": "uint32",
              "name": "Weight",
              "type": "uint32"
            },
            {
              "internalType": "uint32",
              "name": "Timestamp",
              "type": "uint32"
            },
            {
              "internalType": "address",
              "name": "ManagerAddress",
              "type": "address"
            },
            {
              "internalType": "address",
              "name": "MerchandiseAddress",
              "type": "address"
            },
            {
              "internalType": "address",
              "name": "PrevProcessAddress",
              "type": "address"
            }
          ],
          "internalType": "struct MerchandiseFactory.Merchandise",
          "name": "",
          "type": "tuple"
        }
      ],
      "stateMutability": "view",
      "type": "function"
    },
    {
      "inputs": [
        {
          "internalType": "address",
          "name": "ManagerAddress",
          "type": "address"
        }
      ],
      "name": "SearchMerchandiseByManagerAddress",
      "outputs": [
        {
          "internalType": "uint256[]",
          "name": "",
          "type": "uint256[]"
        }
      ],
      "stateMutability": "view",
      "type": "function"
    },
    {
      "inputs": [
        {
          "internalType": "uint256",
          "name": "ID",
          "type": "uint256"
        }
      ],
      "name": "SearchMerchandiseByID",
      "outputs": [
        {
          "components": [
            {
              "internalType": "uint256",
              "name": "ID",
              "type": "uint256"
            },
            {
              "internalType": "string",
              "name": "CompanyName",
              "type": "string"
            },
            {
              "internalType": "string",
              "name": "ProductName",
              "type": "string"
            },
            {
              "internalType": "string",
              "name": "Image",
              "type": "string"
            },
            {
              "internalType": "string",
              "name": "Code",
              "type": "string"
            },
            {
              "internalType": "uint32",
              "name": "Weight",
              "type": "uint32"
            },
            {
              "internalType": "uint32",
              "name": "Timestamp",
              "type": "uint32"
            },
            {
              "internalType": "address",
              "name": "ManagerAddress",
              "type": "address"
            },
            {
              "internalType": "address",
              "name": "MerchandiseAddress",
              "type": "address"
            },
            {
              "internalType": "address",
              "name": "PrevProcessAddress",
              "type": "address"
            }
          ],
          "internalType": "struct MerchandiseFactory.Merchandise",
          "name": "",
          "type": "tuple"
        }
      ],
      "stateMutability": "view",
      "type": "function"
    }
  ],
  "bytecode": "0x6080604052737ef2e0048f5baede046f6bf797943daf4ed8cb476000806101000a81548173ffffffffffffffffffffffffffffffffffffffff021916908373ffffffffffffffffffffffffffffffffffffffff16021790555073965ecf3b23e96f095f1811096333731610aba986600160006101000a81548173ffffffffffffffffffffffffffffffffffffffff021916908373ffffffffffffffffffffffffffffffffffffffff16021790555060008054906101000a900473ffffffffffffffffffffffffffffffffffffffff16600260006101000a81548173ffffffffffffffffffffffffffffffffffffffff021916908373ffffffffffffffffffffffffffffffffffffffff16021790555034801561011a57600080fd5b5061236b8061012a6000396000f3fe608060405234801561001057600080fd5b50600436106100625760003560e01c80635723f603146100675780636ea6d6c11461009757806399c0febf146100d05780639b2c8faa146100ec578063c2527be014610125578063def6392014610155575b600080fd5b610081600480360381019061007c91906119d3565b610185565b60405161008e9190611ed1565b60405180910390f35b6100b160048036038101906100ac9190611b0e565b61057f565b6040516100c79a99989796959493929190611ef3565b60405180910390f35b6100ea60048036038101906100e59190611a25565b610883565b005b610106600480360381019061010191906119d3565b610deb565b60405161011c9a99989796959493929190611ef3565b60405180910390f35b61013f600480360381019061013a9190611b0e565b6110df565b60405161014c9190611ed1565b60405180910390f35b61016f600480360381019061016a91906119d3565b6114e2565b60405161017c9190611e81565b60405180910390f35b61018d6117d3565b600460008373ffffffffffffffffffffffffffffffffffffffff1673ffffffffffffffffffffffffffffffffffffffff16815260200190815260200160002060405180610140016040529081600082015481526020016001820180546101f29061210c565b80601f016020809104026020016040519081016040528092919081815260200182805461021e9061210c565b801561026b5780601f106102405761010080835404028352916020019161026b565b820191906000526020600020905b81548152906001019060200180831161024e57829003601f168201915b505050505081526020016002820180546102849061210c565b80601f01602080910402602001604051908101604052809291908181526020018280546102b09061210c565b80156102fd5780601f106102d2576101008083540402835291602001916102fd565b820191906000526020600020905b8154815290600101906020018083116102e057829003601f168201915b505050505081526020016003820180546103169061210c565b80601f01602080910402602001604051908101604052809291908181526020018280546103429061210c565b801561038f5780601f106103645761010080835404028352916020019161038f565b820191906000526020600020905b81548152906001019060200180831161037257829003601f168201915b505050505081526020016004820180546103a89061210c565b80601f01602080910402602001604051908101604052809291908181526020018280546103d49061210c565b80156104215780601f106103f657610100808354040283529160200191610421565b820191906000526020600020905b81548152906001019060200180831161040457829003601f168201915b505050505081526020016005820160009054906101000a900463ffffffff1663ffffffff1663ffffffff1681526020016005820160049054906101000a900463ffffffff1663ffffffff1663ffffffff1681526020016005820160089054906101000a900473ffffffffffffffffffffffffffffffffffffffff1673ffffffffffffffffffffffffffffffffffffffff1673ffffffffffffffffffffffffffffffffffffffff1681526020016006820160009054906101000a900473ffffffffffffffffffffffffffffffffffffffff1673ffffffffffffffffffffffffffffffffffffffff1673ffffffffffffffffffffffffffffffffffffffff1681526020016007820160009054906101000a900473ffffffffffffffffffffffffffffffffffffffff1673ffffffffffffffffffffffffffffffffffffffff1673ffffffffffffffffffffffffffffffffffffffff16815250509050919050565b6003818154811061058f57600080fd5b90600052602060002090600802016000915090508060000154908060010180546105b89061210c565b80601f01602080910402602001604051908101604052809291908181526020018280546105e49061210c565b80156106315780601f1061060657610100808354040283529160200191610631565b820191906000526020600020905b81548152906001019060200180831161061457829003601f168201915b5050505050908060020180546106469061210c565b80601f01602080910402602001604051908101604052809291908181526020018280546106729061210c565b80156106bf5780601f10610694576101008083540402835291602001916106bf565b820191906000526020600020905b8154815290600101906020018083116106a257829003601f168201915b5050505050908060030180546106d49061210c565b80601f01602080910402602001604051908101604052809291908181526020018280546107009061210c565b801561074d5780601f106107225761010080835404028352916020019161074d565b820191906000526020600020905b81548152906001019060200180831161073057829003601f168201915b5050505050908060040180546107629061210c565b80601f016020809104026020016040519081016040528092919081815260200182805461078e9061210c565b80156107db5780601f106107b0576101008083540402835291602001916107db565b820191906000526020600020905b8154815290600101906020018083116107be57829003601f168201915b5050505050908060050160009054906101000a900463ffffffff16908060050160049054906101000a900463ffffffff16908060050160089054906101000a900473ffffffffffffffffffffffffffffffffffffffff16908060060160009054906101000a900473ffffffffffffffffffffffffffffffffffffffff16908060070160009054906101000a900473ffffffffffffffffffffffffffffffffffffffff1690508a565b60011515600260009054906101000a900473ffffffffffffffffffffffffffffffffffffffff1673ffffffffffffffffffffffffffffffffffffffff1663db343539336040518263ffffffff1660e01b81526004016108e29190611ea3565b60206040518083038186803b1580156108fa57600080fd5b505afa15801561090e573d6000803e3d6000fd5b505050506040513d601f19601f8201168201806040525081019061093291906119fc565b15151461093e57600080fd5b600061095286864233600380549050611750565b9050600060405180610140016040528060038054905081526020018981526020018881526020018781526020018681526020018563ffffffff1681526020014263ffffffff1681526020013373ffffffffffffffffffffffffffffffffffffffff1681526020018373ffffffffffffffffffffffffffffffffffffffff1681526020018473ffffffffffffffffffffffffffffffffffffffff1681525090506003819080600181540180825580915050600190039060005260206000209060080201600090919091909150600082015181600001556020820151816001019080519060200190610a43929190611874565b506040820151816002019080519060200190610a60929190611874565b506060820151816003019080519060200190610a7d929190611874565b506080820151816004019080519060200190610a9a929190611874565b5060a08201518160050160006101000a81548163ffffffff021916908363ffffffff16021790555060c08201518160050160046101000a81548163ffffffff021916908363ffffffff16021790555060e08201518160050160086101000a81548173ffffffffffffffffffffffffffffffffffffffff021916908373ffffffffffffffffffffffffffffffffffffffff1602179055506101008201518160060160006101000a81548173ffffffffffffffffffffffffffffffffffffffff021916908373ffffffffffffffffffffffffffffffffffffffff1602179055506101208201518160070160006101000a81548173ffffffffffffffffffffffffffffffffffffffff021916908373ffffffffffffffffffffffffffffffffffffffff160217905550505080600460008473ffffffffffffffffffffffffffffffffffffffff1673ffffffffffffffffffffffffffffffffffffffff168152602001908152602001600020600082015181600001556020820151816001019080519060200190610c28929190611874565b506040820151816002019080519060200190610c45929190611874565b506060820151816003019080519060200190610c62929190611874565b506080820151816004019080519060200190610c7f929190611874565b5060a08201518160050160006101000a81548163ffffffff021916908363ffffffff16021790555060c08201518160050160046101000a81548163ffffffff021916908363ffffffff16021790555060e08201518160050160086101000a81548173ffffffffffffffffffffffffffffffffffffffff021916908373ffffffffffffffffffffffffffffffffffffffff1602179055506101008201518160060160006101000a81548173ffffffffffffffffffffffffffffffffffffffff021916908373ffffffffffffffffffffffffffffffffffffffff1602179055506101208201518160070160006101000a81548173ffffffffffffffffffffffffffffffffffffffff021916908373ffffffffffffffffffffffffffffffffffffffff1602179055509050507f2eab9bbcd3573a37c80df886e181d345b1b44fb6fd6a220f526b8992e332b0fa3383604051610dd9929190611e58565b60405180910390a15050505050505050565b6004602052806000526040600020600091509050806000015490806001018054610e149061210c565b80601f0160208091040260200160405190810160405280929190818152602001828054610e409061210c565b8015610e8d5780601f10610e6257610100808354040283529160200191610e8d565b820191906000526020600020905b815481529060010190602001808311610e7057829003601f168201915b505050505090806002018054610ea29061210c565b80601f0160208091040260200160405190810160405280929190818152602001828054610ece9061210c565b8015610f1b5780601f10610ef057610100808354040283529160200191610f1b565b820191906000526020600020905b815481529060010190602001808311610efe57829003601f168201915b505050505090806003018054610f309061210c565b80601f0160208091040260200160405190810160405280929190818152602001828054610f5c9061210c565b8015610fa95780601f10610f7e57610100808354040283529160200191610fa9565b820191906000526020600020905b815481529060010190602001808311610f8c57829003601f168201915b505050505090806004018054610fbe9061210c565b80601f0160208091040260200160405190810160405280929190818152602001828054610fea9061210c565b80156110375780601f1061100c57610100808354040283529160200191611037565b820191906000526020600020905b81548152906001019060200180831161101a57829003601f168201915b5050505050908060050160009054906101000a900463ffffffff16908060050160049054906101000a900463ffffffff16908060050160089054906101000a900473ffffffffffffffffffffffffffffffffffffffff16908060060160009054906101000a900473ffffffffffffffffffffffffffffffffffffffff16908060070160009054906101000a900473ffffffffffffffffffffffffffffffffffffffff1690508a565b6110e76117d3565b60038281548110611121577f4e487b7100000000000000000000000000000000000000000000000000000000600052603260045260246000fd5b906000526020600020906008020160405180610140016040529081600082015481526020016001820180546111559061210c565b80601f01602080910402602001604051908101604052809291908181526020018280546111819061210c565b80156111ce5780601f106111a3576101008083540402835291602001916111ce565b820191906000526020600020905b8154815290600101906020018083116111b157829003601f168201915b505050505081526020016002820180546111e79061210c565b80601f01602080910402602001604051908101604052809291908181526020018280546112139061210c565b80156112605780601f1061123557610100808354040283529160200191611260565b820191906000526020600020905b81548152906001019060200180831161124357829003601f168201915b505050505081526020016003820180546112799061210c565b80601f01602080910402602001604051908101604052809291908181526020018280546112a59061210c565b80156112f25780601f106112c7576101008083540402835291602001916112f2565b820191906000526020600020905b8154815290600101906020018083116112d557829003601f168201915b5050505050815260200160048201805461130b9061210c565b80601f01602080910402602001604051908101604052809291908181526020018280546113379061210c565b80156113845780601f1061135957610100808354040283529160200191611384565b820191906000526020600020905b81548152906001019060200180831161136757829003601f168201915b505050505081526020016005820160009054906101000a900463ffffffff1663ffffffff1663ffffffff1681526020016005820160049054906101000a900463ffffffff1663ffffffff1663ffffffff1681526020016005820160089054906101000a900473ffffffffffffffffffffffffffffffffffffffff1673ffffffffffffffffffffffffffffffffffffffff1673ffffffffffffffffffffffffffffffffffffffff1681526020016006820160009054906101000a900473ffffffffffffffffffffffffffffffffffffffff1673ffffffffffffffffffffffffffffffffffffffff1673ffffffffffffffffffffffffffffffffffffffff1681526020016007820160009054906101000a900473ffffffffffffffffffffffffffffffffffffffff1673ffffffffffffffffffffffffffffffffffffffff1673ffffffffffffffffffffffffffffffffffffffff16815250509050919050565b60606000600380549050905060008060005b838110156115bd578573ffffffffffffffffffffffffffffffffffffffff166003828154811061154d577f4e487b7100000000000000000000000000000000000000000000000000000000600052603260045260246000fd5b906000526020600020906008020160050160089054906101000a900473ffffffffffffffffffffffffffffffffffffffff1673ffffffffffffffffffffffffffffffffffffffff1614156115aa5782806115a69061216f565b9350505b80806115b59061216f565b9150506114f4565b5060008267ffffffffffffffff811115611600577f4e487b7100000000000000000000000000000000000000000000000000000000600052604160045260246000fd5b60405190808252806020026020018201604052801561162e5781602001602082028036833780820191505090505b50905060005b84811015611743578673ffffffffffffffffffffffffffffffffffffffff166003828154811061168d577f4e487b7100000000000000000000000000000000000000000000000000000000600052603260045260246000fd5b906000526020600020906008020160050160089054906101000a900473ffffffffffffffffffffffffffffffffffffffff1673ffffffffffffffffffffffffffffffffffffffff1614156117305780828481518110611715577f4e487b7100000000000000000000000000000000000000000000000000000000600052603260045260246000fd5b602002602001018181525050828061172c9061216f565b9350505b808061173b9061216f565b915050611634565b5080945050505050919050565b60008273ffffffffffffffffffffffffffffffffffffffff163373ffffffffffffffffffffffffffffffffffffffff161461178a57600080fd5b600086868686866040516020016117a5959493929190611e01565b60405160208183030381529060405280519060200120905060008160601c9050809250505095945050505050565b6040518061014001604052806000815260200160608152602001606081526020016060815260200160608152602001600063ffffffff168152602001600063ffffffff168152602001600073ffffffffffffffffffffffffffffffffffffffff168152602001600073ffffffffffffffffffffffffffffffffffffffff168152602001600073ffffffffffffffffffffffffffffffffffffffff1681525090565b8280546118809061210c565b90600052602060002090601f0160209004810192826118a257600085556118e9565b82601f106118bb57805160ff19168380011785556118e9565b828001600101855582156118e9579182015b828111156118e85782518255916020019190600101906118cd565b5b5090506118f691906118fa565b5090565b5b808211156119135760008160009055506001016118fb565b5090565b600061192a61192584611fd0565b611fab565b90508281526020810184848401111561194257600080fd5b61194d8482856120ca565b509392505050565b600081359050611964816122d9565b92915050565b600081519050611979816122f0565b92915050565b600082601f83011261199057600080fd5b81356119a0848260208601611917565b91505092915050565b6000813590506119b881612307565b92915050565b6000813590506119cd8161231e565b92915050565b6000602082840312156119e557600080fd5b60006119f384828501611955565b91505092915050565b600060208284031215611a0e57600080fd5b6000611a1c8482850161196a565b91505092915050565b60008060008060008060c08789031215611a3e57600080fd5b600087013567ffffffffffffffff811115611a5857600080fd5b611a6489828a0161197f565b965050602087013567ffffffffffffffff811115611a8157600080fd5b611a8d89828a0161197f565b955050604087013567ffffffffffffffff811115611aaa57600080fd5b611ab689828a0161197f565b945050606087013567ffffffffffffffff811115611ad357600080fd5b611adf89828a0161197f565b9350506080611af089828a016119be565b92505060a0611b0189828a01611955565b9150509295509295509295565b600060208284031215611b2057600080fd5b6000611b2e848285016119a9565b91505092915050565b6000611b438383611d97565b60208301905092915050565b611b5881612072565b82525050565b611b6781612072565b82525050565b611b7e611b7982612072565b6121b8565b82525050565b6000611b8f82612011565b611b998185612034565b9350611ba483612001565b8060005b83811015611bd5578151611bbc8882611b37565b9750611bc783612027565b925050600181019050611ba8565b5085935050505092915050565b6000611bed8261201c565b611bf78185612045565b9350611c078185602086016120d9565b611c1081612285565b840191505092915050565b6000611c268261201c565b611c308185612056565b9350611c408185602086016120d9565b611c4981612285565b840191505092915050565b6000611c5f8261201c565b611c698185612067565b9350611c798185602086016120d9565b80840191505092915050565b6000611c92600b83612056565b9150611c9d826122b0565b602082019050919050565b600061014083016000830151611cc16000860182611d97565b5060208301518482036020860152611cd98282611be2565b91505060408301518482036040860152611cf38282611be2565b91505060608301518482036060860152611d0d8282611be2565b91505060808301518482036080860152611d278282611be2565b91505060a0830151611d3c60a0860182611dcc565b5060c0830151611d4f60c0860182611dcc565b5060e0830151611d6260e0860182611b4f565b50610100830151611d77610100860182611b4f565b50610120830151611d8c610120860182611b4f565b508091505092915050565b611da0816120b0565b82525050565b611daf816120b0565b82525050565b611dc6611dc1826120b0565b6121dc565b82525050565b611dd5816120ba565b82525050565b611de4816120ba565b82525050565b611dfb611df6826120ba565b6121e6565b82525050565b6000611e0d8288611c54565b9150611e198287611c54565b9150611e258286611dea565b600482019150611e358285611b6d565b601482019150611e458284611db5565b6020820191508190509695505050505050565b6000604082019050611e6d6000830185611b5e565b611e7a6020830184611b5e565b9392505050565b60006020820190508181036000830152611e9b8184611b84565b905092915050565b60006040820190508181036000830152611ebc81611c85565b9050611ecb6020830184611b5e565b92915050565b60006020820190508181036000830152611eeb8184611ca8565b905092915050565b600061014082019050611f09600083018d611da6565b8181036020830152611f1b818c611c1b565b90508181036040830152611f2f818b611c1b565b90508181036060830152611f43818a611c1b565b90508181036080830152611f578189611c1b565b9050611f6660a0830188611ddb565b611f7360c0830187611ddb565b611f8060e0830186611b5e565b611f8e610100830185611b5e565b611f9c610120830184611b5e565b9b9a5050505050505050505050565b6000611fb5611fc6565b9050611fc1828261213e565b919050565b6000604051905090565b600067ffffffffffffffff821115611feb57611fea612256565b5b611ff482612285565b9050602081019050919050565b6000819050602082019050919050565b600081519050919050565b600081519050919050565b6000602082019050919050565b600082825260208201905092915050565b600082825260208201905092915050565b600082825260208201905092915050565b600081905092915050565b600061207d82612090565b9050919050565b60008115159050919050565b600073ffffffffffffffffffffffffffffffffffffffff82169050919050565b6000819050919050565b600063ffffffff82169050919050565b82818337600083830152505050565b60005b838110156120f75780820151818401526020810190506120dc565b83811115612106576000848401525b50505050565b6000600282049050600182168061212457607f821691505b6020821081141561213857612137612227565b5b50919050565b61214782612285565b810181811067ffffffffffffffff8211171561216657612165612256565b5b80604052505050565b600061217a826120b0565b91507fffffffffffffffffffffffffffffffffffffffffffffffffffffffffffffffff8214156121ad576121ac6121f8565b5b600182019050919050565b60006121c3826121ca565b9050919050565b60006121d5826122a3565b9050919050565b6000819050919050565b60006121f182612296565b9050919050565b7f4e487b7100000000000000000000000000000000000000000000000000000000600052601160045260246000fd5b7f4e487b7100000000000000000000000000000000000000000000000000000000600052602260045260246000fd5b7f4e487b7100000000000000000000000000000000000000000000000000000000600052604160045260246000fd5b6000601f19601f8301169050919050565b60008160e01b9050919050565b60008160601b9050919050565b7f4d65726368616e64697365000000000000000000000000000000000000000000600082015250565b6122e281612072565b81146122ed57600080fd5b50565b6122f981612084565b811461230457600080fd5b50565b612310816120b0565b811461231b57600080fd5b50565b612327816120ba565b811461233257600080fd5b5056fea264697066735822122022d74242c9edc4568f1a552b87d4f08f425abadaac535484c03fb0f2b4578fd664736f6c63430008040033",
  "immutableReferences": {},
  "source": "// SPDX-License-Identifier: GPL-3.0\r\n\r\npragma solidity >=0.7.0 <0.9.0;\r\nimport \"../Factory/Factory_Merchandise.sol\";\r\n\r\n/**\r\n * @title Storage\r\n * @dev Store & retrieve value in a variable\r\n */\r\ncontract MerchandiseSearch is MerchandiseFactory{\r\n    function SearchMerchandiseByAddress(\r\n        address Address\r\n    )\r\n    public\r\n    view\r\n    returns(Merchandise memory)\r\n    {\r\n        return AddressToMerchandise[Address];\r\n    }\r\n    \r\n    function SearchMerchandiseByManagerAddress(\r\n        address ManagerAddress\r\n    )\r\n    public\r\n    view\r\n    returns(uint[] memory)\r\n    {\r\n        uint MerchandiseAmount = MerchandiseList.length;\r\n        uint ManagerMerchandiseAmount = 0;\r\n        uint Count = 0;\r\n        \r\n        for(uint i = 0; i < MerchandiseAmount; i++){\r\n            if(MerchandiseList[i].ManagerAddress == ManagerAddress){\r\n                ManagerMerchandiseAmount++;\r\n            }\r\n        }\r\n        \r\n        uint[] memory result = new uint[](ManagerMerchandiseAmount);\r\n        \r\n        for(uint i = 0; i < MerchandiseAmount; i++){\r\n            if(MerchandiseList[i].ManagerAddress == ManagerAddress){\r\n                result[Count] = i;\r\n                Count++;\r\n            }\r\n        }\r\n        \r\n        return result;\r\n    }\r\n    \r\n    function SearchMerchandiseByID(\r\n        uint ID\r\n    )\r\n    public\r\n    view\r\n    returns(Merchandise memory)\r\n    {\r\n        return MerchandiseList[ID];\r\n    }\r\n}",
  "sourcePath": "C:/Users/user/mew-supplychain/contracts/contracts/Search/Search_Merchandise.sol",
  "compiler": {
    "name": "solc",
    "version": "0.8.4+commit.c7e474f2.Emscripten.clang"
  },
  "schemaVersion": "3.4.1",
  "updatedAt": "2021-08-05T19:30:22.183Z",
  "devdoc": {
    "details": "Store & retrieve value in a variable",
    "kind": "dev",
    "methods": {},
    "title": "Storage",
    "version": 1
  },
  "userdoc": {
    "kind": "user",
    "methods": {},
    "version": 1
  }
}