{
  "contractName": "MerchandiseFactory",
  "abi": [
    {
      "anonymous": false,
      "inputs": [
        {
          "indexed": false,
          "internalType": "string",
          "name": "Status",
          "type": "string"
        },
        {
          "indexed": false,
          "internalType": "address",
          "name": "Transporter",
          "type": "address"
        },
        {
          "indexed": false,
          "internalType": "address",
          "name": "TransportAddress",
          "type": "address"
        }
      ],
      "name": "NewChangeTransportEvent",
      "type": "event"
    },
    {
      "anonymous": false,
      "inputs": [
        {
          "indexed": false,
          "internalType": "address",
          "name": "Manager",
          "type": "address"
        },
        {
          "indexed": false,
          "internalType": "address",
          "name": "Genesis",
          "type": "address"
        }
      ],
      "name": "NewEvent",
      "type": "event"
    },
    {
      "anonymous": false,
      "inputs": [
        {
          "indexed": false,
          "internalType": "address",
          "name": "Reviewer",
          "type": "address"
        },
        {
          "indexed": false,
          "internalType": "address",
          "name": "Review",
          "type": "address"
        },
        {
          "indexed": false,
          "internalType": "string",
          "name": "Comment",
          "type": "string"
        },
        {
          "indexed": false,
          "internalType": "uint8",
          "name": "rate",
          "type": "uint8"
        }
      ],
      "name": "NewReviewEvent",
      "type": "event"
    },
    {
      "anonymous": false,
      "inputs": [
        {
          "indexed": false,
          "internalType": "address",
          "name": "StakerAddress",
          "type": "address"
        },
        {
          "indexed": false,
          "internalType": "uint32",
          "name": "TimeStamp",
          "type": "uint32"
        },
        {
          "indexed": false,
          "internalType": "uint256",
          "name": "Amount",
          "type": "uint256"
        }
      ],
      "name": "Stake",
      "type": "event"
    },
    {
      "anonymous": false,
      "inputs": [
        {
          "indexed": false,
          "internalType": "address",
          "name": "StakerAddress",
          "type": "address"
        },
        {
          "indexed": false,
          "internalType": "uint32",
          "name": "TimeStamp",
          "type": "uint32"
        },
        {
          "indexed": false,
          "internalType": "uint256",
          "name": "Amount",
          "type": "uint256"
        }
      ],
      "name": "UnStake",
      "type": "event"
    },
    {
      "inputs": [
        {
          "internalType": "address",
          "name": "",
          "type": "address"
        }
      ],
      "name": "AddressToMerchandise",
      "outputs": [
        {
          "internalType": "uint256",
          "name": "ID",
          "type": "uint256"
        },
        {
          "internalType": "string",
          "name": "CompanyName",
          "type": "string"
        },
        {
          "internalType": "string",
          "name": "ProductName",
          "type": "string"
        },
        {
          "internalType": "string",
          "name": "Image",
          "type": "string"
        },
        {
          "internalType": "string",
          "name": "Code",
          "type": "string"
        },
        {
          "internalType": "uint32",
          "name": "Weight",
          "type": "uint32"
        },
        {
          "internalType": "uint32",
          "name": "Timestamp",
          "type": "uint32"
        },
        {
          "internalType": "address",
          "name": "ManagerAddress",
          "type": "address"
        },
        {
          "internalType": "address",
          "name": "MerchandiseAddress",
          "type": "address"
        },
        {
          "internalType": "address",
          "name": "PrevProcessAddress",
          "type": "address"
        }
      ],
      "stateMutability": "view",
      "type": "function"
    },
    {
      "inputs": [
        {
          "internalType": "uint256",
          "name": "",
          "type": "uint256"
        }
      ],
      "name": "MerchandiseList",
      "outputs": [
        {
          "internalType": "uint256",
          "name": "ID",
          "type": "uint256"
        },
        {
          "internalType": "string",
          "name": "CompanyName",
          "type": "string"
        },
        {
          "internalType": "string",
          "name": "ProductName",
          "type": "string"
        },
        {
          "internalType": "string",
          "name": "Image",
          "type": "string"
        },
        {
          "internalType": "string",
          "name": "Code",
          "type": "string"
        },
        {
          "internalType": "uint32",
          "name": "Weight",
          "type": "uint32"
        },
        {
          "internalType": "uint32",
          "name": "Timestamp",
          "type": "uint32"
        },
        {
          "internalType": "address",
          "name": "ManagerAddress",
          "type": "address"
        },
        {
          "internalType": "address",
          "name": "MerchandiseAddress",
          "type": "address"
        },
        {
          "internalType": "address",
          "name": "PrevProcessAddress",
          "type": "address"
        }
      ],
      "stateMutability": "view",
      "type": "function"
    },
    {
      "inputs": [
        {
          "internalType": "string",
          "name": "CompanyName",
          "type": "string"
        },
        {
          "internalType": "string",
          "name": "ProductName",
          "type": "string"
        },
        {
          "internalType": "string",
          "name": "Image",
          "type": "string"
        },
        {
          "internalType": "string",
          "name": "Code",
          "type": "string"
        },
        {
          "internalType": "uint32",
          "name": "Weight",
          "type": "uint32"
        },
        {
          "internalType": "address",
          "name": "PrevProcessAddress",
          "type": "address"
        }
      ],
      "name": "CreateMerchandise",
      "outputs": [],
      "stateMutability": "nonpayable",
      "type": "function"
    }
  ],
  "bytecode": "0x6080604052737ef2e0048f5baede046f6bf797943daf4ed8cb476000806101000a81548173ffffffffffffffffffffffffffffffffffffffff021916908373ffffffffffffffffffffffffffffffffffffffff16021790555073fb7628067f0821938fe6d388cd3caf71dd88636b600160006101000a81548173ffffffffffffffffffffffffffffffffffffffff021916908373ffffffffffffffffffffffffffffffffffffffff16021790555060008054906101000a900473ffffffffffffffffffffffffffffffffffffffff16600260006101000a81548173ffffffffffffffffffffffffffffffffffffffff021916908373ffffffffffffffffffffffffffffffffffffffff16021790555034801561011a57600080fd5b506114dd8061012a6000396000f3fe608060405234801561001057600080fd5b50600436106100415760003560e01c80636ea6d6c11461004657806399c0febf1461007f5780639b2c8faa1461009b575b600080fd5b610060600480360381019061005b9190610f51565b6100d4565b6040516100769a99989796959493929190611127565b60405180910390f35b61009960048036038101906100949190610e68565b6103d8565b005b6100b560048036038101906100b09190610e16565b610940565b6040516100cb9a99989796959493929190611127565b60405180910390f35b600381815481106100e457600080fd5b906000526020600020906008020160009150905080600001549080600101805461010d906112f6565b80601f0160208091040260200160405190810160405280929190818152602001828054610139906112f6565b80156101865780601f1061015b57610100808354040283529160200191610186565b820191906000526020600020905b81548152906001019060200180831161016957829003601f168201915b50505050509080600201805461019b906112f6565b80601f01602080910402602001604051908101604052809291908181526020018280546101c7906112f6565b80156102145780601f106101e957610100808354040283529160200191610214565b820191906000526020600020905b8154815290600101906020018083116101f757829003601f168201915b505050505090806003018054610229906112f6565b80601f0160208091040260200160405190810160405280929190818152602001828054610255906112f6565b80156102a25780601f10610277576101008083540402835291602001916102a2565b820191906000526020600020905b81548152906001019060200180831161028557829003601f168201915b5050505050908060040180546102b7906112f6565b80601f01602080910402602001604051908101604052809291908181526020018280546102e3906112f6565b80156103305780601f1061030557610100808354040283529160200191610330565b820191906000526020600020905b81548152906001019060200180831161031357829003601f168201915b5050505050908060050160009054906101000a900463ffffffff16908060050160049054906101000a900463ffffffff16908060050160089054906101000a900473ffffffffffffffffffffffffffffffffffffffff16908060060160009054906101000a900473ffffffffffffffffffffffffffffffffffffffff16908060070160009054906101000a900473ffffffffffffffffffffffffffffffffffffffff1690508a565b60011515600260009054906101000a900473ffffffffffffffffffffffffffffffffffffffff1673ffffffffffffffffffffffffffffffffffffffff1663db343539336040518263ffffffff1660e01b815260040161043791906110f9565b60206040518083038186803b15801561044f57600080fd5b505afa158015610463573d6000803e3d6000fd5b505050506040513d601f19601f820116820180604052508101906104879190610e3f565b15151461049357600080fd5b60006104a786864233600380549050610c34565b9050600060405180610140016040528060038054905081526020018981526020018881526020018781526020018681526020018563ffffffff1681526020014263ffffffff1681526020013373ffffffffffffffffffffffffffffffffffffffff1681526020018373ffffffffffffffffffffffffffffffffffffffff1681526020018473ffffffffffffffffffffffffffffffffffffffff1681525090506003819080600181540180825580915050600190039060005260206000209060080201600090919091909150600082015181600001556020820151816001019080519060200190610598929190610cb7565b5060408201518160020190805190602001906105b5929190610cb7565b5060608201518160030190805190602001906105d2929190610cb7565b5060808201518160040190805190602001906105ef929190610cb7565b5060a08201518160050160006101000a81548163ffffffff021916908363ffffffff16021790555060c08201518160050160046101000a81548163ffffffff021916908363ffffffff16021790555060e08201518160050160086101000a81548173ffffffffffffffffffffffffffffffffffffffff021916908373ffffffffffffffffffffffffffffffffffffffff1602179055506101008201518160060160006101000a81548173ffffffffffffffffffffffffffffffffffffffff021916908373ffffffffffffffffffffffffffffffffffffffff1602179055506101208201518160070160006101000a81548173ffffffffffffffffffffffffffffffffffffffff021916908373ffffffffffffffffffffffffffffffffffffffff160217905550505080600460008473ffffffffffffffffffffffffffffffffffffffff1673ffffffffffffffffffffffffffffffffffffffff16815260200190815260200160002060008201518160000155602082015181600101908051906020019061077d929190610cb7565b50604082015181600201908051906020019061079a929190610cb7565b5060608201518160030190805190602001906107b7929190610cb7565b5060808201518160040190805190602001906107d4929190610cb7565b5060a08201518160050160006101000a81548163ffffffff021916908363ffffffff16021790555060c08201518160050160046101000a81548163ffffffff021916908363ffffffff16021790555060e08201518160050160086101000a81548173ffffffffffffffffffffffffffffffffffffffff021916908373ffffffffffffffffffffffffffffffffffffffff1602179055506101008201518160060160006101000a81548173ffffffffffffffffffffffffffffffffffffffff021916908373ffffffffffffffffffffffffffffffffffffffff1602179055506101208201518160070160006101000a81548173ffffffffffffffffffffffffffffffffffffffff021916908373ffffffffffffffffffffffffffffffffffffffff1602179055509050507f2eab9bbcd3573a37c80df886e181d345b1b44fb6fd6a220f526b8992e332b0fa338360405161092e9291906110d0565b60405180910390a15050505050505050565b6004602052806000526040600020600091509050806000015490806001018054610969906112f6565b80601f0160208091040260200160405190810160405280929190818152602001828054610995906112f6565b80156109e25780601f106109b7576101008083540402835291602001916109e2565b820191906000526020600020905b8154815290600101906020018083116109c557829003601f168201915b5050505050908060020180546109f7906112f6565b80601f0160208091040260200160405190810160405280929190818152602001828054610a23906112f6565b8015610a705780601f10610a4557610100808354040283529160200191610a70565b820191906000526020600020905b815481529060010190602001808311610a5357829003601f168201915b505050505090806003018054610a85906112f6565b80601f0160208091040260200160405190810160405280929190818152602001828054610ab1906112f6565b8015610afe5780601f10610ad357610100808354040283529160200191610afe565b820191906000526020600020905b815481529060010190602001808311610ae157829003601f168201915b505050505090806004018054610b13906112f6565b80601f0160208091040260200160405190810160405280929190818152602001828054610b3f906112f6565b8015610b8c5780601f10610b6157610100808354040283529160200191610b8c565b820191906000526020600020905b815481529060010190602001808311610b6f57829003601f168201915b5050505050908060050160009054906101000a900463ffffffff16908060050160049054906101000a900463ffffffff16908060050160089054906101000a900473ffffffffffffffffffffffffffffffffffffffff16908060060160009054906101000a900473ffffffffffffffffffffffffffffffffffffffff16908060070160009054906101000a900473ffffffffffffffffffffffffffffffffffffffff1690508a565b60008273ffffffffffffffffffffffffffffffffffffffff163373ffffffffffffffffffffffffffffffffffffffff1614610c6e57600080fd5b60008686868686604051602001610c89959493929190611079565b60405160208183030381529060405280519060200120905060008160601c9050809250505095945050505050565b828054610cc3906112f6565b90600052602060002090601f016020900481019282610ce55760008555610d2c565b82601f10610cfe57805160ff1916838001178555610d2c565b82800160010185558215610d2c579182015b82811115610d2b578251825591602001919060010190610d10565b5b509050610d399190610d3d565b5090565b5b80821115610d56576000816000905550600101610d3e565b5090565b6000610d6d610d6884611204565b6111df565b905082815260208101848484011115610d8557600080fd5b610d908482856112b4565b509392505050565b600081359050610da78161144b565b92915050565b600081519050610dbc81611462565b92915050565b600082601f830112610dd357600080fd5b8135610de3848260208601610d5a565b91505092915050565b600081359050610dfb81611479565b92915050565b600081359050610e1081611490565b92915050565b600060208284031215610e2857600080fd5b6000610e3684828501610d98565b91505092915050565b600060208284031215610e5157600080fd5b6000610e5f84828501610dad565b91505092915050565b60008060008060008060c08789031215610e8157600080fd5b600087013567ffffffffffffffff811115610e9b57600080fd5b610ea789828a01610dc2565b965050602087013567ffffffffffffffff811115610ec457600080fd5b610ed089828a01610dc2565b955050604087013567ffffffffffffffff811115610eed57600080fd5b610ef989828a01610dc2565b945050606087013567ffffffffffffffff811115610f1657600080fd5b610f2289828a01610dc2565b9350506080610f3389828a01610e01565b92505060a0610f4489828a01610d98565b9150509295509295509295565b600060208284031215610f6357600080fd5b6000610f7184828501610dec565b91505092915050565b610f838161125c565b82525050565b610f9a610f958261125c565b611359565b82525050565b6000610fab82611235565b610fb58185611240565b9350610fc58185602086016112c3565b610fce816113f7565b840191505092915050565b6000610fe482611235565b610fee8185611251565b9350610ffe8185602086016112c3565b80840191505092915050565b6000611017600b83611240565b915061102282611422565b602082019050919050565b6110368161129a565b82525050565b61104d6110488261129a565b61137d565b82525050565b61105c816112a4565b82525050565b61107361106e826112a4565b611387565b82525050565b60006110858288610fd9565b91506110918287610fd9565b915061109d8286611062565b6004820191506110ad8285610f89565b6014820191506110bd828461103c565b6020820191508190509695505050505050565b60006040820190506110e56000830185610f7a565b6110f26020830184610f7a565b9392505050565b600060408201905081810360008301526111128161100a565b90506111216020830184610f7a565b92915050565b60006101408201905061113d600083018d61102d565b818103602083015261114f818c610fa0565b90508181036040830152611163818b610fa0565b90508181036060830152611177818a610fa0565b9050818103608083015261118b8189610fa0565b905061119a60a0830188611053565b6111a760c0830187611053565b6111b460e0830186610f7a565b6111c2610100830185610f7a565b6111d0610120830184610f7a565b9b9a5050505050505050505050565b60006111e96111fa565b90506111f58282611328565b919050565b6000604051905090565b600067ffffffffffffffff82111561121f5761121e6113c8565b5b611228826113f7565b9050602081019050919050565b600081519050919050565b600082825260208201905092915050565b600081905092915050565b60006112678261127a565b9050919050565b60008115159050919050565b600073ffffffffffffffffffffffffffffffffffffffff82169050919050565b6000819050919050565b600063ffffffff82169050919050565b82818337600083830152505050565b60005b838110156112e15780820151818401526020810190506112c6565b838111156112f0576000848401525b50505050565b6000600282049050600182168061130e57607f821691505b6020821081141561132257611321611399565b5b50919050565b611331826113f7565b810181811067ffffffffffffffff821117156113505761134f6113c8565b5b80604052505050565b60006113648261136b565b9050919050565b600061137682611415565b9050919050565b6000819050919050565b600061139282611408565b9050919050565b7f4e487b7100000000000000000000000000000000000000000000000000000000600052602260045260246000fd5b7f4e487b7100000000000000000000000000000000000000000000000000000000600052604160045260246000fd5b6000601f19601f8301169050919050565b60008160e01b9050919050565b60008160601b9050919050565b7f4d65726368616e64697365000000000000000000000000000000000000000000600082015250565b6114548161125c565b811461145f57600080fd5b50565b61146b8161126e565b811461147657600080fd5b50565b6114828161129a565b811461148d57600080fd5b50565b611499816112a4565b81146114a457600080fd5b5056fea2646970667358221220862ebbd5ec53e055e21e3be06064efd95c144d9238bc301e87f602fd09243e7e64736f6c63430008040033",
  "immutableReferences": {},
  "source": "// SPDX-License-Identifier: GPL-3.0\r\n\r\npragma solidity >=0.7.0 <0.9.0;\r\nimport \"../Essential/Essential_Event.sol\";\r\nimport \"../Essential/Essential_Encode.sol\";\r\nimport \"../Essential/Essential_Constant.sol\";\r\nimport \"../Stake/Stake_Staking.sol\";\r\n\r\n/**\r\n * @title Storage\r\n * @dev Store & retrieve value in a variable\r\n */\r\ncontract MerchandiseFactory is Event, Encode, Constant{\r\n    struct Merchandise {\r\n        uint        ID;\r\n        string      CompanyName;\r\n        string      ProductName;\r\n        string      Image;\r\n        string      Code;\r\n        uint32      Weight;\r\n        uint32      Timestamp;\r\n        address     ManagerAddress;\r\n        address     MerchandiseAddress;\r\n        address     PrevProcessAddress;\r\n    }\r\n\r\n    StakePool                       private _Stake = StakePool(StakeContractAddress);\r\n    Merchandise[]                   public MerchandiseList;\r\n    mapping(address => Merchandise) public AddressToMerchandise;\r\n    \r\n    function CreateMerchandise(\r\n        string memory CompanyName,\r\n        string memory ProductName,\r\n        string memory Image,\r\n        string memory Code,\r\n        uint32        Weight,\r\n        address       PrevProcessAddress\r\n    ) \r\n    public\r\n    {\r\n        require(_Stake.StakeForFunction(\"Merchandise\",msg.sender) == true);\r\n        address MerchandiseAddress = CreateAddress(ProductName, Image, uint32(block.timestamp), msg.sender, MerchandiseList.length);\r\n        Merchandise memory NewMerchandise = Merchandise(MerchandiseList.length, CompanyName, ProductName, Image, Code, Weight, uint32(block.timestamp), msg.sender, MerchandiseAddress, PrevProcessAddress);\r\n        MerchandiseList.push(NewMerchandise);\r\n        AddressToMerchandise[MerchandiseAddress] = NewMerchandise;\r\n        emit NewEvent(msg.sender, MerchandiseAddress);\r\n    }\r\n}",
  "sourcePath": "C:/Users/user/mew-supplychain/contracts/contracts/Factory/Factory_Merchandise.sol",
  "compiler": {
    "name": "solc",
    "version": "0.8.4+commit.c7e474f2.Emscripten.clang"
  },
  "schemaVersion": "3.4.1",
  "updatedAt": "2021-08-05T19:56:57.815Z",
  "devdoc": {
    "details": "Store & retrieve value in a variable",
    "kind": "dev",
    "methods": {},
    "title": "Storage",
    "version": 1
  },
  "userdoc": {
    "kind": "user",
    "methods": {},
    "version": 1
  }
}