{
  "contractName": "ProcessSearch",
  "abi": [
    {
      "anonymous": false,
      "inputs": [
        {
          "indexed": false,
          "internalType": "string",
          "name": "Status",
          "type": "string"
        },
        {
          "indexed": false,
          "internalType": "address",
          "name": "Transporter",
          "type": "address"
        },
        {
          "indexed": false,
          "internalType": "address",
          "name": "TransportAddress",
          "type": "address"
        }
      ],
      "name": "NewChangeTransportEvent",
      "type": "event"
    },
    {
      "anonymous": false,
      "inputs": [
        {
          "indexed": false,
          "internalType": "address",
          "name": "Manager",
          "type": "address"
        },
        {
          "indexed": false,
          "internalType": "address",
          "name": "Genesis",
          "type": "address"
        }
      ],
      "name": "NewEvent",
      "type": "event"
    },
    {
      "anonymous": false,
      "inputs": [
        {
          "indexed": false,
          "internalType": "address",
          "name": "Reviewer",
          "type": "address"
        },
        {
          "indexed": false,
          "internalType": "address",
          "name": "Review",
          "type": "address"
        },
        {
          "indexed": false,
          "internalType": "string",
          "name": "Comment",
          "type": "string"
        },
        {
          "indexed": false,
          "internalType": "uint8",
          "name": "rate",
          "type": "uint8"
        }
      ],
      "name": "NewReviewEvent",
      "type": "event"
    },
    {
      "anonymous": false,
      "inputs": [
        {
          "indexed": false,
          "internalType": "address",
          "name": "StakerAddress",
          "type": "address"
        },
        {
          "indexed": false,
          "internalType": "uint32",
          "name": "TimeStamp",
          "type": "uint32"
        },
        {
          "indexed": false,
          "internalType": "uint256",
          "name": "Amount",
          "type": "uint256"
        }
      ],
      "name": "Stake",
      "type": "event"
    },
    {
      "anonymous": false,
      "inputs": [
        {
          "indexed": false,
          "internalType": "address",
          "name": "StakerAddress",
          "type": "address"
        },
        {
          "indexed": false,
          "internalType": "uint32",
          "name": "TimeStamp",
          "type": "uint32"
        },
        {
          "indexed": false,
          "internalType": "uint256",
          "name": "Amount",
          "type": "uint256"
        }
      ],
      "name": "UnStake",
      "type": "event"
    },
    {
      "inputs": [
        {
          "internalType": "address",
          "name": "",
          "type": "address"
        }
      ],
      "name": "AddressToProcess",
      "outputs": [
        {
          "internalType": "uint256",
          "name": "ID",
          "type": "uint256"
        },
        {
          "internalType": "string",
          "name": "CompanyName",
          "type": "string"
        },
        {
          "internalType": "string",
          "name": "Status",
          "type": "string"
        },
        {
          "internalType": "string",
          "name": "Image",
          "type": "string"
        },
        {
          "internalType": "uint32",
          "name": "Timestamp",
          "type": "uint32"
        },
        {
          "internalType": "address",
          "name": "MerchandiseAddress",
          "type": "address"
        },
        {
          "internalType": "address",
          "name": "ManagerAddress",
          "type": "address"
        },
        {
          "internalType": "address",
          "name": "ProcessAddress",
          "type": "address"
        },
        {
          "internalType": "address",
          "name": "PrevProcessAddress",
          "type": "address"
        }
      ],
      "stateMutability": "view",
      "type": "function"
    },
    {
      "inputs": [
        {
          "internalType": "string",
          "name": "CompanyName",
          "type": "string"
        },
        {
          "internalType": "string",
          "name": "Status",
          "type": "string"
        },
        {
          "internalType": "string",
          "name": "Image",
          "type": "string"
        },
        {
          "internalType": "address",
          "name": "MerchandiseAddress",
          "type": "address"
        },
        {
          "internalType": "address",
          "name": "PrevProcessAddress",
          "type": "address"
        }
      ],
      "name": "CreateProcess",
      "outputs": [],
      "stateMutability": "nonpayable",
      "type": "function"
    },
    {
      "inputs": [
        {
          "internalType": "uint256",
          "name": "",
          "type": "uint256"
        }
      ],
      "name": "ProcessList",
      "outputs": [
        {
          "internalType": "uint256",
          "name": "ID",
          "type": "uint256"
        },
        {
          "internalType": "string",
          "name": "CompanyName",
          "type": "string"
        },
        {
          "internalType": "string",
          "name": "Status",
          "type": "string"
        },
        {
          "internalType": "string",
          "name": "Image",
          "type": "string"
        },
        {
          "internalType": "uint32",
          "name": "Timestamp",
          "type": "uint32"
        },
        {
          "internalType": "address",
          "name": "MerchandiseAddress",
          "type": "address"
        },
        {
          "internalType": "address",
          "name": "ManagerAddress",
          "type": "address"
        },
        {
          "internalType": "address",
          "name": "ProcessAddress",
          "type": "address"
        },
        {
          "internalType": "address",
          "name": "PrevProcessAddress",
          "type": "address"
        }
      ],
      "stateMutability": "view",
      "type": "function"
    },
    {
      "inputs": [
        {
          "internalType": "address",
          "name": "Address",
          "type": "address"
        }
      ],
      "name": "SearchProcessByAddress",
      "outputs": [
        {
          "components": [
            {
              "internalType": "uint256",
              "name": "ID",
              "type": "uint256"
            },
            {
              "internalType": "string",
              "name": "CompanyName",
              "type": "string"
            },
            {
              "internalType": "string",
              "name": "Status",
              "type": "string"
            },
            {
              "internalType": "string",
              "name": "Image",
              "type": "string"
            },
            {
              "internalType": "uint32",
              "name": "Timestamp",
              "type": "uint32"
            },
            {
              "internalType": "address",
              "name": "MerchandiseAddress",
              "type": "address"
            },
            {
              "internalType": "address",
              "name": "ManagerAddress",
              "type": "address"
            },
            {
              "internalType": "address",
              "name": "ProcessAddress",
              "type": "address"
            },
            {
              "internalType": "address",
              "name": "PrevProcessAddress",
              "type": "address"
            }
          ],
          "internalType": "struct ProcessFactory.Process",
          "name": "",
          "type": "tuple"
        }
      ],
      "stateMutability": "view",
      "type": "function"
    },
    {
      "inputs": [
        {
          "internalType": "address",
          "name": "ManagerAddress",
          "type": "address"
        }
      ],
      "name": "SearchProcessByManagerAddress",
      "outputs": [
        {
          "internalType": "uint256[]",
          "name": "",
          "type": "uint256[]"
        }
      ],
      "stateMutability": "view",
      "type": "function"
    },
    {
      "inputs": [
        {
          "internalType": "uint256",
          "name": "ID",
          "type": "uint256"
        }
      ],
      "name": "SearchProcessByID",
      "outputs": [
        {
          "components": [
            {
              "internalType": "uint256",
              "name": "ID",
              "type": "uint256"
            },
            {
              "internalType": "string",
              "name": "CompanyName",
              "type": "string"
            },
            {
              "internalType": "string",
              "name": "Status",
              "type": "string"
            },
            {
              "internalType": "string",
              "name": "Image",
              "type": "string"
            },
            {
              "internalType": "uint32",
              "name": "Timestamp",
              "type": "uint32"
            },
            {
              "internalType": "address",
              "name": "MerchandiseAddress",
              "type": "address"
            },
            {
              "internalType": "address",
              "name": "ManagerAddress",
              "type": "address"
            },
            {
              "internalType": "address",
              "name": "ProcessAddress",
              "type": "address"
            },
            {
              "internalType": "address",
              "name": "PrevProcessAddress",
              "type": "address"
            }
          ],
          "internalType": "struct ProcessFactory.Process",
          "name": "",
          "type": "tuple"
        }
      ],
      "stateMutability": "view",
      "type": "function"
    }
  ],
  "bytecode": "0x6080604052737ef2e0048f5baede046f6bf797943daf4ed8cb476000806101000a81548173ffffffffffffffffffffffffffffffffffffffff021916908373ffffffffffffffffffffffffffffffffffffffff16021790555073965ecf3b23e96f095f1811096333731610aba986600160006101000a81548173ffffffffffffffffffffffffffffffffffffffff021916908373ffffffffffffffffffffffffffffffffffffffff16021790555060008054906101000a900473ffffffffffffffffffffffffffffffffffffffff16600260006101000a81548173ffffffffffffffffffffffffffffffffffffffff021916908373ffffffffffffffffffffffffffffffffffffffff16021790555034801561011a57600080fd5b506121378061012a6000396000f3fe608060405234801561001057600080fd5b50600436106100625760003560e01c806316ec63f2146100675780631bb861261461009757806361972df4146100c75780636f966d32146100ff578063e2950a5f14610137578063f7082d0a14610153575b600080fd5b610081600480360381019061007c9190611923565b610183565b60405161008e9190611cca565b60405180910390f35b6100b160048036038101906100ac9190611812565b610524565b6040516100be9190611cca565b60405180910390f35b6100e160048036038101906100dc9190611812565b6108bc565b6040516100f699989796959493929190611cec565b60405180910390f35b61011960048036038101906101149190611923565b610b32565b60405161012e99989796959493929190611cec565b60405180910390f35b610151600480360381019061014c9190611864565b610db8565b005b61016d60048036038101906101689190611812565b61132d565b60405161017a9190611c7a565b60405180910390f35b61018b61161e565b600382815481106101c5577f4e487b7100000000000000000000000000000000000000000000000000000000600052603260045260246000fd5b906000526020600020906008020160405180610120016040529081600082015481526020016001820180546101f990611eef565b80601f016020809104026020016040519081016040528092919081815260200182805461022590611eef565b80156102725780601f1061024757610100808354040283529160200191610272565b820191906000526020600020905b81548152906001019060200180831161025557829003601f168201915b5050505050815260200160028201805461028b90611eef565b80601f01602080910402602001604051908101604052809291908181526020018280546102b790611eef565b80156103045780601f106102d957610100808354040283529160200191610304565b820191906000526020600020905b8154815290600101906020018083116102e757829003601f168201915b5050505050815260200160038201805461031d90611eef565b80601f016020809104026020016040519081016040528092919081815260200182805461034990611eef565b80156103965780601f1061036b57610100808354040283529160200191610396565b820191906000526020600020905b81548152906001019060200180831161037957829003601f168201915b505050505081526020016004820160009054906101000a900463ffffffff1663ffffffff1663ffffffff1681526020016004820160049054906101000a900473ffffffffffffffffffffffffffffffffffffffff1673ffffffffffffffffffffffffffffffffffffffff1673ffffffffffffffffffffffffffffffffffffffff1681526020016005820160009054906101000a900473ffffffffffffffffffffffffffffffffffffffff1673ffffffffffffffffffffffffffffffffffffffff1673ffffffffffffffffffffffffffffffffffffffff1681526020016006820160009054906101000a900473ffffffffffffffffffffffffffffffffffffffff1673ffffffffffffffffffffffffffffffffffffffff1673ffffffffffffffffffffffffffffffffffffffff1681526020016007820160009054906101000a900473ffffffffffffffffffffffffffffffffffffffff1673ffffffffffffffffffffffffffffffffffffffff1673ffffffffffffffffffffffffffffffffffffffff16815250509050919050565b61052c61161e565b600460008373ffffffffffffffffffffffffffffffffffffffff1673ffffffffffffffffffffffffffffffffffffffff168152602001908152602001600020604051806101200160405290816000820154815260200160018201805461059190611eef565b80601f01602080910402602001604051908101604052809291908181526020018280546105bd90611eef565b801561060a5780601f106105df5761010080835404028352916020019161060a565b820191906000526020600020905b8154815290600101906020018083116105ed57829003601f168201915b5050505050815260200160028201805461062390611eef565b80601f016020809104026020016040519081016040528092919081815260200182805461064f90611eef565b801561069c5780601f106106715761010080835404028352916020019161069c565b820191906000526020600020905b81548152906001019060200180831161067f57829003601f168201915b505050505081526020016003820180546106b590611eef565b80601f01602080910402602001604051908101604052809291908181526020018280546106e190611eef565b801561072e5780601f106107035761010080835404028352916020019161072e565b820191906000526020600020905b81548152906001019060200180831161071157829003601f168201915b505050505081526020016004820160009054906101000a900463ffffffff1663ffffffff1663ffffffff1681526020016004820160049054906101000a900473ffffffffffffffffffffffffffffffffffffffff1673ffffffffffffffffffffffffffffffffffffffff1673ffffffffffffffffffffffffffffffffffffffff1681526020016005820160009054906101000a900473ffffffffffffffffffffffffffffffffffffffff1673ffffffffffffffffffffffffffffffffffffffff1673ffffffffffffffffffffffffffffffffffffffff1681526020016006820160009054906101000a900473ffffffffffffffffffffffffffffffffffffffff1673ffffffffffffffffffffffffffffffffffffffff1673ffffffffffffffffffffffffffffffffffffffff1681526020016007820160009054906101000a900473ffffffffffffffffffffffffffffffffffffffff1673ffffffffffffffffffffffffffffffffffffffff1673ffffffffffffffffffffffffffffffffffffffff16815250509050919050565b60046020528060005260406000206000915090508060000154908060010180546108e590611eef565b80601f016020809104026020016040519081016040528092919081815260200182805461091190611eef565b801561095e5780601f106109335761010080835404028352916020019161095e565b820191906000526020600020905b81548152906001019060200180831161094157829003601f168201915b50505050509080600201805461097390611eef565b80601f016020809104026020016040519081016040528092919081815260200182805461099f90611eef565b80156109ec5780601f106109c1576101008083540402835291602001916109ec565b820191906000526020600020905b8154815290600101906020018083116109cf57829003601f168201915b505050505090806003018054610a0190611eef565b80601f0160208091040260200160405190810160405280929190818152602001828054610a2d90611eef565b8015610a7a5780601f10610a4f57610100808354040283529160200191610a7a565b820191906000526020600020905b815481529060010190602001808311610a5d57829003601f168201915b5050505050908060040160009054906101000a900463ffffffff16908060040160049054906101000a900473ffffffffffffffffffffffffffffffffffffffff16908060050160009054906101000a900473ffffffffffffffffffffffffffffffffffffffff16908060060160009054906101000a900473ffffffffffffffffffffffffffffffffffffffff16908060070160009054906101000a900473ffffffffffffffffffffffffffffffffffffffff16905089565b60038181548110610b4257600080fd5b9060005260206000209060080201600091509050806000015490806001018054610b6b90611eef565b80601f0160208091040260200160405190810160405280929190818152602001828054610b9790611eef565b8015610be45780601f10610bb957610100808354040283529160200191610be4565b820191906000526020600020905b815481529060010190602001808311610bc757829003601f168201915b505050505090806002018054610bf990611eef565b80601f0160208091040260200160405190810160405280929190818152602001828054610c2590611eef565b8015610c725780601f10610c4757610100808354040283529160200191610c72565b820191906000526020600020905b815481529060010190602001808311610c5557829003601f168201915b505050505090806003018054610c8790611eef565b80601f0160208091040260200160405190810160405280929190818152602001828054610cb390611eef565b8015610d005780601f10610cd557610100808354040283529160200191610d00565b820191906000526020600020905b815481529060010190602001808311610ce357829003601f168201915b5050505050908060040160009054906101000a900463ffffffff16908060040160049054906101000a900473ffffffffffffffffffffffffffffffffffffffff16908060050160009054906101000a900473ffffffffffffffffffffffffffffffffffffffff16908060060160009054906101000a900473ffffffffffffffffffffffffffffffffffffffff16908060070160009054906101000a900473ffffffffffffffffffffffffffffffffffffffff16905089565b60011515600260009054906101000a900473ffffffffffffffffffffffffffffffffffffffff1673ffffffffffffffffffffffffffffffffffffffff1663db343539336040518263ffffffff1660e01b8152600401610e179190611c9c565b60206040518083038186803b158015610e2f57600080fd5b505afa158015610e43573d6000803e3d6000fd5b505050506040513d601f19601f82011682018060405250810190610e67919061183b565b151514610e7357600080fd5b6000610e878685423360038054905061159b565b9050600060405180610120016040528060038054905081526020018881526020018781526020018681526020014263ffffffff1681526020018573ffffffffffffffffffffffffffffffffffffffff1681526020013373ffffffffffffffffffffffffffffffffffffffff1681526020018373ffffffffffffffffffffffffffffffffffffffff1681526020018473ffffffffffffffffffffffffffffffffffffffff1681525090506003819080600181540180825580915050600190039060005260206000209060080201600090919091909150600082015181600001556020820151816001019080519060200190610f829291906116c8565b506040820151816002019080519060200190610f9f9291906116c8565b506060820151816003019080519060200190610fbc9291906116c8565b5060808201518160040160006101000a81548163ffffffff021916908363ffffffff16021790555060a08201518160040160046101000a81548173ffffffffffffffffffffffffffffffffffffffff021916908373ffffffffffffffffffffffffffffffffffffffff16021790555060c08201518160050160006101000a81548173ffffffffffffffffffffffffffffffffffffffff021916908373ffffffffffffffffffffffffffffffffffffffff16021790555060e08201518160060160006101000a81548173ffffffffffffffffffffffffffffffffffffffff021916908373ffffffffffffffffffffffffffffffffffffffff1602179055506101008201518160070160006101000a81548173ffffffffffffffffffffffffffffffffffffffff021916908373ffffffffffffffffffffffffffffffffffffffff160217905550505080600460008473ffffffffffffffffffffffffffffffffffffffff1673ffffffffffffffffffffffffffffffffffffffff1681526020019081526020016000206000820151816000015560208201518160010190805190602001906111699291906116c8565b5060408201518160020190805190602001906111869291906116c8565b5060608201518160030190805190602001906111a39291906116c8565b5060808201518160040160006101000a81548163ffffffff021916908363ffffffff16021790555060a08201518160040160046101000a81548173ffffffffffffffffffffffffffffffffffffffff021916908373ffffffffffffffffffffffffffffffffffffffff16021790555060c08201518160050160006101000a81548173ffffffffffffffffffffffffffffffffffffffff021916908373ffffffffffffffffffffffffffffffffffffffff16021790555060e08201518160060160006101000a81548173ffffffffffffffffffffffffffffffffffffffff021916908373ffffffffffffffffffffffffffffffffffffffff1602179055506101008201518160070160006101000a81548173ffffffffffffffffffffffffffffffffffffffff021916908373ffffffffffffffffffffffffffffffffffffffff1602179055509050507f2eab9bbcd3573a37c80df886e181d345b1b44fb6fd6a220f526b8992e332b0fa338360405161131c929190611c51565b60405180910390a150505050505050565b60606000600380549050905060008060005b83811015611408578573ffffffffffffffffffffffffffffffffffffffff1660038281548110611398577f4e487b7100000000000000000000000000000000000000000000000000000000600052603260045260246000fd5b906000526020600020906008020160050160009054906101000a900473ffffffffffffffffffffffffffffffffffffffff1673ffffffffffffffffffffffffffffffffffffffff1614156113f55782806113f190611f52565b9350505b808061140090611f52565b91505061133f565b5060008267ffffffffffffffff81111561144b577f4e487b7100000000000000000000000000000000000000000000000000000000600052604160045260246000fd5b6040519080825280602002602001820160405280156114795781602001602082028036833780820191505090505b50905060005b8481101561158e578673ffffffffffffffffffffffffffffffffffffffff16600382815481106114d8577f4e487b7100000000000000000000000000000000000000000000000000000000600052603260045260246000fd5b906000526020600020906008020160050160009054906101000a900473ffffffffffffffffffffffffffffffffffffffff1673ffffffffffffffffffffffffffffffffffffffff16141561157b5780828481518110611560577f4e487b7100000000000000000000000000000000000000000000000000000000600052603260045260246000fd5b602002602001018181525050828061157790611f52565b9350505b808061158690611f52565b91505061147f565b5080945050505050919050565b60008273ffffffffffffffffffffffffffffffffffffffff163373ffffffffffffffffffffffffffffffffffffffff16146115d557600080fd5b600086868686866040516020016115f0959493929190611bfa565b60405160208183030381529060405280519060200120905060008160601c9050809250505095945050505050565b60405180610120016040528060008152602001606081526020016060815260200160608152602001600063ffffffff168152602001600073ffffffffffffffffffffffffffffffffffffffff168152602001600073ffffffffffffffffffffffffffffffffffffffff168152602001600073ffffffffffffffffffffffffffffffffffffffff168152602001600073ffffffffffffffffffffffffffffffffffffffff1681525090565b8280546116d490611eef565b90600052602060002090601f0160209004810192826116f6576000855561173d565b82601f1061170f57805160ff191683800117855561173d565b8280016001018555821561173d579182015b8281111561173c578251825591602001919060010190611721565b5b50905061174a919061174e565b5090565b5b8082111561176757600081600090555060010161174f565b5090565b600061177e61177984611db3565b611d8e565b90508281526020810184848401111561179657600080fd5b6117a1848285611ead565b509392505050565b6000813590506117b8816120bc565b92915050565b6000815190506117cd816120d3565b92915050565b600082601f8301126117e457600080fd5b81356117f484826020860161176b565b91505092915050565b60008135905061180c816120ea565b92915050565b60006020828403121561182457600080fd5b6000611832848285016117a9565b91505092915050565b60006020828403121561184d57600080fd5b600061185b848285016117be565b91505092915050565b600080600080600060a0868803121561187c57600080fd5b600086013567ffffffffffffffff81111561189657600080fd5b6118a2888289016117d3565b955050602086013567ffffffffffffffff8111156118bf57600080fd5b6118cb888289016117d3565b945050604086013567ffffffffffffffff8111156118e857600080fd5b6118f4888289016117d3565b9350506060611905888289016117a9565b9250506080611916888289016117a9565b9150509295509295909350565b60006020828403121561193557600080fd5b6000611943848285016117fd565b91505092915050565b60006119588383611b90565b60208301905092915050565b61196d81611e55565b82525050565b61197c81611e55565b82525050565b61199361198e82611e55565b611f9b565b82525050565b60006119a482611df4565b6119ae8185611e17565b93506119b983611de4565b8060005b838110156119ea5781516119d1888261194c565b97506119dc83611e0a565b9250506001810190506119bd565b5085935050505092915050565b6000611a0282611dff565b611a0c8185611e28565b9350611a1c818560208601611ebc565b611a2581612068565b840191505092915050565b6000611a3b82611dff565b611a458185611e39565b9350611a55818560208601611ebc565b611a5e81612068565b840191505092915050565b6000611a7482611dff565b611a7e8185611e4a565b9350611a8e818560208601611ebc565b80840191505092915050565b6000611aa7600783611e39565b9150611ab282612093565b602082019050919050565b600061012083016000830151611ad66000860182611b90565b5060208301518482036020860152611aee82826119f7565b91505060408301518482036040860152611b0882826119f7565b91505060608301518482036060860152611b2282826119f7565b9150506080830151611b376080860182611bc5565b5060a0830151611b4a60a0860182611964565b5060c0830151611b5d60c0860182611964565b5060e0830151611b7060e0860182611964565b50610100830151611b85610100860182611964565b508091505092915050565b611b9981611e93565b82525050565b611ba881611e93565b82525050565b611bbf611bba82611e93565b611fbf565b82525050565b611bce81611e9d565b82525050565b611bdd81611e9d565b82525050565b611bf4611bef82611e9d565b611fc9565b82525050565b6000611c068288611a69565b9150611c128287611a69565b9150611c1e8286611be3565b600482019150611c2e8285611982565b601482019150611c3e8284611bae565b6020820191508190509695505050505050565b6000604082019050611c666000830185611973565b611c736020830184611973565b9392505050565b60006020820190508181036000830152611c948184611999565b905092915050565b60006040820190508181036000830152611cb581611a9a565b9050611cc46020830184611973565b92915050565b60006020820190508181036000830152611ce48184611abd565b905092915050565b600061012082019050611d02600083018c611b9f565b8181036020830152611d14818b611a30565b90508181036040830152611d28818a611a30565b90508181036060830152611d3c8189611a30565b9050611d4b6080830188611bd4565b611d5860a0830187611973565b611d6560c0830186611973565b611d7260e0830185611973565b611d80610100830184611973565b9a9950505050505050505050565b6000611d98611da9565b9050611da48282611f21565b919050565b6000604051905090565b600067ffffffffffffffff821115611dce57611dcd612039565b5b611dd782612068565b9050602081019050919050565b6000819050602082019050919050565b600081519050919050565b600081519050919050565b6000602082019050919050565b600082825260208201905092915050565b600082825260208201905092915050565b600082825260208201905092915050565b600081905092915050565b6000611e6082611e73565b9050919050565b60008115159050919050565b600073ffffffffffffffffffffffffffffffffffffffff82169050919050565b6000819050919050565b600063ffffffff82169050919050565b82818337600083830152505050565b60005b83811015611eda578082015181840152602081019050611ebf565b83811115611ee9576000848401525b50505050565b60006002820490506001821680611f0757607f821691505b60208210811415611f1b57611f1a61200a565b5b50919050565b611f2a82612068565b810181811067ffffffffffffffff82111715611f4957611f48612039565b5b80604052505050565b6000611f5d82611e93565b91507fffffffffffffffffffffffffffffffffffffffffffffffffffffffffffffffff821415611f9057611f8f611fdb565b5b600182019050919050565b6000611fa682611fad565b9050919050565b6000611fb882612086565b9050919050565b6000819050919050565b6000611fd482612079565b9050919050565b7f4e487b7100000000000000000000000000000000000000000000000000000000600052601160045260246000fd5b7f4e487b7100000000000000000000000000000000000000000000000000000000600052602260045260246000fd5b7f4e487b7100000000000000000000000000000000000000000000000000000000600052604160045260246000fd5b6000601f19601f8301169050919050565b60008160e01b9050919050565b60008160601b9050919050565b7f50726f6365737300000000000000000000000000000000000000000000000000600082015250565b6120c581611e55565b81146120d057600080fd5b50565b6120dc81611e67565b81146120e757600080fd5b50565b6120f381611e93565b81146120fe57600080fd5b5056fea26469706673582212202cbdcc6d3f590e8308a0850c6c695570df2f54998c289e14e641f686c55b74c964736f6c63430008040033",
  "immutableReferences": {},
  "source": "// SPDX-License-Identifier: GPL-3.0\r\n\r\npragma solidity >=0.7.0 <0.9.0;\r\nimport \"../Factory/Factory_Process.sol\";\r\n\r\n/**\r\n * @title Storage\r\n * @dev Store & retrieve value in a variable\r\n */\r\ncontract ProcessSearch is ProcessFactory{\r\n    function SearchProcessByAddress(\r\n        address Address\r\n    )\r\n    public\r\n    view\r\n    returns(Process memory)\r\n    {\r\n        return AddressToProcess[Address];\r\n    }\r\n    \r\n    function SearchProcessByManagerAddress(\r\n        address ManagerAddress\r\n    )\r\n    public\r\n    view\r\n    returns(uint[] memory)\r\n    {\r\n        uint ProcessAmount = ProcessList.length;\r\n        uint ManagerProcessAmount = 0;\r\n        uint Count = 0;\r\n        \r\n        for(uint i = 0; i < ProcessAmount; i++){\r\n            if(ProcessList[i].ManagerAddress == ManagerAddress){\r\n                ManagerProcessAmount++;\r\n            }\r\n        }\r\n        \r\n        uint[] memory result = new uint[](ManagerProcessAmount);\r\n        \r\n        for(uint i = 0; i < ProcessAmount; i++){\r\n            if(ProcessList[i].ManagerAddress == ManagerAddress){\r\n                result[Count] = i;\r\n                Count++;\r\n            }\r\n        }\r\n        \r\n        return result;\r\n    }\r\n    \r\n    function SearchProcessByID(\r\n        uint ID\r\n    )\r\n    public\r\n    view\r\n    returns(Process memory)\r\n    {\r\n        return ProcessList[ID];\r\n    }\r\n}",
  "sourcePath": "C:/Users/user/mew-supplychain/contracts/contracts/Search/Search_Process.sol",
  "compiler": {
    "name": "solc",
    "version": "0.8.4+commit.c7e474f2.Emscripten.clang"
  },
  "schemaVersion": "3.4.1",
  "updatedAt": "2021-08-05T19:30:22.191Z",
  "devdoc": {
    "details": "Store & retrieve value in a variable",
    "kind": "dev",
    "methods": {},
    "title": "Storage",
    "version": 1
  },
  "userdoc": {
    "kind": "user",
    "methods": {},
    "version": 1
  }
}