{
  "contractName": "ReviewSearch",
  "abi": [
    {
      "anonymous": false,
      "inputs": [
        {
          "indexed": false,
          "internalType": "string",
          "name": "Status",
          "type": "string"
        },
        {
          "indexed": false,
          "internalType": "address",
          "name": "Transporter",
          "type": "address"
        },
        {
          "indexed": false,
          "internalType": "address",
          "name": "TransportAddress",
          "type": "address"
        }
      ],
      "name": "NewChangeTransportEvent",
      "type": "event"
    },
    {
      "anonymous": false,
      "inputs": [
        {
          "indexed": false,
          "internalType": "address",
          "name": "Manager",
          "type": "address"
        },
        {
          "indexed": false,
          "internalType": "address",
          "name": "Genesis",
          "type": "address"
        }
      ],
      "name": "NewEvent",
      "type": "event"
    },
    {
      "anonymous": false,
      "inputs": [
        {
          "indexed": false,
          "internalType": "address",
          "name": "Reviewer",
          "type": "address"
        },
        {
          "indexed": false,
          "internalType": "address",
          "name": "Review",
          "type": "address"
        },
        {
          "indexed": false,
          "internalType": "string",
          "name": "Comment",
          "type": "string"
        },
        {
          "indexed": false,
          "internalType": "uint8",
          "name": "rate",
          "type": "uint8"
        }
      ],
      "name": "NewReviewEvent",
      "type": "event"
    },
    {
      "anonymous": false,
      "inputs": [
        {
          "indexed": false,
          "internalType": "address",
          "name": "StakerAddress",
          "type": "address"
        },
        {
          "indexed": false,
          "internalType": "uint32",
          "name": "TimeStamp",
          "type": "uint32"
        },
        {
          "indexed": false,
          "internalType": "uint256",
          "name": "Amount",
          "type": "uint256"
        }
      ],
      "name": "Stake",
      "type": "event"
    },
    {
      "anonymous": false,
      "inputs": [
        {
          "indexed": false,
          "internalType": "address",
          "name": "StakerAddress",
          "type": "address"
        },
        {
          "indexed": false,
          "internalType": "uint32",
          "name": "TimeStamp",
          "type": "uint32"
        },
        {
          "indexed": false,
          "internalType": "uint256",
          "name": "Amount",
          "type": "uint256"
        }
      ],
      "name": "UnStake",
      "type": "event"
    },
    {
      "inputs": [
        {
          "internalType": "address",
          "name": "",
          "type": "address"
        }
      ],
      "name": "AddressToReview",
      "outputs": [
        {
          "internalType": "uint256",
          "name": "ID",
          "type": "uint256"
        },
        {
          "internalType": "string",
          "name": "Comment",
          "type": "string"
        },
        {
          "internalType": "uint8",
          "name": "Rate",
          "type": "uint8"
        },
        {
          "internalType": "uint32",
          "name": "Timestamp",
          "type": "uint32"
        },
        {
          "internalType": "address",
          "name": "ServiceAddress",
          "type": "address"
        },
        {
          "internalType": "address",
          "name": "ReviewerAddress",
          "type": "address"
        },
        {
          "internalType": "address",
          "name": "ReviewAddress",
          "type": "address"
        }
      ],
      "stateMutability": "view",
      "type": "function"
    },
    {
      "inputs": [
        {
          "internalType": "string",
          "name": "Comment",
          "type": "string"
        },
        {
          "internalType": "uint8",
          "name": "Rate",
          "type": "uint8"
        },
        {
          "internalType": "address",
          "name": "ServiceAddress",
          "type": "address"
        }
      ],
      "name": "CreateReview",
      "outputs": [],
      "stateMutability": "nonpayable",
      "type": "function"
    },
    {
      "inputs": [
        {
          "internalType": "uint256",
          "name": "",
          "type": "uint256"
        }
      ],
      "name": "ReviewList",
      "outputs": [
        {
          "internalType": "uint256",
          "name": "ID",
          "type": "uint256"
        },
        {
          "internalType": "string",
          "name": "Comment",
          "type": "string"
        },
        {
          "internalType": "uint8",
          "name": "Rate",
          "type": "uint8"
        },
        {
          "internalType": "uint32",
          "name": "Timestamp",
          "type": "uint32"
        },
        {
          "internalType": "address",
          "name": "ServiceAddress",
          "type": "address"
        },
        {
          "internalType": "address",
          "name": "ReviewerAddress",
          "type": "address"
        },
        {
          "internalType": "address",
          "name": "ReviewAddress",
          "type": "address"
        }
      ],
      "stateMutability": "view",
      "type": "function"
    },
    {
      "inputs": [
        {
          "internalType": "address",
          "name": "Address",
          "type": "address"
        }
      ],
      "name": "SearchReviewByAddress",
      "outputs": [
        {
          "components": [
            {
              "internalType": "uint256",
              "name": "ID",
              "type": "uint256"
            },
            {
              "internalType": "string",
              "name": "Comment",
              "type": "string"
            },
            {
              "internalType": "uint8",
              "name": "Rate",
              "type": "uint8"
            },
            {
              "internalType": "uint32",
              "name": "Timestamp",
              "type": "uint32"
            },
            {
              "internalType": "address",
              "name": "ServiceAddress",
              "type": "address"
            },
            {
              "internalType": "address",
              "name": "ReviewerAddress",
              "type": "address"
            },
            {
              "internalType": "address",
              "name": "ReviewAddress",
              "type": "address"
            }
          ],
          "internalType": "struct ReviewFactory.Review",
          "name": "",
          "type": "tuple"
        }
      ],
      "stateMutability": "view",
      "type": "function"
    },
    {
      "inputs": [
        {
          "internalType": "address",
          "name": "ReviewerAddress",
          "type": "address"
        }
      ],
      "name": "SearchReviewByReviewerAddress",
      "outputs": [
        {
          "internalType": "uint256[]",
          "name": "",
          "type": "uint256[]"
        }
      ],
      "stateMutability": "view",
      "type": "function"
    },
    {
      "inputs": [
        {
          "internalType": "uint256",
          "name": "ID",
          "type": "uint256"
        }
      ],
      "name": "SearchReviewByID",
      "outputs": [
        {
          "components": [
            {
              "internalType": "uint256",
              "name": "ID",
              "type": "uint256"
            },
            {
              "internalType": "string",
              "name": "Comment",
              "type": "string"
            },
            {
              "internalType": "uint8",
              "name": "Rate",
              "type": "uint8"
            },
            {
              "internalType": "uint32",
              "name": "Timestamp",
              "type": "uint32"
            },
            {
              "internalType": "address",
              "name": "ServiceAddress",
              "type": "address"
            },
            {
              "internalType": "address",
              "name": "ReviewerAddress",
              "type": "address"
            },
            {
              "internalType": "address",
              "name": "ReviewAddress",
              "type": "address"
            }
          ],
          "internalType": "struct ReviewFactory.Review",
          "name": "",
          "type": "tuple"
        }
      ],
      "stateMutability": "view",
      "type": "function"
    }
  ],
  "bytecode": "0x608060405234801561001057600080fd5b5061193f806100206000396000f3fe608060405234801561001057600080fd5b50600436106100625760003560e01c80631bf0cbc1146100675780634b880b38146100975780635425c8a7146100cd5780639de0959c146100fd578063e0a39b321461012d578063f519cc7314610149575b600080fd5b610081600480360381019061007c9190611136565b61017f565b60405161008e9190611526565b60405180910390f35b6100b160048036038101906100ac91906111c6565b6103b9565b6040516100c49796959493929190611548565b60405180910390f35b6100e760048036038101906100e29190611136565b610510565b6040516100f49190611504565b60405180910390f35b610117600480360381019061011291906111c6565b61077d565b6040516101249190611526565b60405180910390f35b6101476004803603810190610142919061115f565b6109c0565b005b610163600480360381019061015e9190611136565b610d9a565b6040516101769796959493929190611548565b60405180910390f35b610187610f64565b600160008373ffffffffffffffffffffffffffffffffffffffff1673ffffffffffffffffffffffffffffffffffffffff1681526020019081526020016000206040518060e0016040529081600082015481526020016001820180546101eb90611720565b80601f016020809104026020016040519081016040528092919081815260200182805461021790611720565b80156102645780601f1061023957610100808354040283529160200191610264565b820191906000526020600020905b81548152906001019060200180831161024757829003601f168201915b505050505081526020016002820160009054906101000a900460ff1660ff1660ff1681526020016002820160019054906101000a900463ffffffff1663ffffffff1663ffffffff1681526020016002820160059054906101000a900473ffffffffffffffffffffffffffffffffffffffff1673ffffffffffffffffffffffffffffffffffffffff1673ffffffffffffffffffffffffffffffffffffffff1681526020016003820160009054906101000a900473ffffffffffffffffffffffffffffffffffffffff1673ffffffffffffffffffffffffffffffffffffffff1673ffffffffffffffffffffffffffffffffffffffff1681526020016004820160009054906101000a900473ffffffffffffffffffffffffffffffffffffffff1673ffffffffffffffffffffffffffffffffffffffff1673ffffffffffffffffffffffffffffffffffffffff16815250509050919050565b600081815481106103c957600080fd5b90600052602060002090600502016000915090508060000154908060010180546103f290611720565b80601f016020809104026020016040519081016040528092919081815260200182805461041e90611720565b801561046b5780601f106104405761010080835404028352916020019161046b565b820191906000526020600020905b81548152906001019060200180831161044e57829003601f168201915b5050505050908060020160009054906101000a900460ff16908060020160019054906101000a900463ffffffff16908060020160059054906101000a900473ffffffffffffffffffffffffffffffffffffffff16908060030160009054906101000a900473ffffffffffffffffffffffffffffffffffffffff16908060040160009054906101000a900473ffffffffffffffffffffffffffffffffffffffff16905087565b606060008080549050905060008060005b838110156105ea578573ffffffffffffffffffffffffffffffffffffffff166000828154811061057a577f4e487b7100000000000000000000000000000000000000000000000000000000600052603260045260246000fd5b906000526020600020906005020160030160009054906101000a900473ffffffffffffffffffffffffffffffffffffffff1673ffffffffffffffffffffffffffffffffffffffff1614156105d75782806105d390611783565b9350505b80806105e290611783565b915050610521565b5060008267ffffffffffffffff81111561062d577f4e487b7100000000000000000000000000000000000000000000000000000000600052604160045260246000fd5b60405190808252806020026020018201604052801561065b5781602001602082028036833780820191505090505b50905060005b84811015610770578673ffffffffffffffffffffffffffffffffffffffff16600082815481106106ba577f4e487b7100000000000000000000000000000000000000000000000000000000600052603260045260246000fd5b906000526020600020906005020160030160009054906101000a900473ffffffffffffffffffffffffffffffffffffffff1673ffffffffffffffffffffffffffffffffffffffff16141561075d5780828481518110610742577f4e487b7100000000000000000000000000000000000000000000000000000000600052603260045260246000fd5b602002602001018181525050828061075990611783565b9350505b808061076890611783565b915050610661565b5080945050505050919050565b610785610f64565b600082815481106107bf577f4e487b7100000000000000000000000000000000000000000000000000000000600052603260045260246000fd5b90600052602060002090600502016040518060e0016040529081600082015481526020016001820180546107f290611720565b80601f016020809104026020016040519081016040528092919081815260200182805461081e90611720565b801561086b5780601f106108405761010080835404028352916020019161086b565b820191906000526020600020905b81548152906001019060200180831161084e57829003601f168201915b505050505081526020016002820160009054906101000a900460ff1660ff1660ff1681526020016002820160019054906101000a900463ffffffff1663ffffffff1663ffffffff1681526020016002820160059054906101000a900473ffffffffffffffffffffffffffffffffffffffff1673ffffffffffffffffffffffffffffffffffffffff1673ffffffffffffffffffffffffffffffffffffffff1681526020016003820160009054906101000a900473ffffffffffffffffffffffffffffffffffffffff1673ffffffffffffffffffffffffffffffffffffffff1673ffffffffffffffffffffffffffffffffffffffff1681526020016004820160009054906101000a900473ffffffffffffffffffffffffffffffffffffffff1673ffffffffffffffffffffffffffffffffffffffff1673ffffffffffffffffffffffffffffffffffffffff16815250509050919050565b60006109d484854233600080549050610ee1565b905060006040518060e0016040528060008054905081526020018681526020018560ff1681526020014263ffffffff1681526020018473ffffffffffffffffffffffffffffffffffffffff1681526020013373ffffffffffffffffffffffffffffffffffffffff1681526020018373ffffffffffffffffffffffffffffffffffffffff1681525090506000819080600181540180825580915050600190039060005260206000209060050201600090919091909150600082015181600001556020820151816001019080519060200190610aaf929190610fec565b5060408201518160020160006101000a81548160ff021916908360ff16021790555060608201518160020160016101000a81548163ffffffff021916908363ffffffff16021790555060808201518160020160056101000a81548173ffffffffffffffffffffffffffffffffffffffff021916908373ffffffffffffffffffffffffffffffffffffffff16021790555060a08201518160030160006101000a81548173ffffffffffffffffffffffffffffffffffffffff021916908373ffffffffffffffffffffffffffffffffffffffff16021790555060c08201518160040160006101000a81548173ffffffffffffffffffffffffffffffffffffffff021916908373ffffffffffffffffffffffffffffffffffffffff160217905550505080600160008573ffffffffffffffffffffffffffffffffffffffff1673ffffffffffffffffffffffffffffffffffffffff168152602001908152602001600020600082015181600001556020820151816001019080519060200190610c35929190610fec565b5060408201518160020160006101000a81548160ff021916908360ff16021790555060608201518160020160016101000a81548163ffffffff021916908363ffffffff16021790555060808201518160020160056101000a81548173ffffffffffffffffffffffffffffffffffffffff021916908373ffffffffffffffffffffffffffffffffffffffff16021790555060a08201518160030160006101000a81548173ffffffffffffffffffffffffffffffffffffffff021916908373ffffffffffffffffffffffffffffffffffffffff16021790555060c08201518160040160006101000a81548173ffffffffffffffffffffffffffffffffffffffff021916908373ffffffffffffffffffffffffffffffffffffffff1602179055509050507ffc1771af152404f2fefdbecc1d9b082bc9b734d61502acd19e2d9cbb858d23c033838787604051610d8b94939291906114b8565b60405180910390a15050505050565b6001602052806000526040600020600091509050806000015490806001018054610dc390611720565b80601f0160208091040260200160405190810160405280929190818152602001828054610def90611720565b8015610e3c5780601f10610e1157610100808354040283529160200191610e3c565b820191906000526020600020905b815481529060010190602001808311610e1f57829003601f168201915b5050505050908060020160009054906101000a900460ff16908060020160019054906101000a900463ffffffff16908060020160059054906101000a900473ffffffffffffffffffffffffffffffffffffffff16908060030160009054906101000a900473ffffffffffffffffffffffffffffffffffffffff16908060040160009054906101000a900473ffffffffffffffffffffffffffffffffffffffff16905087565b60008273ffffffffffffffffffffffffffffffffffffffff163373ffffffffffffffffffffffffffffffffffffffff1614610f1b57600080fd5b60008686868686604051602001610f36959493929190611461565b60405160208183030381529060405280519060200120905060008160601c9050809250505095945050505050565b6040518060e001604052806000815260200160608152602001600060ff168152602001600063ffffffff168152602001600073ffffffffffffffffffffffffffffffffffffffff168152602001600073ffffffffffffffffffffffffffffffffffffffff168152602001600073ffffffffffffffffffffffffffffffffffffffff1681525090565b828054610ff890611720565b90600052602060002090601f01602090048101928261101a5760008555611061565b82601f1061103357805160ff1916838001178555611061565b82800160010185558215611061579182015b82811115611060578251825591602001919060010190611045565b5b50905061106e9190611072565b5090565b5b8082111561108b576000816000905550600101611073565b5090565b60006110a261109d846115e3565b6115be565b9050828152602081018484840111156110ba57600080fd5b6110c58482856116de565b509392505050565b6000813590506110dc816118c4565b92915050565b600082601f8301126110f357600080fd5b813561110384826020860161108f565b91505092915050565b60008135905061111b816118db565b92915050565b600081359050611130816118f2565b92915050565b60006020828403121561114857600080fd5b6000611156848285016110cd565b91505092915050565b60008060006060848603121561117457600080fd5b600084013567ffffffffffffffff81111561118e57600080fd5b61119a868287016110e2565b93505060206111ab86828701611121565b92505060406111bc868287016110cd565b9150509250925092565b6000602082840312156111d857600080fd5b60006111e68482850161110c565b91505092915050565b60006111fb83836113d9565b60208301905092915050565b61121081611685565b82525050565b61121f81611685565b82525050565b61123661123182611685565b6117cc565b82525050565b600061124782611624565b6112518185611647565b935061125c83611614565b8060005b8381101561128d57815161127488826111ef565b975061127f8361163a565b925050600181019050611260565b5085935050505092915050565b60006112a58261162f565b6112af8185611658565b93506112bf8185602086016116ed565b6112c881611899565b840191505092915050565b60006112de8261162f565b6112e88185611669565b93506112f88185602086016116ed565b61130181611899565b840191505092915050565b60006113178261162f565b611321818561167a565b93506113318185602086016116ed565b80840191505092915050565b600060e08301600083015161135560008601826113d9565b506020830151848203602086015261136d828261129a565b91505060408301516113826040860182611443565b506060830151611395606086018261140e565b5060808301516113a86080860182611207565b5060a08301516113bb60a0860182611207565b5060c08301516113ce60c0860182611207565b508091505092915050565b6113e2816116b7565b82525050565b6113f1816116b7565b82525050565b611408611403826116b7565b6117f0565b82525050565b611417816116c1565b82525050565b611426816116c1565b82525050565b61143d611438826116c1565b6117fa565b82525050565b61144c816116d1565b82525050565b61145b816116d1565b82525050565b600061146d828861130c565b9150611479828761130c565b9150611485828661142c565b6004820191506114958285611225565b6014820191506114a582846113f7565b6020820191508190509695505050505050565b60006080820190506114cd6000830187611216565b6114da6020830186611216565b81810360408301526114ec81856112d3565b90506114fb6060830184611452565b95945050505050565b6000602082019050818103600083015261151e818461123c565b905092915050565b60006020820190508181036000830152611540818461133d565b905092915050565b600060e08201905061155d600083018a6113e8565b818103602083015261156f81896112d3565b905061157e6040830188611452565b61158b606083018761141d565b6115986080830186611216565b6115a560a0830185611216565b6115b260c0830184611216565b98975050505050505050565b60006115c86115d9565b90506115d48282611752565b919050565b6000604051905090565b600067ffffffffffffffff8211156115fe576115fd61186a565b5b61160782611899565b9050602081019050919050565b6000819050602082019050919050565b600081519050919050565b600081519050919050565b6000602082019050919050565b600082825260208201905092915050565b600082825260208201905092915050565b600082825260208201905092915050565b600081905092915050565b600061169082611697565b9050919050565b600073ffffffffffffffffffffffffffffffffffffffff82169050919050565b6000819050919050565b600063ffffffff82169050919050565b600060ff82169050919050565b82818337600083830152505050565b60005b8381101561170b5780820151818401526020810190506116f0565b8381111561171a576000848401525b50505050565b6000600282049050600182168061173857607f821691505b6020821081141561174c5761174b61183b565b5b50919050565b61175b82611899565b810181811067ffffffffffffffff8211171561177a5761177961186a565b5b80604052505050565b600061178e826116b7565b91507fffffffffffffffffffffffffffffffffffffffffffffffffffffffffffffffff8214156117c1576117c061180c565b5b600182019050919050565b60006117d7826117de565b9050919050565b60006117e9826118b7565b9050919050565b6000819050919050565b6000611805826118aa565b9050919050565b7f4e487b7100000000000000000000000000000000000000000000000000000000600052601160045260246000fd5b7f4e487b7100000000000000000000000000000000000000000000000000000000600052602260045260246000fd5b7f4e487b7100000000000000000000000000000000000000000000000000000000600052604160045260246000fd5b6000601f19601f8301169050919050565b60008160e01b9050919050565b60008160601b9050919050565b6118cd81611685565b81146118d857600080fd5b50565b6118e4816116b7565b81146118ef57600080fd5b50565b6118fb816116d1565b811461190657600080fd5b5056fea26469706673582212206cabb99ba9b92dc374d52dfe543cdbde229573aa74d9c80397da42979e61ba3464736f6c63430008040033",
  "immutableReferences": {},
  "source": "// SPDX-License-Identifier: GPL-3.0\r\n\r\npragma solidity >=0.7.0 <0.9.0;\r\nimport \"../Factory/Factory_Review.sol\";\r\n\r\n/**\r\n * @title Storage\r\n * @dev Store & retrieve value in a variable\r\n */\r\ncontract ReviewSearch is ReviewFactory{\r\n    function SearchReviewByAddress(\r\n        address Address\r\n    )\r\n    public\r\n    view\r\n    returns(Review memory)\r\n    {\r\n        return AddressToReview[Address];\r\n    }\r\n    \r\n    function SearchReviewByReviewerAddress(\r\n        address ReviewerAddress\r\n    )\r\n    public\r\n    view\r\n    returns(uint[] memory)\r\n    {\r\n        uint ReviewAmount = ReviewList.length;\r\n        uint ManagerReviewAmount = 0;\r\n        uint Count = 0;\r\n        \r\n        for(uint i = 0; i < ReviewAmount; i++){\r\n            if(ReviewList[i].ReviewerAddress == ReviewerAddress){\r\n                ManagerReviewAmount++;\r\n            }\r\n        }\r\n        \r\n        uint[] memory result = new uint[](ManagerReviewAmount);\r\n        \r\n        for(uint i = 0; i < ReviewAmount; i++){\r\n            if(ReviewList[i].ReviewerAddress == ReviewerAddress){\r\n                result[Count] = i;\r\n                Count++;\r\n            }\r\n        }\r\n        \r\n        return result;\r\n    }\r\n    \r\n    function SearchReviewByID(\r\n        uint ID\r\n    )\r\n    public\r\n    view\r\n    returns(Review memory)\r\n    {\r\n        return ReviewList[ID];\r\n    }\r\n}",
  "sourcePath": "C:/Users/user/mew-supplychain/contracts/contracts/Search/Search_Review.sol",
  "compiler": {
    "name": "solc",
    "version": "0.8.4+commit.c7e474f2.Emscripten.clang"
  },
  "schemaVersion": "3.4.1",
  "updatedAt": "2021-08-05T19:30:22.200Z",
  "devdoc": {
    "details": "Store & retrieve value in a variable",
    "kind": "dev",
    "methods": {},
    "title": "Storage",
    "version": 1
  },
  "userdoc": {
    "kind": "user",
    "methods": {},
    "version": 1
  }
}