{
  "contractName": "ReviewFactory",
  "abi": [
    {
      "anonymous": false,
      "inputs": [
        {
          "indexed": false,
          "internalType": "string",
          "name": "Status",
          "type": "string"
        },
        {
          "indexed": false,
          "internalType": "address",
          "name": "Transporter",
          "type": "address"
        },
        {
          "indexed": false,
          "internalType": "address",
          "name": "TransportAddress",
          "type": "address"
        }
      ],
      "name": "NewChangeTransportEvent",
      "type": "event"
    },
    {
      "anonymous": false,
      "inputs": [
        {
          "indexed": false,
          "internalType": "address",
          "name": "Manager",
          "type": "address"
        },
        {
          "indexed": false,
          "internalType": "address",
          "name": "Genesis",
          "type": "address"
        }
      ],
      "name": "NewEvent",
      "type": "event"
    },
    {
      "anonymous": false,
      "inputs": [
        {
          "indexed": false,
          "internalType": "address",
          "name": "Reviewer",
          "type": "address"
        },
        {
          "indexed": false,
          "internalType": "address",
          "name": "Review",
          "type": "address"
        },
        {
          "indexed": false,
          "internalType": "string",
          "name": "Comment",
          "type": "string"
        },
        {
          "indexed": false,
          "internalType": "uint8",
          "name": "rate",
          "type": "uint8"
        }
      ],
      "name": "NewReviewEvent",
      "type": "event"
    },
    {
      "anonymous": false,
      "inputs": [
        {
          "indexed": false,
          "internalType": "address",
          "name": "StakerAddress",
          "type": "address"
        },
        {
          "indexed": false,
          "internalType": "uint32",
          "name": "TimeStamp",
          "type": "uint32"
        },
        {
          "indexed": false,
          "internalType": "uint256",
          "name": "Amount",
          "type": "uint256"
        }
      ],
      "name": "Stake",
      "type": "event"
    },
    {
      "anonymous": false,
      "inputs": [
        {
          "indexed": false,
          "internalType": "address",
          "name": "StakerAddress",
          "type": "address"
        },
        {
          "indexed": false,
          "internalType": "uint32",
          "name": "TimeStamp",
          "type": "uint32"
        },
        {
          "indexed": false,
          "internalType": "uint256",
          "name": "Amount",
          "type": "uint256"
        }
      ],
      "name": "UnStake",
      "type": "event"
    },
    {
      "inputs": [
        {
          "internalType": "address",
          "name": "",
          "type": "address"
        }
      ],
      "name": "AddressToReview",
      "outputs": [
        {
          "internalType": "uint256",
          "name": "ID",
          "type": "uint256"
        },
        {
          "internalType": "string",
          "name": "Comment",
          "type": "string"
        },
        {
          "internalType": "uint8",
          "name": "Rate",
          "type": "uint8"
        },
        {
          "internalType": "uint32",
          "name": "Timestamp",
          "type": "uint32"
        },
        {
          "internalType": "address",
          "name": "ServiceAddress",
          "type": "address"
        },
        {
          "internalType": "address",
          "name": "ReviewerAddress",
          "type": "address"
        },
        {
          "internalType": "address",
          "name": "ReviewAddress",
          "type": "address"
        }
      ],
      "stateMutability": "view",
      "type": "function"
    },
    {
      "inputs": [
        {
          "internalType": "uint256",
          "name": "",
          "type": "uint256"
        }
      ],
      "name": "ReviewList",
      "outputs": [
        {
          "internalType": "uint256",
          "name": "ID",
          "type": "uint256"
        },
        {
          "internalType": "string",
          "name": "Comment",
          "type": "string"
        },
        {
          "internalType": "uint8",
          "name": "Rate",
          "type": "uint8"
        },
        {
          "internalType": "uint32",
          "name": "Timestamp",
          "type": "uint32"
        },
        {
          "internalType": "address",
          "name": "ServiceAddress",
          "type": "address"
        },
        {
          "internalType": "address",
          "name": "ReviewerAddress",
          "type": "address"
        },
        {
          "internalType": "address",
          "name": "ReviewAddress",
          "type": "address"
        }
      ],
      "stateMutability": "view",
      "type": "function"
    },
    {
      "inputs": [
        {
          "internalType": "string",
          "name": "Comment",
          "type": "string"
        },
        {
          "internalType": "uint8",
          "name": "Rate",
          "type": "uint8"
        },
        {
          "internalType": "address",
          "name": "ServiceAddress",
          "type": "address"
        }
      ],
      "name": "CreateReview",
      "outputs": [],
      "stateMutability": "nonpayable",
      "type": "function"
    }
  ],
  "bytecode": "0x608060405234801561001057600080fd5b50610e8f806100206000396000f3fe608060405234801561001057600080fd5b50600436106100415760003560e01c80634b880b3814610046578063e0a39b321461007c578063f519cc7314610098575b600080fd5b610060600480360381019061005b91906109a3565b6100ce565b6040516100739796959493929190610b5a565b60405180910390f35b6100966004803603810190610091919061093c565b610225565b005b6100b260048036038101906100ad9190610913565b6105ff565b6040516100c59796959493929190610b5a565b60405180910390f35b600081815481106100de57600080fd5b906000526020600020906005020160009150905080600001549080600101805461010790610ce8565b80601f016020809104026020016040519081016040528092919081815260200182805461013390610ce8565b80156101805780601f1061015557610100808354040283529160200191610180565b820191906000526020600020905b81548152906001019060200180831161016357829003601f168201915b5050505050908060020160009054906101000a900460ff16908060020160019054906101000a900463ffffffff16908060020160059054906101000a900473ffffffffffffffffffffffffffffffffffffffff16908060030160009054906101000a900473ffffffffffffffffffffffffffffffffffffffff16908060040160009054906101000a900473ffffffffffffffffffffffffffffffffffffffff16905087565b600061023984854233600080549050610746565b905060006040518060e0016040528060008054905081526020018681526020018560ff1681526020014263ffffffff1681526020018473ffffffffffffffffffffffffffffffffffffffff1681526020013373ffffffffffffffffffffffffffffffffffffffff1681526020018373ffffffffffffffffffffffffffffffffffffffff16815250905060008190806001815401808255809150506001900390600052602060002090600502016000909190919091506000820151816000015560208201518160010190805190602001906103149291906107c9565b5060408201518160020160006101000a81548160ff021916908360ff16021790555060608201518160020160016101000a81548163ffffffff021916908363ffffffff16021790555060808201518160020160056101000a81548173ffffffffffffffffffffffffffffffffffffffff021916908373ffffffffffffffffffffffffffffffffffffffff16021790555060a08201518160030160006101000a81548173ffffffffffffffffffffffffffffffffffffffff021916908373ffffffffffffffffffffffffffffffffffffffff16021790555060c08201518160040160006101000a81548173ffffffffffffffffffffffffffffffffffffffff021916908373ffffffffffffffffffffffffffffffffffffffff160217905550505080600160008573ffffffffffffffffffffffffffffffffffffffff1673ffffffffffffffffffffffffffffffffffffffff16815260200190815260200160002060008201518160000155602082015181600101908051906020019061049a9291906107c9565b5060408201518160020160006101000a81548160ff021916908360ff16021790555060608201518160020160016101000a81548163ffffffff021916908363ffffffff16021790555060808201518160020160056101000a81548173ffffffffffffffffffffffffffffffffffffffff021916908373ffffffffffffffffffffffffffffffffffffffff16021790555060a08201518160030160006101000a81548173ffffffffffffffffffffffffffffffffffffffff021916908373ffffffffffffffffffffffffffffffffffffffff16021790555060c08201518160040160006101000a81548173ffffffffffffffffffffffffffffffffffffffff021916908373ffffffffffffffffffffffffffffffffffffffff1602179055509050507ffc1771af152404f2fefdbecc1d9b082bc9b734d61502acd19e2d9cbb858d23c0338387876040516105f09493929190610b0e565b60405180910390a15050505050565b600160205280600052604060002060009150905080600001549080600101805461062890610ce8565b80601f016020809104026020016040519081016040528092919081815260200182805461065490610ce8565b80156106a15780601f10610676576101008083540402835291602001916106a1565b820191906000526020600020905b81548152906001019060200180831161068457829003601f168201915b5050505050908060020160009054906101000a900460ff16908060020160019054906101000a900463ffffffff16908060020160059054906101000a900473ffffffffffffffffffffffffffffffffffffffff16908060030160009054906101000a900473ffffffffffffffffffffffffffffffffffffffff16908060040160009054906101000a900473ffffffffffffffffffffffffffffffffffffffff16905087565b60008273ffffffffffffffffffffffffffffffffffffffff163373ffffffffffffffffffffffffffffffffffffffff161461078057600080fd5b6000868686868660405160200161079b959493929190610ab7565b60405160208183030381529060405280519060200120905060008160601c9050809250505095945050505050565b8280546107d590610ce8565b90600052602060002090601f0160209004810192826107f7576000855561083e565b82601f1061081057805160ff191683800117855561083e565b8280016001018555821561083e579182015b8281111561083d578251825591602001919060010190610822565b5b50905061084b919061084f565b5090565b5b80821115610868576000816000905550600101610850565b5090565b600061087f61087a84610bf5565b610bd0565b90508281526020810184848401111561089757600080fd5b6108a2848285610ca6565b509392505050565b6000813590506108b981610e14565b92915050565b600082601f8301126108d057600080fd5b81356108e084826020860161086c565b91505092915050565b6000813590506108f881610e2b565b92915050565b60008135905061090d81610e42565b92915050565b60006020828403121561092557600080fd5b6000610933848285016108aa565b91505092915050565b60008060006060848603121561095157600080fd5b600084013567ffffffffffffffff81111561096b57600080fd5b610977868287016108bf565b9350506020610988868287016108fe565b9250506040610999868287016108aa565b9150509250925092565b6000602082840312156109b557600080fd5b60006109c3848285016108e9565b91505092915050565b6109d581610c4d565b82525050565b6109ec6109e782610c4d565b610d4b565b82525050565b60006109fd82610c26565b610a078185610c31565b9350610a17818560208601610cb5565b610a2081610de9565b840191505092915050565b6000610a3682610c26565b610a408185610c42565b9350610a50818560208601610cb5565b80840191505092915050565b610a6581610c7f565b82525050565b610a7c610a7782610c7f565b610d6f565b82525050565b610a8b81610c89565b82525050565b610aa2610a9d82610c89565b610d79565b82525050565b610ab181610c99565b82525050565b6000610ac38288610a2b565b9150610acf8287610a2b565b9150610adb8286610a91565b600482019150610aeb82856109db565b601482019150610afb8284610a6b565b6020820191508190509695505050505050565b6000608082019050610b2360008301876109cc565b610b3060208301866109cc565b8181036040830152610b4281856109f2565b9050610b516060830184610aa8565b95945050505050565b600060e082019050610b6f600083018a610a5c565b8181036020830152610b8181896109f2565b9050610b906040830188610aa8565b610b9d6060830187610a82565b610baa60808301866109cc565b610bb760a08301856109cc565b610bc460c08301846109cc565b98975050505050505050565b6000610bda610beb565b9050610be68282610d1a565b919050565b6000604051905090565b600067ffffffffffffffff821115610c1057610c0f610dba565b5b610c1982610de9565b9050602081019050919050565b600081519050919050565b600082825260208201905092915050565b600081905092915050565b6000610c5882610c5f565b9050919050565b600073ffffffffffffffffffffffffffffffffffffffff82169050919050565b6000819050919050565b600063ffffffff82169050919050565b600060ff82169050919050565b82818337600083830152505050565b60005b83811015610cd3578082015181840152602081019050610cb8565b83811115610ce2576000848401525b50505050565b60006002820490506001821680610d0057607f821691505b60208210811415610d1457610d13610d8b565b5b50919050565b610d2382610de9565b810181811067ffffffffffffffff82111715610d4257610d41610dba565b5b80604052505050565b6000610d5682610d5d565b9050919050565b6000610d6882610e07565b9050919050565b6000819050919050565b6000610d8482610dfa565b9050919050565b7f4e487b7100000000000000000000000000000000000000000000000000000000600052602260045260246000fd5b7f4e487b7100000000000000000000000000000000000000000000000000000000600052604160045260246000fd5b6000601f19601f8301169050919050565b60008160e01b9050919050565b60008160601b9050919050565b610e1d81610c4d565b8114610e2857600080fd5b50565b610e3481610c7f565b8114610e3f57600080fd5b50565b610e4b81610c99565b8114610e5657600080fd5b5056fea2646970667358221220e36ee94728eaacfb1fd1f8e8a4f42807adf177a5c6f828e1e25d63f93851cb9a64736f6c63430008040033",
  "immutableReferences": {},
  "source": "// SPDX-License-Identifier: GPL-3.0\r\n\r\npragma solidity >=0.7.0 <0.9.0;\r\nimport \"../Essential/Essential_Event.sol\";\r\nimport \"../Essential/Essential_Encode.sol\";\r\n\r\n/**\r\n * @title Storage\r\n * @dev Store & retrieve value in a variable\r\n */\r\ncontract ReviewFactory is Event, Encode{\r\n    struct Review {\r\n        uint        ID;\r\n        string      Comment;\r\n        uint8       Rate;\r\n        uint32      Timestamp;\r\n        address     ServiceAddress;\r\n        address     ReviewerAddress;\r\n        address     ReviewAddress;\r\n    }\r\n\r\n    Review[]                   public ReviewList;\r\n    mapping(address => Review) public AddressToReview;\r\n    \r\n    function CreateReview(\r\n        string memory Comment,\r\n        uint8         Rate,\r\n        address       ServiceAddress\r\n    )\r\n    public\r\n    {\r\n        address ReviewAddress = CreateAddress(Comment, Comment,  uint32(block.timestamp), msg.sender, ReviewList.length);\r\n        Review memory NewReview = Review(ReviewList.length, Comment, Rate,  uint32(block.timestamp), ServiceAddress, msg.sender, ReviewAddress);\r\n        ReviewList.push(NewReview);\r\n        AddressToReview[ServiceAddress] = NewReview;\r\n        emit NewReviewEvent(msg.sender, ReviewAddress, Comment, Rate);\r\n    }\r\n}",
  "sourcePath": "C:/Users/user/mew-supplychain/contracts/contracts/Factory/Factory_Review.sol",
  "compiler": {
    "name": "solc",
    "version": "0.8.4+commit.c7e474f2.Emscripten.clang"
  },
  "schemaVersion": "3.4.1",
  "updatedAt": "2021-08-05T19:56:57.838Z",
  "devdoc": {
    "details": "Store & retrieve value in a variable",
    "kind": "dev",
    "methods": {},
    "title": "Storage",
    "version": 1
  },
  "userdoc": {
    "kind": "user",
    "methods": {},
    "version": 1
  }
}