{
  "contractName": "StakePool",
  "abi": [
    {
      "inputs": [
        {
          "internalType": "contract MewToken",
          "name": "mewtoken",
          "type": "address"
        }
      ],
      "stateMutability": "nonpayable",
      "type": "constructor"
    },
    {
      "anonymous": false,
      "inputs": [
        {
          "indexed": false,
          "internalType": "string",
          "name": "Status",
          "type": "string"
        },
        {
          "indexed": false,
          "internalType": "address",
          "name": "Transporter",
          "type": "address"
        },
        {
          "indexed": false,
          "internalType": "address",
          "name": "TransportAddress",
          "type": "address"
        }
      ],
      "name": "NewChangeTransportEvent",
      "type": "event"
    },
    {
      "anonymous": false,
      "inputs": [
        {
          "indexed": false,
          "internalType": "address",
          "name": "Manager",
          "type": "address"
        },
        {
          "indexed": false,
          "internalType": "address",
          "name": "Genesis",
          "type": "address"
        }
      ],
      "name": "NewEvent",
      "type": "event"
    },
    {
      "anonymous": false,
      "inputs": [
        {
          "indexed": false,
          "internalType": "address",
          "name": "Reviewer",
          "type": "address"
        },
        {
          "indexed": false,
          "internalType": "address",
          "name": "Review",
          "type": "address"
        },
        {
          "indexed": false,
          "internalType": "string",
          "name": "Comment",
          "type": "string"
        },
        {
          "indexed": false,
          "internalType": "uint8",
          "name": "rate",
          "type": "uint8"
        }
      ],
      "name": "NewReviewEvent",
      "type": "event"
    },
    {
      "anonymous": false,
      "inputs": [
        {
          "indexed": false,
          "internalType": "address",
          "name": "StakerAddress",
          "type": "address"
        },
        {
          "indexed": false,
          "internalType": "uint32",
          "name": "TimeStamp",
          "type": "uint32"
        },
        {
          "indexed": false,
          "internalType": "uint256",
          "name": "Amount",
          "type": "uint256"
        }
      ],
      "name": "Stake",
      "type": "event"
    },
    {
      "anonymous": false,
      "inputs": [
        {
          "indexed": false,
          "internalType": "address",
          "name": "StakerAddress",
          "type": "address"
        },
        {
          "indexed": false,
          "internalType": "uint32",
          "name": "TimeStamp",
          "type": "uint32"
        },
        {
          "indexed": false,
          "internalType": "uint256",
          "name": "Amount",
          "type": "uint256"
        }
      ],
      "name": "UnStake",
      "type": "event"
    },
    {
      "inputs": [
        {
          "internalType": "address",
          "name": "",
          "type": "address"
        }
      ],
      "name": "AddressToBool",
      "outputs": [
        {
          "internalType": "bool",
          "name": "",
          "type": "bool"
        }
      ],
      "stateMutability": "view",
      "type": "function"
    },
    {
      "inputs": [
        {
          "internalType": "address",
          "name": "",
          "type": "address"
        }
      ],
      "name": "AddressToPool",
      "outputs": [
        {
          "internalType": "address",
          "name": "StakerAddress",
          "type": "address"
        },
        {
          "internalType": "string",
          "name": "Type",
          "type": "string"
        },
        {
          "internalType": "uint256",
          "name": "StakeValue",
          "type": "uint256"
        },
        {
          "internalType": "uint32",
          "name": "StartTime",
          "type": "uint32"
        },
        {
          "internalType": "uint32",
          "name": "EndTime",
          "type": "uint32"
        },
        {
          "internalType": "bool",
          "name": "Status",
          "type": "bool"
        }
      ],
      "stateMutability": "view",
      "type": "function"
    },
    {
      "inputs": [],
      "name": "StakeAddress",
      "outputs": [
        {
          "internalType": "address",
          "name": "",
          "type": "address"
        }
      ],
      "stateMutability": "view",
      "type": "function"
    },
    {
      "inputs": [],
      "name": "StakeValue",
      "outputs": [
        {
          "internalType": "uint256",
          "name": "",
          "type": "uint256"
        }
      ],
      "stateMutability": "view",
      "type": "function"
    },
    {
      "inputs": [],
      "name": "StakeWallet",
      "outputs": [
        {
          "internalType": "address",
          "name": "",
          "type": "address"
        }
      ],
      "stateMutability": "view",
      "type": "function"
    },
    {
      "inputs": [
        {
          "internalType": "uint256",
          "name": "",
          "type": "uint256"
        }
      ],
      "name": "Staker",
      "outputs": [
        {
          "internalType": "address",
          "name": "",
          "type": "address"
        }
      ],
      "stateMutability": "view",
      "type": "function"
    },
    {
      "inputs": [
        {
          "internalType": "string",
          "name": "",
          "type": "string"
        },
        {
          "internalType": "address",
          "name": "",
          "type": "address"
        }
      ],
      "name": "TypeAndAddressToBool",
      "outputs": [
        {
          "internalType": "bool",
          "name": "",
          "type": "bool"
        }
      ],
      "stateMutability": "view",
      "type": "function"
    },
    {
      "inputs": [],
      "name": "_MewToken",
      "outputs": [
        {
          "internalType": "contract MewToken",
          "name": "",
          "type": "address"
        }
      ],
      "stateMutability": "view",
      "type": "function"
    },
    {
      "inputs": [
        {
          "internalType": "string",
          "name": "Type",
          "type": "string"
        }
      ],
      "name": "Staking",
      "outputs": [],
      "stateMutability": "nonpayable",
      "type": "function"
    },
    {
      "inputs": [],
      "name": "UnStaking",
      "outputs": [],
      "stateMutability": "nonpayable",
      "type": "function"
    },
    {
      "inputs": [
        {
          "internalType": "string",
          "name": "Type",
          "type": "string"
        },
        {
          "internalType": "address",
          "name": "StakerAddress",
          "type": "address"
        }
      ],
      "name": "StakeForFunction",
      "outputs": [
        {
          "internalType": "bool",
          "name": "",
          "type": "bool"
        }
      ],
      "stateMutability": "view",
      "type": "function"
    }
  ],
  "bytecode": "0x60806040523480156200001157600080fd5b5060405162001673380380620016738339818101604052810190620000379190620000e7565b806000806101000a81548173ffffffffffffffffffffffffffffffffffffffff021916908373ffffffffffffffffffffffffffffffffffffffff16021790555030600260006101000a81548173ffffffffffffffffffffffffffffffffffffffff021916908373ffffffffffffffffffffffffffffffffffffffff16021790555069021e19e0c9bab24000006001819055505062000175565b600081519050620000e1816200015b565b92915050565b600060208284031215620000fa57600080fd5b60006200010a84828501620000d0565b91505092915050565b600062000120826200013b565b9050919050565b6000620001348262000113565b9050919050565b600073ffffffffffffffffffffffffffffffffffffffff82169050919050565b620001668162000127565b81146200017257600080fd5b50565b6114ee80620001856000396000f3fe608060405234801561001057600080fd5b50600436106100a95760003560e01c806375d95ae41161007157806375d95ae4146101545780638f538af814610189578063b9f9429e146101b9578063ba5d43c8146101c3578063db343539146101f3578063ea6f93c614610223576100a9565b8063128495f6146100ae578063181d68ee146100de57806318c19587146100fc57806345ce7db91461011a57806368418f4114610138575b600080fd5b6100c860048036038101906100c39190610f5b565b610241565b6040516100d591906110e6565b60405180910390f35b6100e6610280565b6040516100f39190611236565b60405180910390f35b610104610286565b60405161011191906110e6565b60405180910390f35b6101226102ac565b60405161012f91906110e6565b60405180910390f35b610152600480360381019061014d9190610ec6565b6102d2565b005b61016e60048036038101906101699190610e74565b6106eb565b60405161018096959493929190611138565b60405180910390f35b6101a3600480360381019061019e9190610f07565b6107fc565b6040516101b09190611200565b60405180910390f35b6101c1610841565b005b6101dd60048036038101906101d89190610e74565b610c73565b6040516101ea9190611200565b60405180910390f35b61020d60048036038101906102089190610f07565b610c93565b60405161021a9190611200565b60405180910390f35b61022b610d06565b604051610238919061121b565b60405180910390f35b6004818154811061025157600080fd5b906000526020600020016000915054906101000a900473ffffffffffffffffffffffffffffffffffffffff1681565b60015481565b600260009054906101000a900473ffffffffffffffffffffffffffffffffffffffff1681565b600360009054906101000a900473ffffffffffffffffffffffffffffffffffffffff1681565b60001515600660003373ffffffffffffffffffffffffffffffffffffffff1673ffffffffffffffffffffffffffffffffffffffff16815260200190815260200160002060009054906101000a900460ff1615151461032f57600080fd5b60008054906101000a900473ffffffffffffffffffffffffffffffffffffffff1673ffffffffffffffffffffffffffffffffffffffff166323b872dd33600260009054906101000a900473ffffffffffffffffffffffffffffffffffffffff166001546040518463ffffffff1660e01b81526004016103b093929190611101565b602060405180830381600087803b1580156103ca57600080fd5b505af11580156103de573d6000803e3d6000fd5b505050506040513d601f19601f820116820180604052508101906104029190610e9d565b5060006040518060c001604052803373ffffffffffffffffffffffffffffffffffffffff16815260200183815260200160015481526020014263ffffffff168152602001600063ffffffff16815260200160011515815250905080600560003373ffffffffffffffffffffffffffffffffffffffff1673ffffffffffffffffffffffffffffffffffffffff16815260200190815260200160002060008201518160000160006101000a81548173ffffffffffffffffffffffffffffffffffffffff021916908373ffffffffffffffffffffffffffffffffffffffff16021790555060208201518160010190805190602001906104ff929190610d2a565b506040820151816002015560608201518160030160006101000a81548163ffffffff021916908363ffffffff16021790555060808201518160030160046101000a81548163ffffffff021916908363ffffffff16021790555060a08201518160030160086101000a81548160ff0219169083151502179055509050506004339080600181540180825580915050600190039060005260206000200160009091909190916101000a81548173ffffffffffffffffffffffffffffffffffffffff021916908373ffffffffffffffffffffffffffffffffffffffff16021790555060016007836040516105f091906110b8565b908152602001604051809103902060003373ffffffffffffffffffffffffffffffffffffffff1673ffffffffffffffffffffffffffffffffffffffff16815260200190815260200160002060006101000a81548160ff0219169083151502179055506001600660003373ffffffffffffffffffffffffffffffffffffffff1673ffffffffffffffffffffffffffffffffffffffff16815260200190815260200160002060006101000a81548160ff0219169083151502179055507f1227ba6531f94af57be863b263dd74064043f7db1769974f784a0a13c8732f9e33426001546040516106df939291906111c9565b60405180910390a15050565b60056020528060005260406000206000915090508060000160009054906101000a900473ffffffffffffffffffffffffffffffffffffffff1690806001018054610734906113a1565b80601f0160208091040260200160405190810160405280929190818152602001828054610760906113a1565b80156107ad5780601f10610782576101008083540402835291602001916107ad565b820191906000526020600020905b81548152906001019060200180831161079057829003601f168201915b5050505050908060020154908060030160009054906101000a900463ffffffff16908060030160049054906101000a900463ffffffff16908060030160089054906101000a900460ff16905086565b6007828051602081018201805184825260208301602085012081835280955050505050506020528060005260406000206000915091509054906101000a900460ff1681565b600560003373ffffffffffffffffffffffffffffffffffffffff1673ffffffffffffffffffffffffffffffffffffffff16815260200190815260200160002060000160009054906101000a900473ffffffffffffffffffffffffffffffffffffffff1673ffffffffffffffffffffffffffffffffffffffff163373ffffffffffffffffffffffffffffffffffffffff16146108db57600080fd5b60011515600560003373ffffffffffffffffffffffffffffffffffffffff1673ffffffffffffffffffffffffffffffffffffffff16815260200190815260200160002060030160089054906101000a900460ff1615151461093b57600080fd5b42600560003373ffffffffffffffffffffffffffffffffffffffff1673ffffffffffffffffffffffffffffffffffffffff16815260200190815260200160002060030160046101000a81548163ffffffff021916908363ffffffff1602179055506000600560003373ffffffffffffffffffffffffffffffffffffffff1673ffffffffffffffffffffffffffffffffffffffff16815260200190815260200160002060030160086101000a81548160ff02191690831515021790555060006007600560003373ffffffffffffffffffffffffffffffffffffffff1673ffffffffffffffffffffffffffffffffffffffff168152602001908152602001600020600101604051610a4a91906110cf565b908152602001604051809103902060003373ffffffffffffffffffffffffffffffffffffffff1673ffffffffffffffffffffffffffffffffffffffff16815260200190815260200160002060006101000a81548160ff0219169083151502179055506000600660003373ffffffffffffffffffffffffffffffffffffffff1673ffffffffffffffffffffffffffffffffffffffff16815260200190815260200160002060006101000a81548160ff02191690831515021790555060008054906101000a900473ffffffffffffffffffffffffffffffffffffffff1673ffffffffffffffffffffffffffffffffffffffff1663a9059cbb33600560003373ffffffffffffffffffffffffffffffffffffffff1673ffffffffffffffffffffffffffffffffffffffff168152602001908152602001600020600201546040518363ffffffff1660e01b8152600401610ba19291906111a0565b602060405180830381600087803b158015610bbb57600080fd5b505af1158015610bcf573d6000803e3d6000fd5b505050506040513d601f19601f82011682018060405250810190610bf39190610e9d565b507fda060ed0c2124daf4042f528e2f6c09a73c51c6e966c1de3a495e147bc0eb0fd3342600560003373ffffffffffffffffffffffffffffffffffffffff1673ffffffffffffffffffffffffffffffffffffffff16815260200190815260200160002060020154604051610c69939291906111c9565b60405180910390a1565b60066020528060005260406000206000915054906101000a900460ff1681565b6000600783604051610ca591906110b8565b908152602001604051809103902060008373ffffffffffffffffffffffffffffffffffffffff1673ffffffffffffffffffffffffffffffffffffffff16815260200190815260200160002060009054906101000a900460ff16905092915050565b60008054906101000a900473ffffffffffffffffffffffffffffffffffffffff1681565b828054610d36906113a1565b90600052602060002090601f016020900481019282610d585760008555610d9f565b82601f10610d7157805160ff1916838001178555610d9f565b82800160010185558215610d9f579182015b82811115610d9e578251825591602001919060010190610d83565b5b509050610dac9190610db0565b5090565b5b80821115610dc9576000816000905550600101610db1565b5090565b6000610de0610ddb84611276565b611251565b905082815260208101848484011115610df857600080fd5b610e0384828561135f565b509392505050565b600081359050610e1a81611473565b92915050565b600081519050610e2f8161148a565b92915050565b600082601f830112610e4657600080fd5b8135610e56848260208601610dcd565b91505092915050565b600081359050610e6e816114a1565b92915050565b600060208284031215610e8657600080fd5b6000610e9484828501610e0b565b91505092915050565b600060208284031215610eaf57600080fd5b6000610ebd84828501610e20565b91505092915050565b600060208284031215610ed857600080fd5b600082013567ffffffffffffffff811115610ef257600080fd5b610efe84828501610e35565b91505092915050565b60008060408385031215610f1a57600080fd5b600083013567ffffffffffffffff811115610f3457600080fd5b610f4085828601610e35565b9250506020610f5185828601610e0b565b9150509250929050565b600060208284031215610f6d57600080fd5b6000610f7b84828501610e5f565b91505092915050565b610f8d816112e3565b82525050565b610f9c816112f5565b82525050565b610fab8161133b565b82525050565b6000610fbc826112bc565b610fc681856112c7565b9350610fd681856020860161136e565b610fdf81611462565b840191505092915050565b6000610ff5826112bc565b610fff81856112d8565b935061100f81856020860161136e565b80840191505092915050565b60008154611028816113a1565b61103281866112d8565b9450600182166000811461104d576001811461105e57611091565b60ff19831686528186019350611091565b611067856112a7565b60005b838110156110895781548189015260018201915060208101905061106a565b838801955050505b50505092915050565b6110a381611321565b82525050565b6110b28161132b565b82525050565b60006110c48284610fea565b915081905092915050565b60006110db828461101b565b915081905092915050565b60006020820190506110fb6000830184610f84565b92915050565b60006060820190506111166000830186610f84565b6111236020830185610f84565b611130604083018461109a565b949350505050565b600060c08201905061114d6000830189610f84565b818103602083015261115f8188610fb1565b905061116e604083018761109a565b61117b60608301866110a9565b61118860808301856110a9565b61119560a0830184610f93565b979650505050505050565b60006040820190506111b56000830185610f84565b6111c2602083018461109a565b9392505050565b60006060820190506111de6000830186610f84565b6111eb60208301856110a9565b6111f8604083018461109a565b949350505050565b60006020820190506112156000830184610f93565b92915050565b60006020820190506112306000830184610fa2565b92915050565b600060208201905061124b600083018461109a565b92915050565b600061125b61126c565b905061126782826113d3565b919050565b6000604051905090565b600067ffffffffffffffff82111561129157611290611433565b5b61129a82611462565b9050602081019050919050565b60008190508160005260206000209050919050565b600081519050919050565b600082825260208201905092915050565b600081905092915050565b60006112ee82611301565b9050919050565b60008115159050919050565b600073ffffffffffffffffffffffffffffffffffffffff82169050919050565b6000819050919050565b600063ffffffff82169050919050565b60006113468261134d565b9050919050565b600061135882611301565b9050919050565b82818337600083830152505050565b60005b8381101561138c578082015181840152602081019050611371565b8381111561139b576000848401525b50505050565b600060028204905060018216806113b957607f821691505b602082108114156113cd576113cc611404565b5b50919050565b6113dc82611462565b810181811067ffffffffffffffff821117156113fb576113fa611433565b5b80604052505050565b7f4e487b7100000000000000000000000000000000000000000000000000000000600052602260045260246000fd5b7f4e487b7100000000000000000000000000000000000000000000000000000000600052604160045260246000fd5b6000601f19601f8301169050919050565b61147c816112e3565b811461148757600080fd5b50565b611493816112f5565b811461149e57600080fd5b50565b6114aa81611321565b81146114b557600080fd5b5056fea2646970667358221220ab6c0a11afb745870a276d610e0338c3f97080602b4941dba66de6c1123dea2564736f6c63430008040033",
  "immutableReferences": {},
  "source": "// SPDX-License-Identifier: GPL-3.0\r\n\r\npragma solidity >=0.7.0 <0.9.0;\r\nimport '../Essential/Essential_SafeMath.sol';\r\nimport '../Essential/Essential_Event.sol';\r\nimport '../Token/Token_Mew.sol';\r\n\r\n/**\r\n * @title Storage\r\n * @dev Store & retrieve value in a variable\r\n */\r\ncontract StakePool is Event {\r\n    MewToken                                    public _MewToken;\r\n    uint                                        public StakeValue;\r\n    address                                     public StakeWallet;\r\n    address                                     public StakeAddress;\r\n    address[]                                   public Staker;\r\n    mapping(address => Pool)                    public AddressToPool;\r\n    mapping(address => bool)                    public AddressToBool;\r\n    mapping(string => mapping(address => bool)) public TypeAndAddressToBool;\r\n    \r\n    constructor(MewToken mewtoken){\r\n        _MewToken = mewtoken;\r\n        StakeWallet = address(this);\r\n        StakeValue = 10000 * 10 ** 18;\r\n    }\r\n    \r\n    struct Pool {\r\n        address StakerAddress;\r\n        string  Type;\r\n        uint    StakeValue;\r\n        uint32  StartTime;\r\n        uint32  EndTime;\r\n        bool    Status;\r\n    }\r\n    \r\n    function Staking(string memory Type)\r\n    external\r\n    {\r\n        require(AddressToBool[msg.sender] == false);\r\n        _MewToken.transferFrom(msg.sender, StakeWallet, StakeValue);\r\n        Pool memory NewPool = Pool(msg.sender, Type, StakeValue, uint32(block.timestamp), 0, true);\r\n        AddressToPool[msg.sender] = NewPool;\r\n        Staker.push(msg.sender);\r\n        TypeAndAddressToBool[Type][msg.sender] = true;\r\n        AddressToBool[msg.sender] = true;\r\n        emit Stake(msg.sender, uint32(block.timestamp), StakeValue);\r\n    }\r\n    \r\n    function UnStaking()\r\n    external\r\n    {\r\n        require(msg.sender == AddressToPool[msg.sender].StakerAddress);\r\n        require(AddressToPool[msg.sender].Status == true);\r\n        AddressToPool[msg.sender].EndTime = uint32(block.timestamp);\r\n        AddressToPool[msg.sender].Status = false;\r\n        TypeAndAddressToBool[AddressToPool[msg.sender].Type][msg.sender] = false;\r\n        AddressToBool[msg.sender] = false;\r\n        _MewToken.transfer(msg.sender, AddressToPool[msg.sender].StakeValue);\r\n        emit UnStake(msg.sender, uint32(block.timestamp), AddressToPool[msg.sender].StakeValue);\r\n    }\r\n    \r\n    function StakeForFunction(\r\n        string memory Type,\r\n        address       StakerAddress\r\n    )\r\n    external\r\n    view\r\n    returns(bool)\r\n    {\r\n        return TypeAndAddressToBool[Type][StakerAddress];\r\n    }\r\n}\r\n\r\n\r\n\r\n\r\n\r\n\r\n\r\n\r\n\r\n\r\n\r\n\r\n\r\n\r\n\r\n\r\n\r\n\r\n\r\n\r\n",
  "sourcePath": "C:\\Users\\user\\mew-supplychain\\contracts\\contracts\\Stake\\Stake_Staking.sol",
  "compiler": {
    "name": "solc",
    "version": "0.8.4+commit.c7e474f2.Emscripten.clang"
  },
  "schemaVersion": "3.4.1",
  "updatedAt": "2021-08-05T19:56:57.874Z",
  "devdoc": {
    "details": "Store & retrieve value in a variable",
    "kind": "dev",
    "methods": {},
    "title": "Storage",
    "version": 1
  },
  "userdoc": {
    "kind": "user",
    "methods": {},
    "version": 1
  }
}