{
  "contractName": "TransportFactory",
  "abi": [
    {
      "anonymous": false,
      "inputs": [
        {
          "indexed": false,
          "internalType": "string",
          "name": "Status",
          "type": "string"
        },
        {
          "indexed": false,
          "internalType": "address",
          "name": "Transporter",
          "type": "address"
        },
        {
          "indexed": false,
          "internalType": "address",
          "name": "TransportAddress",
          "type": "address"
        }
      ],
      "name": "NewChangeTransportEvent",
      "type": "event"
    },
    {
      "anonymous": false,
      "inputs": [
        {
          "indexed": false,
          "internalType": "address",
          "name": "Manager",
          "type": "address"
        },
        {
          "indexed": false,
          "internalType": "address",
          "name": "Genesis",
          "type": "address"
        }
      ],
      "name": "NewEvent",
      "type": "event"
    },
    {
      "anonymous": false,
      "inputs": [
        {
          "indexed": false,
          "internalType": "address",
          "name": "Reviewer",
          "type": "address"
        },
        {
          "indexed": false,
          "internalType": "address",
          "name": "Review",
          "type": "address"
        },
        {
          "indexed": false,
          "internalType": "string",
          "name": "Comment",
          "type": "string"
        },
        {
          "indexed": false,
          "internalType": "uint8",
          "name": "rate",
          "type": "uint8"
        }
      ],
      "name": "NewReviewEvent",
      "type": "event"
    },
    {
      "anonymous": false,
      "inputs": [
        {
          "indexed": false,
          "internalType": "address",
          "name": "StakerAddress",
          "type": "address"
        },
        {
          "indexed": false,
          "internalType": "uint32",
          "name": "TimeStamp",
          "type": "uint32"
        },
        {
          "indexed": false,
          "internalType": "uint256",
          "name": "Amount",
          "type": "uint256"
        }
      ],
      "name": "Stake",
      "type": "event"
    },
    {
      "anonymous": false,
      "inputs": [
        {
          "indexed": false,
          "internalType": "address",
          "name": "StakerAddress",
          "type": "address"
        },
        {
          "indexed": false,
          "internalType": "uint32",
          "name": "TimeStamp",
          "type": "uint32"
        },
        {
          "indexed": false,
          "internalType": "uint256",
          "name": "Amount",
          "type": "uint256"
        }
      ],
      "name": "UnStake",
      "type": "event"
    },
    {
      "inputs": [
        {
          "internalType": "string",
          "name": "ShipCompany",
          "type": "string"
        },
        {
          "internalType": "string",
          "name": "Vehicle",
          "type": "string"
        },
        {
          "internalType": "string",
          "name": "Status",
          "type": "string"
        },
        {
          "internalType": "address",
          "name": "FromAddress",
          "type": "address"
        },
        {
          "internalType": "address",
          "name": "ToAddress",
          "type": "address"
        },
        {
          "internalType": "address",
          "name": "MerchandiseAddress",
          "type": "address"
        }
      ],
      "name": "CreateTransport",
      "outputs": [],
      "stateMutability": "nonpayable",
      "type": "function"
    },
    {
      "inputs": [
        {
          "internalType": "string",
          "name": "Status",
          "type": "string"
        },
        {
          "internalType": "address",
          "name": "TransportAddress",
          "type": "address"
        }
      ],
      "name": "ChangeStatusTransport",
      "outputs": [],
      "stateMutability": "nonpayable",
      "type": "function"
    }
  ],
  "bytecode": "0x6080604052737ef2e0048f5baede046f6bf797943daf4ed8cb476000806101000a81548173ffffffffffffffffffffffffffffffffffffffff021916908373ffffffffffffffffffffffffffffffffffffffff16021790555073fb7628067f0821938fe6d388cd3caf71dd88636b600160006101000a81548173ffffffffffffffffffffffffffffffffffffffff021916908373ffffffffffffffffffffffffffffffffffffffff16021790555060008054906101000a900473ffffffffffffffffffffffffffffffffffffffff16600260006101000a81548173ffffffffffffffffffffffffffffffffffffffff021916908373ffffffffffffffffffffffffffffffffffffffff16021790555034801561011a57600080fd5b506112f78061012a6000396000f3fe608060405234801561001057600080fd5b50600436106100365760003560e01c8063b87297e51461003b578063bac2464414610057575b600080fd5b61005560048036038101906100509190610ca3565b610073565b005b610071600480360381019061006c9190610cf7565b610443565b005b60011515600260009054906101000a900473ffffffffffffffffffffffffffffffffffffffff1673ffffffffffffffffffffffffffffffffffffffff1663db343539336040518263ffffffff1660e01b81526004016100d29190610faa565b60206040518083038186803b1580156100ea57600080fd5b505afa1580156100fe573d6000803e3d6000fd5b505050506040513d601f19601f820116820180604052508101906101229190610c7a565b15151461012e57600080fd5b600460008273ffffffffffffffffffffffffffffffffffffffff1673ffffffffffffffffffffffffffffffffffffffff16815260200190815260200160002060040160089054906101000a900473ffffffffffffffffffffffffffffffffffffffff1673ffffffffffffffffffffffffffffffffffffffff163373ffffffffffffffffffffffffffffffffffffffff16146101fe576040517f08c379a00000000000000000000000000000000000000000000000000000000081526004016101f590610f8a565b60405180910390fd5b81600460008373ffffffffffffffffffffffffffffffffffffffff1673ffffffffffffffffffffffffffffffffffffffff1681526020019081526020016000206003019080519060200190610254929190610b45565b5042600460008373ffffffffffffffffffffffffffffffffffffffff1673ffffffffffffffffffffffffffffffffffffffff16815260200190815260200160002060040160046101000a81548163ffffffff021916908363ffffffff160217905550816003600460008473ffffffffffffffffffffffffffffffffffffffff1673ffffffffffffffffffffffffffffffffffffffff1681526020019081526020016000206000015481548110610333577f4e487b7100000000000000000000000000000000000000000000000000000000600052603260045260246000fd5b90600052602060002090600902016003019080519060200190610357929190610b45565b50426003600460008473ffffffffffffffffffffffffffffffffffffffff1673ffffffffffffffffffffffffffffffffffffffff16815260200190815260200160002060000154815481106103d5577f4e487b7100000000000000000000000000000000000000000000000000000000600052603260045260246000fd5b906000526020600020906009020160040160046101000a81548163ffffffff021916908363ffffffff1602179055507fcdf1c5719e5f65f1ef5d057067204c067a35c994d816fe40f658c09eb3b54e3b82338360405161043793929190610f4c565b60405180910390a15050565b60011515600260009054906101000a900473ffffffffffffffffffffffffffffffffffffffff1673ffffffffffffffffffffffffffffffffffffffff1663db343539336040518263ffffffff1660e01b81526004016104a29190610faa565b60206040518083038186803b1580156104ba57600080fd5b505afa1580156104ce573d6000803e3d6000fd5b505050506040513d601f19601f820116820180604052508101906104f29190610c7a565b1515146104fe57600080fd5b600061051287874233600380549050610ac2565b9050600060405180610160016040528060038054905081526020018981526020018881526020018781526020014263ffffffff168152602001600063ffffffff1681526020013373ffffffffffffffffffffffffffffffffffffffff1681526020018473ffffffffffffffffffffffffffffffffffffffff1681526020018373ffffffffffffffffffffffffffffffffffffffff1681526020018673ffffffffffffffffffffffffffffffffffffffff1681526020018573ffffffffffffffffffffffffffffffffffffffff1681525090506003819080600181540180825580915050600190039060005260206000209060090201600090919091909150600082015181600001556020820151816001019080519060200190610636929190610b45565b506040820151816002019080519060200190610653929190610b45565b506060820151816003019080519060200190610670929190610b45565b5060808201518160040160006101000a81548163ffffffff021916908363ffffffff16021790555060a08201518160040160046101000a81548163ffffffff021916908363ffffffff16021790555060c08201518160040160086101000a81548173ffffffffffffffffffffffffffffffffffffffff021916908373ffffffffffffffffffffffffffffffffffffffff16021790555060e08201518160050160006101000a81548173ffffffffffffffffffffffffffffffffffffffff021916908373ffffffffffffffffffffffffffffffffffffffff1602179055506101008201518160060160006101000a81548173ffffffffffffffffffffffffffffffffffffffff021916908373ffffffffffffffffffffffffffffffffffffffff1602179055506101208201518160070160006101000a81548173ffffffffffffffffffffffffffffffffffffffff021916908373ffffffffffffffffffffffffffffffffffffffff1602179055506101408201518160080160006101000a81548173ffffffffffffffffffffffffffffffffffffffff021916908373ffffffffffffffffffffffffffffffffffffffff160217905550505080600460008473ffffffffffffffffffffffffffffffffffffffff1673ffffffffffffffffffffffffffffffffffffffff16815260200190815260200160002060008201518160000155602082015181600101908051906020019061088d929190610b45565b5060408201518160020190805190602001906108aa929190610b45565b5060608201518160030190805190602001906108c7929190610b45565b5060808201518160040160006101000a81548163ffffffff021916908363ffffffff16021790555060a08201518160040160046101000a81548163ffffffff021916908363ffffffff16021790555060c08201518160040160086101000a81548173ffffffffffffffffffffffffffffffffffffffff021916908373ffffffffffffffffffffffffffffffffffffffff16021790555060e08201518160050160006101000a81548173ffffffffffffffffffffffffffffffffffffffff021916908373ffffffffffffffffffffffffffffffffffffffff1602179055506101008201518160060160006101000a81548173ffffffffffffffffffffffffffffffffffffffff021916908373ffffffffffffffffffffffffffffffffffffffff1602179055506101208201518160070160006101000a81548173ffffffffffffffffffffffffffffffffffffffff021916908373ffffffffffffffffffffffffffffffffffffffff1602179055506101408201518160080160006101000a81548173ffffffffffffffffffffffffffffffffffffffff021916908373ffffffffffffffffffffffffffffffffffffffff1602179055509050507f2eab9bbcd3573a37c80df886e181d345b1b44fb6fd6a220f526b8992e332b0fa3383604051610ab0929190610f23565b60405180910390a15050505050505050565b60008273ffffffffffffffffffffffffffffffffffffffff163373ffffffffffffffffffffffffffffffffffffffff1614610afc57600080fd5b60008686868686604051602001610b17959493929190610ecc565b60405160208183030381529060405280519060200120905060008160601c9050809250505095945050505050565b828054610b51906110ef565b90600052602060002090601f016020900481019282610b735760008555610bba565b82601f10610b8c57805160ff1916838001178555610bba565b82800160010185558215610bba579182015b82811115610bb9578251825591602001919060010190610b9e565b5b509050610bc79190610bcb565b5090565b5b80821115610be4576000816000905550600101610bcc565b5090565b6000610bfb610bf684610ffd565b610fd8565b905082815260208101848484011115610c1357600080fd5b610c1e8482856110ad565b509392505050565b600081359050610c3581611293565b92915050565b600081519050610c4a816112aa565b92915050565b600082601f830112610c6157600080fd5b8135610c71848260208601610be8565b91505092915050565b600060208284031215610c8c57600080fd5b6000610c9a84828501610c3b565b91505092915050565b60008060408385031215610cb657600080fd5b600083013567ffffffffffffffff811115610cd057600080fd5b610cdc85828601610c50565b9250506020610ced85828601610c26565b9150509250929050565b60008060008060008060c08789031215610d1057600080fd5b600087013567ffffffffffffffff811115610d2a57600080fd5b610d3689828a01610c50565b965050602087013567ffffffffffffffff811115610d5357600080fd5b610d5f89828a01610c50565b955050604087013567ffffffffffffffff811115610d7c57600080fd5b610d8889828a01610c50565b9450506060610d9989828a01610c26565b9350506080610daa89828a01610c26565b92505060a0610dbb89828a01610c26565b9150509295509295509295565b610dd181611055565b82525050565b610de8610de382611055565b611152565b82525050565b6000610df98261102e565b610e038185611039565b9350610e138185602086016110bc565b610e1c816111f0565b840191505092915050565b6000610e328261102e565b610e3c818561104a565b9350610e4c8185602086016110bc565b80840191505092915050565b6000610e65602f83611039565b9150610e708261121b565b604082019050919050565b6000610e88600983611039565b9150610e938261126a565b602082019050919050565b610eaf610eaa82611093565b611176565b82525050565b610ec6610ec18261109d565b611180565b82525050565b6000610ed88288610e27565b9150610ee48287610e27565b9150610ef08286610eb5565b600482019150610f008285610dd7565b601482019150610f108284610e9e565b6020820191508190509695505050505050565b6000604082019050610f386000830185610dc8565b610f456020830184610dc8565b9392505050565b60006060820190508181036000830152610f668186610dee565b9050610f756020830185610dc8565b610f826040830184610dc8565b949350505050565b60006020820190508181036000830152610fa381610e58565b9050919050565b60006040820190508181036000830152610fc381610e7b565b9050610fd26020830184610dc8565b92915050565b6000610fe2610ff3565b9050610fee8282611121565b919050565b6000604051905090565b600067ffffffffffffffff821115611018576110176111c1565b5b611021826111f0565b9050602081019050919050565b600081519050919050565b600082825260208201905092915050565b600081905092915050565b600061106082611073565b9050919050565b60008115159050919050565b600073ffffffffffffffffffffffffffffffffffffffff82169050919050565b6000819050919050565b600063ffffffff82169050919050565b82818337600083830152505050565b60005b838110156110da5780820151818401526020810190506110bf565b838111156110e9576000848401525b50505050565b6000600282049050600182168061110757607f821691505b6020821081141561111b5761111a611192565b5b50919050565b61112a826111f0565b810181811067ffffffffffffffff82111715611149576111486111c1565b5b80604052505050565b600061115d82611164565b9050919050565b600061116f8261120e565b9050919050565b6000819050919050565b600061118b82611201565b9050919050565b7f4e487b7100000000000000000000000000000000000000000000000000000000600052602260045260246000fd5b7f4e487b7100000000000000000000000000000000000000000000000000000000600052604160045260246000fd5b6000601f19601f8301169050919050565b60008160e01b9050919050565b60008160601b9050919050565b7f596f7520646f206e6f742068617665207065726d697373696f6e20746f20636860008201527f616e676520746865207374617475730000000000000000000000000000000000602082015250565b7f5472616e73706f72740000000000000000000000000000000000000000000000600082015250565b61129c81611055565b81146112a757600080fd5b50565b6112b381611067565b81146112be57600080fd5b5056fea2646970667358221220297fad8f3545fa2e6cae8383ba7b8e2a6243941c05ca46859aabd4f65b39acde64736f6c63430008040033",
  "immutableReferences": {},
  "source": "// SPDX-License-Identifier: GPL-3.0\r\n\r\npragma solidity >=0.7.0 <0.9.0;\r\nimport \"../Essential/Essential_Event.sol\";\r\nimport \"../Essential/Essential_Encode.sol\";\r\nimport \"../Essential/Essential_Constant.sol\";\r\nimport \"../Stake/Stake_Staking.sol\";\r\n\r\n/**\r\n * @title Storage\r\n * @dev Store & retrieve value in a variable\r\n */\r\ncontract TransportFactory is Event, Encode, Constant{\r\n    struct Transport {\r\n        uint        ID;\r\n        string      ShipCompany;\r\n        string      Vehicle;\r\n        string      Status;\r\n        uint32      ReceptionTime;\r\n        uint32      HandoverTime;\r\n        address     TransporterAddress;\r\n        address     MerchandiseAddress;\r\n        address     TransportAddress;\r\n        address     FromAddress;\r\n        address     ToAddress;\r\n    }\r\n\r\n    StakePool                     private _Stake = StakePool(StakeContractAddress);\r\n    Transport[]                   internal TransportList;\r\n    mapping(address => Transport) internal AddressToTransport;\r\n    \r\n    function CreateTransport(\r\n        string memory ShipCompany,\r\n        string memory Vehicle,\r\n        string memory Status,\r\n        address       FromAddress,\r\n        address       ToAddress,\r\n        address       MerchandiseAddress\r\n    )\r\n    public\r\n    {\r\n        require(_Stake.StakeForFunction(\"Transport\",msg.sender) == true);\r\n        address TransportAddress = CreateAddress(ShipCompany, Vehicle,  uint32(block.timestamp), msg.sender, TransportList.length);\r\n        Transport memory NewTransport = Transport(TransportList.length, ShipCompany, Vehicle, Status, uint32(block.timestamp), 0, msg.sender, MerchandiseAddress, TransportAddress,FromAddress, ToAddress);\r\n        TransportList.push(NewTransport);\r\n        AddressToTransport[TransportAddress] = NewTransport;\r\n        emit NewEvent(msg.sender, TransportAddress);\r\n    }\r\n    \r\n    function ChangeStatusTransport(\r\n        string memory Status,\r\n        address        TransportAddress\r\n    )\r\n    public\r\n    {\r\n        require(_Stake.StakeForFunction(\"Transport\",msg.sender) == true);\r\n        require(msg.sender == AddressToTransport[TransportAddress].TransporterAddress, \"You do not have permission to change the status\");\r\n        AddressToTransport[TransportAddress].Status = Status;\r\n        AddressToTransport[TransportAddress].HandoverTime =  uint32(block.timestamp);\r\n        TransportList[AddressToTransport[TransportAddress].ID].Status = Status;\r\n        TransportList[AddressToTransport[TransportAddress].ID].HandoverTime =  uint32(block.timestamp);\r\n        emit NewChangeTransportEvent(Status, msg.sender, TransportAddress);\r\n    }\r\n}",
  "sourcePath": "C:/Users/user/mew-supplychain/contracts/contracts/Factory/Factory_Transport.sol",
  "compiler": {
    "name": "solc",
    "version": "0.8.4+commit.c7e474f2.Emscripten.clang"
  },
  "schemaVersion": "3.4.1",
  "updatedAt": "2021-08-05T19:56:57.849Z",
  "devdoc": {
    "details": "Store & retrieve value in a variable",
    "kind": "dev",
    "methods": {},
    "title": "Storage",
    "version": 1
  },
  "userdoc": {
    "kind": "user",
    "methods": {},
    "version": 1
  }
}