{
  "contractName": "TransportSearch",
  "abi": [
    {
      "anonymous": false,
      "inputs": [
        {
          "indexed": false,
          "internalType": "string",
          "name": "Status",
          "type": "string"
        },
        {
          "indexed": false,
          "internalType": "address",
          "name": "Transporter",
          "type": "address"
        },
        {
          "indexed": false,
          "internalType": "address",
          "name": "TransportAddress",
          "type": "address"
        }
      ],
      "name": "NewChangeTransportEvent",
      "type": "event"
    },
    {
      "anonymous": false,
      "inputs": [
        {
          "indexed": false,
          "internalType": "address",
          "name": "Manager",
          "type": "address"
        },
        {
          "indexed": false,
          "internalType": "address",
          "name": "Genesis",
          "type": "address"
        }
      ],
      "name": "NewEvent",
      "type": "event"
    },
    {
      "anonymous": false,
      "inputs": [
        {
          "indexed": false,
          "internalType": "address",
          "name": "Reviewer",
          "type": "address"
        },
        {
          "indexed": false,
          "internalType": "address",
          "name": "Review",
          "type": "address"
        },
        {
          "indexed": false,
          "internalType": "string",
          "name": "Comment",
          "type": "string"
        },
        {
          "indexed": false,
          "internalType": "uint8",
          "name": "rate",
          "type": "uint8"
        }
      ],
      "name": "NewReviewEvent",
      "type": "event"
    },
    {
      "anonymous": false,
      "inputs": [
        {
          "indexed": false,
          "internalType": "address",
          "name": "StakerAddress",
          "type": "address"
        },
        {
          "indexed": false,
          "internalType": "uint32",
          "name": "TimeStamp",
          "type": "uint32"
        },
        {
          "indexed": false,
          "internalType": "uint256",
          "name": "Amount",
          "type": "uint256"
        }
      ],
      "name": "Stake",
      "type": "event"
    },
    {
      "anonymous": false,
      "inputs": [
        {
          "indexed": false,
          "internalType": "address",
          "name": "StakerAddress",
          "type": "address"
        },
        {
          "indexed": false,
          "internalType": "uint32",
          "name": "TimeStamp",
          "type": "uint32"
        },
        {
          "indexed": false,
          "internalType": "uint256",
          "name": "Amount",
          "type": "uint256"
        }
      ],
      "name": "UnStake",
      "type": "event"
    },
    {
      "inputs": [
        {
          "internalType": "string",
          "name": "Status",
          "type": "string"
        },
        {
          "internalType": "address",
          "name": "TransportAddress",
          "type": "address"
        }
      ],
      "name": "ChangeStatusTransport",
      "outputs": [],
      "stateMutability": "nonpayable",
      "type": "function"
    },
    {
      "inputs": [
        {
          "internalType": "string",
          "name": "ShipCompany",
          "type": "string"
        },
        {
          "internalType": "string",
          "name": "Vehicle",
          "type": "string"
        },
        {
          "internalType": "string",
          "name": "Status",
          "type": "string"
        },
        {
          "internalType": "address",
          "name": "FromAddress",
          "type": "address"
        },
        {
          "internalType": "address",
          "name": "ToAddress",
          "type": "address"
        },
        {
          "internalType": "address",
          "name": "MerchandiseAddress",
          "type": "address"
        }
      ],
      "name": "CreateTransport",
      "outputs": [],
      "stateMutability": "nonpayable",
      "type": "function"
    },
    {
      "inputs": [
        {
          "internalType": "address",
          "name": "Address",
          "type": "address"
        }
      ],
      "name": "SearchTransportByAddress",
      "outputs": [
        {
          "components": [
            {
              "internalType": "uint256",
              "name": "ID",
              "type": "uint256"
            },
            {
              "internalType": "string",
              "name": "ShipCompany",
              "type": "string"
            },
            {
              "internalType": "string",
              "name": "Vehicle",
              "type": "string"
            },
            {
              "internalType": "string",
              "name": "Status",
              "type": "string"
            },
            {
              "internalType": "uint32",
              "name": "ReceptionTime",
              "type": "uint32"
            },
            {
              "internalType": "uint32",
              "name": "HandoverTime",
              "type": "uint32"
            },
            {
              "internalType": "address",
              "name": "TransporterAddress",
              "type": "address"
            },
            {
              "internalType": "address",
              "name": "MerchandiseAddress",
              "type": "address"
            },
            {
              "internalType": "address",
              "name": "TransportAddress",
              "type": "address"
            },
            {
              "internalType": "address",
              "name": "FromAddress",
              "type": "address"
            },
            {
              "internalType": "address",
              "name": "ToAddress",
              "type": "address"
            }
          ],
          "internalType": "struct TransportFactory.Transport",
          "name": "",
          "type": "tuple"
        }
      ],
      "stateMutability": "view",
      "type": "function"
    },
    {
      "inputs": [
        {
          "internalType": "address",
          "name": "TransporterAddress",
          "type": "address"
        }
      ],
      "name": "SearchTransportByManagerAddress",
      "outputs": [
        {
          "internalType": "uint256[]",
          "name": "",
          "type": "uint256[]"
        }
      ],
      "stateMutability": "view",
      "type": "function"
    },
    {
      "inputs": [
        {
          "internalType": "address",
          "name": "MerchandiseAddress",
          "type": "address"
        }
      ],
      "name": "SearchTransportByMerchandiseAddress",
      "outputs": [
        {
          "internalType": "uint256[]",
          "name": "",
          "type": "uint256[]"
        }
      ],
      "stateMutability": "view",
      "type": "function"
    },
    {
      "inputs": [
        {
          "internalType": "uint256",
          "name": "ID",
          "type": "uint256"
        }
      ],
      "name": "SearchTransportByID",
      "outputs": [
        {
          "components": [
            {
              "internalType": "uint256",
              "name": "ID",
              "type": "uint256"
            },
            {
              "internalType": "string",
              "name": "ShipCompany",
              "type": "string"
            },
            {
              "internalType": "string",
              "name": "Vehicle",
              "type": "string"
            },
            {
              "internalType": "string",
              "name": "Status",
              "type": "string"
            },
            {
              "internalType": "uint32",
              "name": "ReceptionTime",
              "type": "uint32"
            },
            {
              "internalType": "uint32",
              "name": "HandoverTime",
              "type": "uint32"
            },
            {
              "internalType": "address",
              "name": "TransporterAddress",
              "type": "address"
            },
            {
              "internalType": "address",
              "name": "MerchandiseAddress",
              "type": "address"
            },
            {
              "internalType": "address",
              "name": "TransportAddress",
              "type": "address"
            },
            {
              "internalType": "address",
              "name": "FromAddress",
              "type": "address"
            },
            {
              "internalType": "address",
              "name": "ToAddress",
              "type": "address"
            }
          ],
          "internalType": "struct TransportFactory.Transport",
          "name": "",
          "type": "tuple"
        }
      ],
      "stateMutability": "view",
      "type": "function"
    }
  ],
  "bytecode": "0x6080604052737ef2e0048f5baede046f6bf797943daf4ed8cb476000806101000a81548173ffffffffffffffffffffffffffffffffffffffff021916908373ffffffffffffffffffffffffffffffffffffffff16021790555073965ecf3b23e96f095f1811096333731610aba986600160006101000a81548173ffffffffffffffffffffffffffffffffffffffff021916908373ffffffffffffffffffffffffffffffffffffffff16021790555060008054906101000a900473ffffffffffffffffffffffffffffffffffffffff16600260006101000a81548173ffffffffffffffffffffffffffffffffffffffff021916908373ffffffffffffffffffffffffffffffffffffffff16021790555034801561011a57600080fd5b506125218061012a6000396000f3fe608060405234801561001057600080fd5b50600436106100625760003560e01c80639d40778514610067578063b87297e514610097578063bac24644146100b3578063c96cfe81146100cf578063d942e376146100ff578063f09599d51461012f575b600080fd5b610081600480360381019061007c9190611b5c565b61015f565b60405161008e9190612107565b60405180910390f35b6100b160048036038101906100ac9190611bae565b610573565b005b6100cd60048036038101906100c89190611c02565b610943565b005b6100e960048036038101906100e49190611b5c565b610fc2565b6040516100f69190612059565b60405180910390f35b61011960048036038101906101149190611b5c565b611230565b6040516101269190612059565b60405180910390f35b61014960048036038101906101449190611cd3565b61149e565b6040516101569190612107565b60405180910390f35b61016761193e565b600460008373ffffffffffffffffffffffffffffffffffffffff1673ffffffffffffffffffffffffffffffffffffffff16815260200190815260200160002060405180610160016040529081600082015481526020016001820180546101cc9061228a565b80601f01602080910402602001604051908101604052809291908181526020018280546101f89061228a565b80156102455780601f1061021a57610100808354040283529160200191610245565b820191906000526020600020905b81548152906001019060200180831161022857829003601f168201915b5050505050815260200160028201805461025e9061228a565b80601f016020809104026020016040519081016040528092919081815260200182805461028a9061228a565b80156102d75780601f106102ac576101008083540402835291602001916102d7565b820191906000526020600020905b8154815290600101906020018083116102ba57829003601f168201915b505050505081526020016003820180546102f09061228a565b80601f016020809104026020016040519081016040528092919081815260200182805461031c9061228a565b80156103695780601f1061033e57610100808354040283529160200191610369565b820191906000526020600020905b81548152906001019060200180831161034c57829003601f168201915b505050505081526020016004820160009054906101000a900463ffffffff1663ffffffff1663ffffffff1681526020016004820160049054906101000a900463ffffffff1663ffffffff1663ffffffff1681526020016004820160089054906101000a900473ffffffffffffffffffffffffffffffffffffffff1673ffffffffffffffffffffffffffffffffffffffff1673ffffffffffffffffffffffffffffffffffffffff1681526020016005820160009054906101000a900473ffffffffffffffffffffffffffffffffffffffff1673ffffffffffffffffffffffffffffffffffffffff1673ffffffffffffffffffffffffffffffffffffffff1681526020016006820160009054906101000a900473ffffffffffffffffffffffffffffffffffffffff1673ffffffffffffffffffffffffffffffffffffffff1673ffffffffffffffffffffffffffffffffffffffff1681526020016007820160009054906101000a900473ffffffffffffffffffffffffffffffffffffffff1673ffffffffffffffffffffffffffffffffffffffff1673ffffffffffffffffffffffffffffffffffffffff1681526020016008820160009054906101000a900473ffffffffffffffffffffffffffffffffffffffff1673ffffffffffffffffffffffffffffffffffffffff1673ffffffffffffffffffffffffffffffffffffffff16815250509050919050565b60011515600260009054906101000a900473ffffffffffffffffffffffffffffffffffffffff1673ffffffffffffffffffffffffffffffffffffffff1663db343539336040518263ffffffff1660e01b81526004016105d291906120d9565b60206040518083038186803b1580156105ea57600080fd5b505afa1580156105fe573d6000803e3d6000fd5b505050506040513d601f19601f820116820180604052508101906106229190611b85565b15151461062e57600080fd5b600460008273ffffffffffffffffffffffffffffffffffffffff1673ffffffffffffffffffffffffffffffffffffffff16815260200190815260200160002060040160089054906101000a900473ffffffffffffffffffffffffffffffffffffffff1673ffffffffffffffffffffffffffffffffffffffff163373ffffffffffffffffffffffffffffffffffffffff16146106fe576040517f08c379a00000000000000000000000000000000000000000000000000000000081526004016106f5906120b9565b60405180910390fd5b81600460008373ffffffffffffffffffffffffffffffffffffffff1673ffffffffffffffffffffffffffffffffffffffff1681526020019081526020016000206003019080519060200190610754929190611a12565b5042600460008373ffffffffffffffffffffffffffffffffffffffff1673ffffffffffffffffffffffffffffffffffffffff16815260200190815260200160002060040160046101000a81548163ffffffff021916908363ffffffff160217905550816003600460008473ffffffffffffffffffffffffffffffffffffffff1673ffffffffffffffffffffffffffffffffffffffff1681526020019081526020016000206000015481548110610833577f4e487b7100000000000000000000000000000000000000000000000000000000600052603260045260246000fd5b90600052602060002090600902016003019080519060200190610857929190611a12565b50426003600460008473ffffffffffffffffffffffffffffffffffffffff1673ffffffffffffffffffffffffffffffffffffffff16815260200190815260200160002060000154815481106108d5577f4e487b7100000000000000000000000000000000000000000000000000000000600052603260045260246000fd5b906000526020600020906009020160040160046101000a81548163ffffffff021916908363ffffffff1602179055507fcdf1c5719e5f65f1ef5d057067204c067a35c994d816fe40f658c09eb3b54e3b8233836040516109379392919061207b565b60405180910390a15050565b60011515600260009054906101000a900473ffffffffffffffffffffffffffffffffffffffff1673ffffffffffffffffffffffffffffffffffffffff1663db343539336040518263ffffffff1660e01b81526004016109a291906120d9565b60206040518083038186803b1580156109ba57600080fd5b505afa1580156109ce573d6000803e3d6000fd5b505050506040513d601f19601f820116820180604052508101906109f29190611b85565b1515146109fe57600080fd5b6000610a12878742336003805490506118bb565b9050600060405180610160016040528060038054905081526020018981526020018881526020018781526020014263ffffffff168152602001600063ffffffff1681526020013373ffffffffffffffffffffffffffffffffffffffff1681526020018473ffffffffffffffffffffffffffffffffffffffff1681526020018373ffffffffffffffffffffffffffffffffffffffff1681526020018673ffffffffffffffffffffffffffffffffffffffff1681526020018573ffffffffffffffffffffffffffffffffffffffff1681525090506003819080600181540180825580915050600190039060005260206000209060090201600090919091909150600082015181600001556020820151816001019080519060200190610b36929190611a12565b506040820151816002019080519060200190610b53929190611a12565b506060820151816003019080519060200190610b70929190611a12565b5060808201518160040160006101000a81548163ffffffff021916908363ffffffff16021790555060a08201518160040160046101000a81548163ffffffff021916908363ffffffff16021790555060c08201518160040160086101000a81548173ffffffffffffffffffffffffffffffffffffffff021916908373ffffffffffffffffffffffffffffffffffffffff16021790555060e08201518160050160006101000a81548173ffffffffffffffffffffffffffffffffffffffff021916908373ffffffffffffffffffffffffffffffffffffffff1602179055506101008201518160060160006101000a81548173ffffffffffffffffffffffffffffffffffffffff021916908373ffffffffffffffffffffffffffffffffffffffff1602179055506101208201518160070160006101000a81548173ffffffffffffffffffffffffffffffffffffffff021916908373ffffffffffffffffffffffffffffffffffffffff1602179055506101408201518160080160006101000a81548173ffffffffffffffffffffffffffffffffffffffff021916908373ffffffffffffffffffffffffffffffffffffffff160217905550505080600460008473ffffffffffffffffffffffffffffffffffffffff1673ffffffffffffffffffffffffffffffffffffffff168152602001908152602001600020600082015181600001556020820151816001019080519060200190610d8d929190611a12565b506040820151816002019080519060200190610daa929190611a12565b506060820151816003019080519060200190610dc7929190611a12565b5060808201518160040160006101000a81548163ffffffff021916908363ffffffff16021790555060a08201518160040160046101000a81548163ffffffff021916908363ffffffff16021790555060c08201518160040160086101000a81548173ffffffffffffffffffffffffffffffffffffffff021916908373ffffffffffffffffffffffffffffffffffffffff16021790555060e08201518160050160006101000a81548173ffffffffffffffffffffffffffffffffffffffff021916908373ffffffffffffffffffffffffffffffffffffffff1602179055506101008201518160060160006101000a81548173ffffffffffffffffffffffffffffffffffffffff021916908373ffffffffffffffffffffffffffffffffffffffff1602179055506101208201518160070160006101000a81548173ffffffffffffffffffffffffffffffffffffffff021916908373ffffffffffffffffffffffffffffffffffffffff1602179055506101408201518160080160006101000a81548173ffffffffffffffffffffffffffffffffffffffff021916908373ffffffffffffffffffffffffffffffffffffffff1602179055509050507f2eab9bbcd3573a37c80df886e181d345b1b44fb6fd6a220f526b8992e332b0fa3383604051610fb0929190612030565b60405180910390a15050505050505050565b60606000600380549050905060008060005b8381101561109d578573ffffffffffffffffffffffffffffffffffffffff166003828154811061102d577f4e487b7100000000000000000000000000000000000000000000000000000000600052603260045260246000fd5b906000526020600020906009020160050160009054906101000a900473ffffffffffffffffffffffffffffffffffffffff1673ffffffffffffffffffffffffffffffffffffffff16141561108a578280611086906122ed565b9350505b8080611095906122ed565b915050610fd4565b5060008267ffffffffffffffff8111156110e0577f4e487b7100000000000000000000000000000000000000000000000000000000600052604160045260246000fd5b60405190808252806020026020018201604052801561110e5781602001602082028036833780820191505090505b50905060005b84811015611223578673ffffffffffffffffffffffffffffffffffffffff166003828154811061116d577f4e487b7100000000000000000000000000000000000000000000000000000000600052603260045260246000fd5b906000526020600020906009020160050160009054906101000a900473ffffffffffffffffffffffffffffffffffffffff1673ffffffffffffffffffffffffffffffffffffffff16141561121057808284815181106111f5577f4e487b7100000000000000000000000000000000000000000000000000000000600052603260045260246000fd5b602002602001018181525050828061120c906122ed565b9350505b808061121b906122ed565b915050611114565b5080945050505050919050565b60606000600380549050905060008060005b8381101561130b578573ffffffffffffffffffffffffffffffffffffffff166003828154811061129b577f4e487b7100000000000000000000000000000000000000000000000000000000600052603260045260246000fd5b906000526020600020906009020160040160089054906101000a900473ffffffffffffffffffffffffffffffffffffffff1673ffffffffffffffffffffffffffffffffffffffff1614156112f85782806112f4906122ed565b9350505b8080611303906122ed565b915050611242565b5060008267ffffffffffffffff81111561134e577f4e487b7100000000000000000000000000000000000000000000000000000000600052604160045260246000fd5b60405190808252806020026020018201604052801561137c5781602001602082028036833780820191505090505b50905060005b84811015611491578673ffffffffffffffffffffffffffffffffffffffff16600382815481106113db577f4e487b7100000000000000000000000000000000000000000000000000000000600052603260045260246000fd5b906000526020600020906009020160040160089054906101000a900473ffffffffffffffffffffffffffffffffffffffff1673ffffffffffffffffffffffffffffffffffffffff16141561147e5780828481518110611463577f4e487b7100000000000000000000000000000000000000000000000000000000600052603260045260246000fd5b602002602001018181525050828061147a906122ed565b9350505b8080611489906122ed565b915050611382565b5080945050505050919050565b6114a661193e565b600382815481106114e0577f4e487b7100000000000000000000000000000000000000000000000000000000600052603260045260246000fd5b906000526020600020906009020160405180610160016040529081600082015481526020016001820180546115149061228a565b80601f01602080910402602001604051908101604052809291908181526020018280546115409061228a565b801561158d5780601f106115625761010080835404028352916020019161158d565b820191906000526020600020905b81548152906001019060200180831161157057829003601f168201915b505050505081526020016002820180546115a69061228a565b80601f01602080910402602001604051908101604052809291908181526020018280546115d29061228a565b801561161f5780601f106115f45761010080835404028352916020019161161f565b820191906000526020600020905b81548152906001019060200180831161160257829003601f168201915b505050505081526020016003820180546116389061228a565b80601f01602080910402602001604051908101604052809291908181526020018280546116649061228a565b80156116b15780601f10611686576101008083540402835291602001916116b1565b820191906000526020600020905b81548152906001019060200180831161169457829003601f168201915b505050505081526020016004820160009054906101000a900463ffffffff1663ffffffff1663ffffffff1681526020016004820160049054906101000a900463ffffffff1663ffffffff1663ffffffff1681526020016004820160089054906101000a900473ffffffffffffffffffffffffffffffffffffffff1673ffffffffffffffffffffffffffffffffffffffff1673ffffffffffffffffffffffffffffffffffffffff1681526020016005820160009054906101000a900473ffffffffffffffffffffffffffffffffffffffff1673ffffffffffffffffffffffffffffffffffffffff1673ffffffffffffffffffffffffffffffffffffffff1681526020016006820160009054906101000a900473ffffffffffffffffffffffffffffffffffffffff1673ffffffffffffffffffffffffffffffffffffffff1673ffffffffffffffffffffffffffffffffffffffff1681526020016007820160009054906101000a900473ffffffffffffffffffffffffffffffffffffffff1673ffffffffffffffffffffffffffffffffffffffff1673ffffffffffffffffffffffffffffffffffffffff1681526020016008820160009054906101000a900473ffffffffffffffffffffffffffffffffffffffff1673ffffffffffffffffffffffffffffffffffffffff1673ffffffffffffffffffffffffffffffffffffffff16815250509050919050565b60008273ffffffffffffffffffffffffffffffffffffffff163373ffffffffffffffffffffffffffffffffffffffff16146118f557600080fd5b60008686868686604051602001611910959493929190611fd9565b60405160208183030381529060405280519060200120905060008160601c9050809250505095945050505050565b60405180610160016040528060008152602001606081526020016060815260200160608152602001600063ffffffff168152602001600063ffffffff168152602001600073ffffffffffffffffffffffffffffffffffffffff168152602001600073ffffffffffffffffffffffffffffffffffffffff168152602001600073ffffffffffffffffffffffffffffffffffffffff168152602001600073ffffffffffffffffffffffffffffffffffffffff168152602001600073ffffffffffffffffffffffffffffffffffffffff1681525090565b828054611a1e9061228a565b90600052602060002090601f016020900481019282611a405760008555611a87565b82601f10611a5957805160ff1916838001178555611a87565b82800160010185558215611a87579182015b82811115611a86578251825591602001919060010190611a6b565b5b509050611a949190611a98565b5090565b5b80821115611ab1576000816000905550600101611a99565b5090565b6000611ac8611ac38461214e565b612129565b905082815260208101848484011115611ae057600080fd5b611aeb848285612248565b509392505050565b600081359050611b02816124a6565b92915050565b600081519050611b17816124bd565b92915050565b600082601f830112611b2e57600080fd5b8135611b3e848260208601611ab5565b91505092915050565b600081359050611b56816124d4565b92915050565b600060208284031215611b6e57600080fd5b6000611b7c84828501611af3565b91505092915050565b600060208284031215611b9757600080fd5b6000611ba584828501611b08565b91505092915050565b60008060408385031215611bc157600080fd5b600083013567ffffffffffffffff811115611bdb57600080fd5b611be785828601611b1d565b9250506020611bf885828601611af3565b9150509250929050565b60008060008060008060c08789031215611c1b57600080fd5b600087013567ffffffffffffffff811115611c3557600080fd5b611c4189828a01611b1d565b965050602087013567ffffffffffffffff811115611c5e57600080fd5b611c6a89828a01611b1d565b955050604087013567ffffffffffffffff811115611c8757600080fd5b611c9389828a01611b1d565b9450506060611ca489828a01611af3565b9350506080611cb589828a01611af3565b92505060a0611cc689828a01611af3565b9150509295509295509295565b600060208284031215611ce557600080fd5b6000611cf384828501611b47565b91505092915050565b6000611d088383611f8d565b60208301905092915050565b611d1d816121f0565b82525050565b611d2c816121f0565b82525050565b611d43611d3e826121f0565b612336565b82525050565b6000611d548261218f565b611d5e81856121b2565b9350611d698361217f565b8060005b83811015611d9a578151611d818882611cfc565b9750611d8c836121a5565b925050600181019050611d6d565b5085935050505092915050565b6000611db28261219a565b611dbc81856121c3565b9350611dcc818560208601612257565b611dd581612403565b840191505092915050565b6000611deb8261219a565b611df581856121d4565b9350611e05818560208601612257565b611e0e81612403565b840191505092915050565b6000611e248261219a565b611e2e81856121e5565b9350611e3e818560208601612257565b80840191505092915050565b6000611e57602f836121d4565b9150611e628261242e565b604082019050919050565b6000611e7a6009836121d4565b9150611e858261247d565b602082019050919050565b600061016083016000830151611ea96000860182611f8d565b5060208301518482036020860152611ec18282611da7565b91505060408301518482036040860152611edb8282611da7565b91505060608301518482036060860152611ef58282611da7565b9150506080830151611f0a6080860182611fb3565b5060a0830151611f1d60a0860182611fb3565b5060c0830151611f3060c0860182611d14565b5060e0830151611f4360e0860182611d14565b50610100830151611f58610100860182611d14565b50610120830151611f6d610120860182611d14565b50610140830151611f82610140860182611d14565b508091505092915050565b611f968161222e565b82525050565b611fad611fa88261222e565b61235a565b82525050565b611fbc81612238565b82525050565b611fd3611fce82612238565b612364565b82525050565b6000611fe58288611e19565b9150611ff18287611e19565b9150611ffd8286611fc2565b60048201915061200d8285611d32565b60148201915061201d8284611f9c565b6020820191508190509695505050505050565b60006040820190506120456000830185611d23565b6120526020830184611d23565b9392505050565b600060208201905081810360008301526120738184611d49565b905092915050565b600060608201905081810360008301526120958186611de0565b90506120a46020830185611d23565b6120b16040830184611d23565b949350505050565b600060208201905081810360008301526120d281611e4a565b9050919050565b600060408201905081810360008301526120f281611e6d565b90506121016020830184611d23565b92915050565b600060208201905081810360008301526121218184611e90565b905092915050565b6000612133612144565b905061213f82826122bc565b919050565b6000604051905090565b600067ffffffffffffffff821115612169576121686123d4565b5b61217282612403565b9050602081019050919050565b6000819050602082019050919050565b600081519050919050565b600081519050919050565b6000602082019050919050565b600082825260208201905092915050565b600082825260208201905092915050565b600082825260208201905092915050565b600081905092915050565b60006121fb8261220e565b9050919050565b60008115159050919050565b600073ffffffffffffffffffffffffffffffffffffffff82169050919050565b6000819050919050565b600063ffffffff82169050919050565b82818337600083830152505050565b60005b8381101561227557808201518184015260208101905061225a565b83811115612284576000848401525b50505050565b600060028204905060018216806122a257607f821691505b602082108114156122b6576122b56123a5565b5b50919050565b6122c582612403565b810181811067ffffffffffffffff821117156122e4576122e36123d4565b5b80604052505050565b60006122f88261222e565b91507fffffffffffffffffffffffffffffffffffffffffffffffffffffffffffffffff82141561232b5761232a612376565b5b600182019050919050565b600061234182612348565b9050919050565b600061235382612421565b9050919050565b6000819050919050565b600061236f82612414565b9050919050565b7f4e487b7100000000000000000000000000000000000000000000000000000000600052601160045260246000fd5b7f4e487b7100000000000000000000000000000000000000000000000000000000600052602260045260246000fd5b7f4e487b7100000000000000000000000000000000000000000000000000000000600052604160045260246000fd5b6000601f19601f8301169050919050565b60008160e01b9050919050565b60008160601b9050919050565b7f596f7520646f206e6f742068617665207065726d697373696f6e20746f20636860008201527f616e676520746865207374617475730000000000000000000000000000000000602082015250565b7f5472616e73706f72740000000000000000000000000000000000000000000000600082015250565b6124af816121f0565b81146124ba57600080fd5b50565b6124c681612202565b81146124d157600080fd5b50565b6124dd8161222e565b81146124e857600080fd5b5056fea2646970667358221220be2e878eecb07e27e90081fc56fd74a8c3998df56eb4adc7c9bb107ae2f693d964736f6c63430008040033",
  "immutableReferences": {},
  "source": "// SPDX-License-Identifier: GPL-3.0\r\n\r\npragma solidity >=0.7.0 <0.9.0;\r\nimport \"../Factory/Factory_Transport.sol\";\r\n\r\n/**\r\n * @title Storage\r\n * @dev Store & retrieve value in a variable\r\n */\r\ncontract TransportSearch is TransportFactory{\r\n    function SearchTransportByAddress(\r\n        address Address\r\n    )\r\n    public\r\n    view\r\n    returns(Transport memory)\r\n    {\r\n        return AddressToTransport[Address];\r\n    }\r\n    \r\n    function SearchTransportByManagerAddress(\r\n        address TransporterAddress\r\n    )\r\n    public\r\n    view\r\n    returns(uint[] memory)\r\n    {\r\n        uint TransportAmount = TransportList.length;\r\n        uint ManagerTransportAmount = 0;\r\n        uint Count = 0;\r\n        \r\n        for(uint i = 0; i < TransportAmount; i++){\r\n            if(TransportList[i].TransporterAddress == TransporterAddress){\r\n                ManagerTransportAmount++;\r\n            }\r\n        }\r\n        \r\n        uint[] memory result = new uint[](ManagerTransportAmount);\r\n        \r\n        for(uint i = 0; i < TransportAmount; i++){\r\n            if(TransportList[i].TransporterAddress == TransporterAddress){\r\n                result[Count] = i;\r\n                Count++;\r\n            }\r\n        }\r\n        \r\n        return result;\r\n    }\r\n    \r\n    function SearchTransportByMerchandiseAddress(\r\n        address MerchandiseAddress\r\n    )\r\n    public\r\n    view\r\n    returns(uint[] memory)\r\n    {\r\n        uint TransportAmount = TransportList.length;\r\n        uint MerchandiseAmount = 0;\r\n        uint Count = 0;\r\n        \r\n        for(uint i = 0; i < TransportAmount; i++){\r\n            if(TransportList[i].MerchandiseAddress == MerchandiseAddress){\r\n                MerchandiseAmount++;\r\n            }\r\n        }\r\n        \r\n        uint[] memory result = new uint[](MerchandiseAmount);\r\n        \r\n        for(uint i = 0; i < TransportAmount; i++){\r\n            if(TransportList[i].MerchandiseAddress == MerchandiseAddress){\r\n                result[Count] = i;\r\n                Count++;\r\n            }\r\n        }\r\n        \r\n        return result;\r\n    }\r\n    \r\n    function SearchTransportByID(\r\n        uint ID\r\n    )\r\n    public\r\n    view\r\n    returns(Transport memory)\r\n    {\r\n        return TransportList[ID];\r\n    }\r\n}",
  "sourcePath": "C:/Users/user/mew-supplychain/contracts/contracts/Search/Search_Transport.sol",
  "compiler": {
    "name": "solc",
    "version": "0.8.4+commit.c7e474f2.Emscripten.clang"
  },
  "schemaVersion": "3.4.1",
  "updatedAt": "2021-08-05T19:30:22.218Z",
  "devdoc": {
    "details": "Store & retrieve value in a variable",
    "kind": "dev",
    "methods": {},
    "title": "Storage",
    "version": 1
  },
  "userdoc": {
    "kind": "user",
    "methods": {},
    "version": 1
  }
}