{
  "contractName": "WareHouseSearch",
  "abi": [
    {
      "anonymous": false,
      "inputs": [
        {
          "indexed": false,
          "internalType": "string",
          "name": "Status",
          "type": "string"
        },
        {
          "indexed": false,
          "internalType": "address",
          "name": "Transporter",
          "type": "address"
        },
        {
          "indexed": false,
          "internalType": "address",
          "name": "TransportAddress",
          "type": "address"
        }
      ],
      "name": "NewChangeTransportEvent",
      "type": "event"
    },
    {
      "anonymous": false,
      "inputs": [
        {
          "indexed": false,
          "internalType": "address",
          "name": "Manager",
          "type": "address"
        },
        {
          "indexed": false,
          "internalType": "address",
          "name": "Genesis",
          "type": "address"
        }
      ],
      "name": "NewEvent",
      "type": "event"
    },
    {
      "anonymous": false,
      "inputs": [
        {
          "indexed": false,
          "internalType": "address",
          "name": "Reviewer",
          "type": "address"
        },
        {
          "indexed": false,
          "internalType": "address",
          "name": "Review",
          "type": "address"
        },
        {
          "indexed": false,
          "internalType": "string",
          "name": "Comment",
          "type": "string"
        },
        {
          "indexed": false,
          "internalType": "uint8",
          "name": "rate",
          "type": "uint8"
        }
      ],
      "name": "NewReviewEvent",
      "type": "event"
    },
    {
      "anonymous": false,
      "inputs": [
        {
          "indexed": false,
          "internalType": "address",
          "name": "StakerAddress",
          "type": "address"
        },
        {
          "indexed": false,
          "internalType": "uint32",
          "name": "TimeStamp",
          "type": "uint32"
        },
        {
          "indexed": false,
          "internalType": "uint256",
          "name": "Amount",
          "type": "uint256"
        }
      ],
      "name": "Stake",
      "type": "event"
    },
    {
      "anonymous": false,
      "inputs": [
        {
          "indexed": false,
          "internalType": "address",
          "name": "StakerAddress",
          "type": "address"
        },
        {
          "indexed": false,
          "internalType": "uint32",
          "name": "TimeStamp",
          "type": "uint32"
        },
        {
          "indexed": false,
          "internalType": "uint256",
          "name": "Amount",
          "type": "uint256"
        }
      ],
      "name": "UnStake",
      "type": "event"
    },
    {
      "inputs": [
        {
          "internalType": "address",
          "name": "",
          "type": "address"
        }
      ],
      "name": "AddressToWareHouse",
      "outputs": [
        {
          "internalType": "uint256",
          "name": "ID",
          "type": "uint256"
        },
        {
          "internalType": "uint32",
          "name": "TimeStamp",
          "type": "uint32"
        },
        {
          "internalType": "string",
          "name": "CompanyName",
          "type": "string"
        },
        {
          "internalType": "string",
          "name": "Status",
          "type": "string"
        },
        {
          "internalType": "string",
          "name": "Image",
          "type": "string"
        },
        {
          "internalType": "address",
          "name": "MerchandiseAddress",
          "type": "address"
        },
        {
          "internalType": "address",
          "name": "ManagerAddress",
          "type": "address"
        },
        {
          "internalType": "address",
          "name": "WareMerchandiseAddress",
          "type": "address"
        },
        {
          "internalType": "address",
          "name": "PrevProcessAddress",
          "type": "address"
        }
      ],
      "stateMutability": "view",
      "type": "function"
    },
    {
      "inputs": [
        {
          "internalType": "string",
          "name": "CompanyName",
          "type": "string"
        },
        {
          "internalType": "string",
          "name": "Status",
          "type": "string"
        },
        {
          "internalType": "string",
          "name": "Image",
          "type": "string"
        },
        {
          "internalType": "address",
          "name": "MerchandiseAddress",
          "type": "address"
        },
        {
          "internalType": "address",
          "name": "PrevProcessAddress",
          "type": "address"
        }
      ],
      "name": "CreateWareHouse",
      "outputs": [],
      "stateMutability": "nonpayable",
      "type": "function"
    },
    {
      "inputs": [
        {
          "internalType": "uint256",
          "name": "",
          "type": "uint256"
        }
      ],
      "name": "WareHouseList",
      "outputs": [
        {
          "internalType": "uint256",
          "name": "ID",
          "type": "uint256"
        },
        {
          "internalType": "uint32",
          "name": "TimeStamp",
          "type": "uint32"
        },
        {
          "internalType": "string",
          "name": "CompanyName",
          "type": "string"
        },
        {
          "internalType": "string",
          "name": "Status",
          "type": "string"
        },
        {
          "internalType": "string",
          "name": "Image",
          "type": "string"
        },
        {
          "internalType": "address",
          "name": "MerchandiseAddress",
          "type": "address"
        },
        {
          "internalType": "address",
          "name": "ManagerAddress",
          "type": "address"
        },
        {
          "internalType": "address",
          "name": "WareMerchandiseAddress",
          "type": "address"
        },
        {
          "internalType": "address",
          "name": "PrevProcessAddress",
          "type": "address"
        }
      ],
      "stateMutability": "view",
      "type": "function"
    },
    {
      "inputs": [
        {
          "internalType": "address",
          "name": "Address",
          "type": "address"
        }
      ],
      "name": "SearchWareHouseByAddress",
      "outputs": [
        {
          "components": [
            {
              "internalType": "uint256",
              "name": "ID",
              "type": "uint256"
            },
            {
              "internalType": "uint32",
              "name": "TimeStamp",
              "type": "uint32"
            },
            {
              "internalType": "string",
              "name": "CompanyName",
              "type": "string"
            },
            {
              "internalType": "string",
              "name": "Status",
              "type": "string"
            },
            {
              "internalType": "string",
              "name": "Image",
              "type": "string"
            },
            {
              "internalType": "address",
              "name": "MerchandiseAddress",
              "type": "address"
            },
            {
              "internalType": "address",
              "name": "ManagerAddress",
              "type": "address"
            },
            {
              "internalType": "address",
              "name": "WareMerchandiseAddress",
              "type": "address"
            },
            {
              "internalType": "address",
              "name": "PrevProcessAddress",
              "type": "address"
            }
          ],
          "internalType": "struct WareHouseFactory.WareHouse",
          "name": "",
          "type": "tuple"
        }
      ],
      "stateMutability": "view",
      "type": "function"
    },
    {
      "inputs": [
        {
          "internalType": "address",
          "name": "ManagerAddress",
          "type": "address"
        }
      ],
      "name": "SearchWareHouseByManagerAddress",
      "outputs": [
        {
          "internalType": "uint256[]",
          "name": "",
          "type": "uint256[]"
        }
      ],
      "stateMutability": "view",
      "type": "function"
    },
    {
      "inputs": [
        {
          "internalType": "uint256",
          "name": "ID",
          "type": "uint256"
        }
      ],
      "name": "SearchWareHouseByID",
      "outputs": [
        {
          "components": [
            {
              "internalType": "uint256",
              "name": "ID",
              "type": "uint256"
            },
            {
              "internalType": "uint32",
              "name": "TimeStamp",
              "type": "uint32"
            },
            {
              "internalType": "string",
              "name": "CompanyName",
              "type": "string"
            },
            {
              "internalType": "string",
              "name": "Status",
              "type": "string"
            },
            {
              "internalType": "string",
              "name": "Image",
              "type": "string"
            },
            {
              "internalType": "address",
              "name": "MerchandiseAddress",
              "type": "address"
            },
            {
              "internalType": "address",
              "name": "ManagerAddress",
              "type": "address"
            },
            {
              "internalType": "address",
              "name": "WareMerchandiseAddress",
              "type": "address"
            },
            {
              "internalType": "address",
              "name": "PrevProcessAddress",
              "type": "address"
            }
          ],
          "internalType": "struct WareHouseFactory.WareHouse",
          "name": "",
          "type": "tuple"
        }
      ],
      "stateMutability": "view",
      "type": "function"
    }
  ],
  "bytecode": "0x6080604052737ef2e0048f5baede046f6bf797943daf4ed8cb476000806101000a81548173ffffffffffffffffffffffffffffffffffffffff021916908373ffffffffffffffffffffffffffffffffffffffff16021790555073965ecf3b23e96f095f1811096333731610aba986600160006101000a81548173ffffffffffffffffffffffffffffffffffffffff021916908373ffffffffffffffffffffffffffffffffffffffff16021790555060008054906101000a900473ffffffffffffffffffffffffffffffffffffffff16600260006101000a81548173ffffffffffffffffffffffffffffffffffffffff021916908373ffffffffffffffffffffffffffffffffffffffff16021790555034801561011a57600080fd5b506121378061012a6000396000f3fe608060405234801561001057600080fd5b50600436106100625760003560e01c80631b87c410146100675780632a2fa6321461009757806348958607146100b357806355308af5146100e35780639f235cdf1461011b578063bdef5d2914610153575b600080fd5b610081600480360381019061007c9190611812565b610183565b60405161008e9190611c7a565b60405180910390f35b6100b160048036038101906100ac9190611864565b6103f1565b005b6100cd60048036038101906100c89190611812565b610966565b6040516100da9190611cca565b60405180910390f35b6100fd60048036038101906100f89190611923565b610cfe565b60405161011299989796959493929190611cec565b60405180910390f35b61013560048036038101906101309190611812565b610f84565b60405161014a99989796959493929190611cec565b60405180910390f35b61016d60048036038101906101689190611923565b6111fa565b60405161017a9190611cca565b60405180910390f35b60606000600380549050905060008060005b8381101561025e578573ffffffffffffffffffffffffffffffffffffffff16600382815481106101ee577f4e487b7100000000000000000000000000000000000000000000000000000000600052603260045260246000fd5b906000526020600020906009020160060160009054906101000a900473ffffffffffffffffffffffffffffffffffffffff1673ffffffffffffffffffffffffffffffffffffffff16141561024b57828061024790611f52565b9350505b808061025690611f52565b915050610195565b5060008267ffffffffffffffff8111156102a1577f4e487b7100000000000000000000000000000000000000000000000000000000600052604160045260246000fd5b6040519080825280602002602001820160405280156102cf5781602001602082028036833780820191505090505b50905060005b848110156103e4578673ffffffffffffffffffffffffffffffffffffffff166003828154811061032e577f4e487b7100000000000000000000000000000000000000000000000000000000600052603260045260246000fd5b906000526020600020906009020160060160009054906101000a900473ffffffffffffffffffffffffffffffffffffffff1673ffffffffffffffffffffffffffffffffffffffff1614156103d157808284815181106103b6577f4e487b7100000000000000000000000000000000000000000000000000000000600052603260045260246000fd5b60200260200101818152505082806103cd90611f52565b9350505b80806103dc90611f52565b9150506102d5565b5080945050505050919050565b60011515600260009054906101000a900473ffffffffffffffffffffffffffffffffffffffff1673ffffffffffffffffffffffffffffffffffffffff1663db343539336040518263ffffffff1660e01b81526004016104509190611c9c565b60206040518083038186803b15801561046857600080fd5b505afa15801561047c573d6000803e3d6000fd5b505050506040513d601f19601f820116820180604052508101906104a0919061183b565b1515146104ac57600080fd5b60006104c08685423360038054905061159b565b9050600060405180610120016040528060038054905081526020014263ffffffff1681526020018881526020018781526020018681526020018573ffffffffffffffffffffffffffffffffffffffff1681526020013373ffffffffffffffffffffffffffffffffffffffff1681526020018373ffffffffffffffffffffffffffffffffffffffff1681526020018473ffffffffffffffffffffffffffffffffffffffff16815250905060038190806001815401808255809150506001900390600052602060002090600902016000909190919091506000820151816000015560208201518160010160006101000a81548163ffffffff021916908363ffffffff16021790555060408201518160020190805190602001906105e292919061161e565b5060608201518160030190805190602001906105ff92919061161e565b50608082015181600401908051906020019061061c92919061161e565b5060a08201518160050160006101000a81548173ffffffffffffffffffffffffffffffffffffffff021916908373ffffffffffffffffffffffffffffffffffffffff16021790555060c08201518160060160006101000a81548173ffffffffffffffffffffffffffffffffffffffff021916908373ffffffffffffffffffffffffffffffffffffffff16021790555060e08201518160070160006101000a81548173ffffffffffffffffffffffffffffffffffffffff021916908373ffffffffffffffffffffffffffffffffffffffff1602179055506101008201518160080160006101000a81548173ffffffffffffffffffffffffffffffffffffffff021916908373ffffffffffffffffffffffffffffffffffffffff160217905550505080600460008473ffffffffffffffffffffffffffffffffffffffff1673ffffffffffffffffffffffffffffffffffffffff1681526020019081526020016000206000820151816000015560208201518160010160006101000a81548163ffffffff021916908363ffffffff16021790555060408201518160020190805190602001906107c992919061161e565b5060608201518160030190805190602001906107e692919061161e565b50608082015181600401908051906020019061080392919061161e565b5060a08201518160050160006101000a81548173ffffffffffffffffffffffffffffffffffffffff021916908373ffffffffffffffffffffffffffffffffffffffff16021790555060c08201518160060160006101000a81548173ffffffffffffffffffffffffffffffffffffffff021916908373ffffffffffffffffffffffffffffffffffffffff16021790555060e08201518160070160006101000a81548173ffffffffffffffffffffffffffffffffffffffff021916908373ffffffffffffffffffffffffffffffffffffffff1602179055506101008201518160080160006101000a81548173ffffffffffffffffffffffffffffffffffffffff021916908373ffffffffffffffffffffffffffffffffffffffff1602179055509050507f2eab9bbcd3573a37c80df886e181d345b1b44fb6fd6a220f526b8992e332b0fa3383604051610955929190611c51565b60405180910390a150505050505050565b61096e6116a4565b600460008373ffffffffffffffffffffffffffffffffffffffff1673ffffffffffffffffffffffffffffffffffffffff16815260200190815260200160002060405180610120016040529081600082015481526020016001820160009054906101000a900463ffffffff1663ffffffff1663ffffffff1681526020016002820180546109f990611eef565b80601f0160208091040260200160405190810160405280929190818152602001828054610a2590611eef565b8015610a725780601f10610a4757610100808354040283529160200191610a72565b820191906000526020600020905b815481529060010190602001808311610a5557829003601f168201915b50505050508152602001600382018054610a8b90611eef565b80601f0160208091040260200160405190810160405280929190818152602001828054610ab790611eef565b8015610b045780601f10610ad957610100808354040283529160200191610b04565b820191906000526020600020905b815481529060010190602001808311610ae757829003601f168201915b50505050508152602001600482018054610b1d90611eef565b80601f0160208091040260200160405190810160405280929190818152602001828054610b4990611eef565b8015610b965780601f10610b6b57610100808354040283529160200191610b96565b820191906000526020600020905b815481529060010190602001808311610b7957829003601f168201915b505050505081526020016005820160009054906101000a900473ffffffffffffffffffffffffffffffffffffffff1673ffffffffffffffffffffffffffffffffffffffff1673ffffffffffffffffffffffffffffffffffffffff1681526020016006820160009054906101000a900473ffffffffffffffffffffffffffffffffffffffff1673ffffffffffffffffffffffffffffffffffffffff1673ffffffffffffffffffffffffffffffffffffffff1681526020016007820160009054906101000a900473ffffffffffffffffffffffffffffffffffffffff1673ffffffffffffffffffffffffffffffffffffffff1673ffffffffffffffffffffffffffffffffffffffff1681526020016008820160009054906101000a900473ffffffffffffffffffffffffffffffffffffffff1673ffffffffffffffffffffffffffffffffffffffff1673ffffffffffffffffffffffffffffffffffffffff16815250509050919050565b60038181548110610d0e57600080fd5b90600052602060002090600902016000915090508060000154908060010160009054906101000a900463ffffffff1690806002018054610d4d90611eef565b80601f0160208091040260200160405190810160405280929190818152602001828054610d7990611eef565b8015610dc65780601f10610d9b57610100808354040283529160200191610dc6565b820191906000526020600020905b815481529060010190602001808311610da957829003601f168201915b505050505090806003018054610ddb90611eef565b80601f0160208091040260200160405190810160405280929190818152602001828054610e0790611eef565b8015610e545780601f10610e2957610100808354040283529160200191610e54565b820191906000526020600020905b815481529060010190602001808311610e3757829003601f168201915b505050505090806004018054610e6990611eef565b80601f0160208091040260200160405190810160405280929190818152602001828054610e9590611eef565b8015610ee25780601f10610eb757610100808354040283529160200191610ee2565b820191906000526020600020905b815481529060010190602001808311610ec557829003601f168201915b5050505050908060050160009054906101000a900473ffffffffffffffffffffffffffffffffffffffff16908060060160009054906101000a900473ffffffffffffffffffffffffffffffffffffffff16908060070160009054906101000a900473ffffffffffffffffffffffffffffffffffffffff16908060080160009054906101000a900473ffffffffffffffffffffffffffffffffffffffff16905089565b60046020528060005260406000206000915090508060000154908060010160009054906101000a900463ffffffff1690806002018054610fc390611eef565b80601f0160208091040260200160405190810160405280929190818152602001828054610fef90611eef565b801561103c5780601f106110115761010080835404028352916020019161103c565b820191906000526020600020905b81548152906001019060200180831161101f57829003601f168201915b50505050509080600301805461105190611eef565b80601f016020809104026020016040519081016040528092919081815260200182805461107d90611eef565b80156110ca5780601f1061109f576101008083540402835291602001916110ca565b820191906000526020600020905b8154815290600101906020018083116110ad57829003601f168201915b5050505050908060040180546110df90611eef565b80601f016020809104026020016040519081016040528092919081815260200182805461110b90611eef565b80156111585780601f1061112d57610100808354040283529160200191611158565b820191906000526020600020905b81548152906001019060200180831161113b57829003601f168201915b5050505050908060050160009054906101000a900473ffffffffffffffffffffffffffffffffffffffff16908060060160009054906101000a900473ffffffffffffffffffffffffffffffffffffffff16908060070160009054906101000a900473ffffffffffffffffffffffffffffffffffffffff16908060080160009054906101000a900473ffffffffffffffffffffffffffffffffffffffff16905089565b6112026116a4565b6003828154811061123c577f4e487b7100000000000000000000000000000000000000000000000000000000600052603260045260246000fd5b906000526020600020906009020160405180610120016040529081600082015481526020016001820160009054906101000a900463ffffffff1663ffffffff1663ffffffff16815260200160028201805461129690611eef565b80601f01602080910402602001604051908101604052809291908181526020018280546112c290611eef565b801561130f5780601f106112e45761010080835404028352916020019161130f565b820191906000526020600020905b8154815290600101906020018083116112f257829003601f168201915b5050505050815260200160038201805461132890611eef565b80601f016020809104026020016040519081016040528092919081815260200182805461135490611eef565b80156113a15780601f10611376576101008083540402835291602001916113a1565b820191906000526020600020905b81548152906001019060200180831161138457829003601f168201915b505050505081526020016004820180546113ba90611eef565b80601f01602080910402602001604051908101604052809291908181526020018280546113e690611eef565b80156114335780601f1061140857610100808354040283529160200191611433565b820191906000526020600020905b81548152906001019060200180831161141657829003601f168201915b505050505081526020016005820160009054906101000a900473ffffffffffffffffffffffffffffffffffffffff1673ffffffffffffffffffffffffffffffffffffffff1673ffffffffffffffffffffffffffffffffffffffff1681526020016006820160009054906101000a900473ffffffffffffffffffffffffffffffffffffffff1673ffffffffffffffffffffffffffffffffffffffff1673ffffffffffffffffffffffffffffffffffffffff1681526020016007820160009054906101000a900473ffffffffffffffffffffffffffffffffffffffff1673ffffffffffffffffffffffffffffffffffffffff1673ffffffffffffffffffffffffffffffffffffffff1681526020016008820160009054906101000a900473ffffffffffffffffffffffffffffffffffffffff1673ffffffffffffffffffffffffffffffffffffffff1673ffffffffffffffffffffffffffffffffffffffff16815250509050919050565b60008273ffffffffffffffffffffffffffffffffffffffff163373ffffffffffffffffffffffffffffffffffffffff16146115d557600080fd5b600086868686866040516020016115f0959493929190611bfa565b60405160208183030381529060405280519060200120905060008160601c9050809250505095945050505050565b82805461162a90611eef565b90600052602060002090601f01602090048101928261164c5760008555611693565b82601f1061166557805160ff1916838001178555611693565b82800160010185558215611693579182015b82811115611692578251825591602001919060010190611677565b5b5090506116a0919061174e565b5090565b60405180610120016040528060008152602001600063ffffffff168152602001606081526020016060815260200160608152602001600073ffffffffffffffffffffffffffffffffffffffff168152602001600073ffffffffffffffffffffffffffffffffffffffff168152602001600073ffffffffffffffffffffffffffffffffffffffff168152602001600073ffffffffffffffffffffffffffffffffffffffff1681525090565b5b8082111561176757600081600090555060010161174f565b5090565b600061177e61177984611db3565b611d8e565b90508281526020810184848401111561179657600080fd5b6117a1848285611ead565b509392505050565b6000813590506117b8816120bc565b92915050565b6000815190506117cd816120d3565b92915050565b600082601f8301126117e457600080fd5b81356117f484826020860161176b565b91505092915050565b60008135905061180c816120ea565b92915050565b60006020828403121561182457600080fd5b6000611832848285016117a9565b91505092915050565b60006020828403121561184d57600080fd5b600061185b848285016117be565b91505092915050565b600080600080600060a0868803121561187c57600080fd5b600086013567ffffffffffffffff81111561189657600080fd5b6118a2888289016117d3565b955050602086013567ffffffffffffffff8111156118bf57600080fd5b6118cb888289016117d3565b945050604086013567ffffffffffffffff8111156118e857600080fd5b6118f4888289016117d3565b9350506060611905888289016117a9565b9250506080611916888289016117a9565b9150509295509295909350565b60006020828403121561193557600080fd5b6000611943848285016117fd565b91505092915050565b60006119588383611b90565b60208301905092915050565b61196d81611e55565b82525050565b61197c81611e55565b82525050565b61199361198e82611e55565b611f9b565b82525050565b60006119a482611df4565b6119ae8185611e17565b93506119b983611de4565b8060005b838110156119ea5781516119d1888261194c565b97506119dc83611e0a565b9250506001810190506119bd565b5085935050505092915050565b6000611a0282611dff565b611a0c8185611e28565b9350611a1c818560208601611ebc565b611a2581612068565b840191505092915050565b6000611a3b82611dff565b611a458185611e39565b9350611a55818560208601611ebc565b611a5e81612068565b840191505092915050565b6000611a7482611dff565b611a7e8185611e4a565b9350611a8e818560208601611ebc565b80840191505092915050565b6000611aa7600983611e39565b9150611ab282612093565b602082019050919050565b600061012083016000830151611ad66000860182611b90565b506020830151611ae96020860182611bc5565b5060408301518482036040860152611b0182826119f7565b91505060608301518482036060860152611b1b82826119f7565b91505060808301518482036080860152611b3582826119f7565b91505060a0830151611b4a60a0860182611964565b5060c0830151611b5d60c0860182611964565b5060e0830151611b7060e0860182611964565b50610100830151611b85610100860182611964565b508091505092915050565b611b9981611e93565b82525050565b611ba881611e93565b82525050565b611bbf611bba82611e93565b611fbf565b82525050565b611bce81611e9d565b82525050565b611bdd81611e9d565b82525050565b611bf4611bef82611e9d565b611fc9565b82525050565b6000611c068288611a69565b9150611c128287611a69565b9150611c1e8286611be3565b600482019150611c2e8285611982565b601482019150611c3e8284611bae565b6020820191508190509695505050505050565b6000604082019050611c666000830185611973565b611c736020830184611973565b9392505050565b60006020820190508181036000830152611c948184611999565b905092915050565b60006040820190508181036000830152611cb581611a9a565b9050611cc46020830184611973565b92915050565b60006020820190508181036000830152611ce48184611abd565b905092915050565b600061012082019050611d02600083018c611b9f565b611d0f602083018b611bd4565b8181036040830152611d21818a611a30565b90508181036060830152611d358189611a30565b90508181036080830152611d498188611a30565b9050611d5860a0830187611973565b611d6560c0830186611973565b611d7260e0830185611973565b611d80610100830184611973565b9a9950505050505050505050565b6000611d98611da9565b9050611da48282611f21565b919050565b6000604051905090565b600067ffffffffffffffff821115611dce57611dcd612039565b5b611dd782612068565b9050602081019050919050565b6000819050602082019050919050565b600081519050919050565b600081519050919050565b6000602082019050919050565b600082825260208201905092915050565b600082825260208201905092915050565b600082825260208201905092915050565b600081905092915050565b6000611e6082611e73565b9050919050565b60008115159050919050565b600073ffffffffffffffffffffffffffffffffffffffff82169050919050565b6000819050919050565b600063ffffffff82169050919050565b82818337600083830152505050565b60005b83811015611eda578082015181840152602081019050611ebf565b83811115611ee9576000848401525b50505050565b60006002820490506001821680611f0757607f821691505b60208210811415611f1b57611f1a61200a565b5b50919050565b611f2a82612068565b810181811067ffffffffffffffff82111715611f4957611f48612039565b5b80604052505050565b6000611f5d82611e93565b91507fffffffffffffffffffffffffffffffffffffffffffffffffffffffffffffffff821415611f9057611f8f611fdb565b5b600182019050919050565b6000611fa682611fad565b9050919050565b6000611fb882612086565b9050919050565b6000819050919050565b6000611fd482612079565b9050919050565b7f4e487b7100000000000000000000000000000000000000000000000000000000600052601160045260246000fd5b7f4e487b7100000000000000000000000000000000000000000000000000000000600052602260045260246000fd5b7f4e487b7100000000000000000000000000000000000000000000000000000000600052604160045260246000fd5b6000601f19601f8301169050919050565b60008160e01b9050919050565b60008160601b9050919050565b7f57617265486f7573650000000000000000000000000000000000000000000000600082015250565b6120c581611e55565b81146120d057600080fd5b50565b6120dc81611e67565b81146120e757600080fd5b50565b6120f381611e93565b81146120fe57600080fd5b5056fea2646970667358221220f158be01b19fef3bfe37f4640ae76e451f0ceffeb6ea1f1c9b882b80ecb09a1d64736f6c63430008040033",
  "immutableReferences": {},
  "source": "// SPDX-License-Identifier: GPL-3.0\r\n\r\npragma solidity >=0.7.0 <0.9.0;\r\nimport \"../Factory/Factory_WareHouse.sol\";\r\n\r\n/**\r\n * @title Storage\r\n * @dev Store & retrieve value in a variable\r\n */\r\ncontract WareHouseSearch is WareHouseFactory{\r\n    function SearchWareHouseByAddress(\r\n        address Address\r\n    )\r\n    public\r\n    view\r\n    returns(WareHouse memory)\r\n    {\r\n        return AddressToWareHouse[Address];\r\n    }\r\n    \r\n    function SearchWareHouseByManagerAddress(\r\n        address ManagerAddress\r\n    )\r\n    public\r\n    view\r\n    returns(uint[] memory)\r\n    {\r\n        uint WareHouseAmount = WareHouseList.length;\r\n        uint ManagerWareHouseAmount = 0;\r\n        uint Count = 0;\r\n        \r\n        for(uint i = 0; i < WareHouseAmount; i++){\r\n            if(WareHouseList[i].ManagerAddress == ManagerAddress){\r\n                ManagerWareHouseAmount++;\r\n            }\r\n        }\r\n        \r\n        uint[] memory result = new uint[](ManagerWareHouseAmount);\r\n        \r\n        for(uint i = 0; i < WareHouseAmount; i++){\r\n            if(WareHouseList[i].ManagerAddress == ManagerAddress){\r\n                result[Count] = i;\r\n                Count++;\r\n            }\r\n        }\r\n        \r\n        return result;\r\n    }\r\n    \r\n    function SearchWareHouseByID(\r\n        uint ID\r\n    )\r\n    public\r\n    view\r\n    returns(WareHouse memory)\r\n    {\r\n        return WareHouseList[ID];\r\n    }\r\n}",
  "sourcePath": "C:/Users/user/mew-supplychain/contracts/contracts/Search/Search_WareHouse.sol",
  "compiler": {
    "name": "solc",
    "version": "0.8.4+commit.c7e474f2.Emscripten.clang"
  },
  "schemaVersion": "3.4.1",
  "updatedAt": "2021-08-05T19:30:22.229Z",
  "devdoc": {
    "details": "Store & retrieve value in a variable",
    "kind": "dev",
    "methods": {},
    "title": "Storage",
    "version": 1
  },
  "userdoc": {
    "kind": "user",
    "methods": {},
    "version": 1
  }
}