{
  "contractName": "WareHouseFactory",
  "abi": [
    {
      "anonymous": false,
      "inputs": [
        {
          "indexed": false,
          "internalType": "string",
          "name": "Status",
          "type": "string"
        },
        {
          "indexed": false,
          "internalType": "address",
          "name": "Transporter",
          "type": "address"
        },
        {
          "indexed": false,
          "internalType": "address",
          "name": "TransportAddress",
          "type": "address"
        }
      ],
      "name": "NewChangeTransportEvent",
      "type": "event"
    },
    {
      "anonymous": false,
      "inputs": [
        {
          "indexed": false,
          "internalType": "address",
          "name": "Manager",
          "type": "address"
        },
        {
          "indexed": false,
          "internalType": "address",
          "name": "Genesis",
          "type": "address"
        }
      ],
      "name": "NewEvent",
      "type": "event"
    },
    {
      "anonymous": false,
      "inputs": [
        {
          "indexed": false,
          "internalType": "address",
          "name": "Reviewer",
          "type": "address"
        },
        {
          "indexed": false,
          "internalType": "address",
          "name": "Review",
          "type": "address"
        },
        {
          "indexed": false,
          "internalType": "string",
          "name": "Comment",
          "type": "string"
        },
        {
          "indexed": false,
          "internalType": "uint8",
          "name": "rate",
          "type": "uint8"
        }
      ],
      "name": "NewReviewEvent",
      "type": "event"
    },
    {
      "anonymous": false,
      "inputs": [
        {
          "indexed": false,
          "internalType": "address",
          "name": "StakerAddress",
          "type": "address"
        },
        {
          "indexed": false,
          "internalType": "uint32",
          "name": "TimeStamp",
          "type": "uint32"
        },
        {
          "indexed": false,
          "internalType": "uint256",
          "name": "Amount",
          "type": "uint256"
        }
      ],
      "name": "Stake",
      "type": "event"
    },
    {
      "anonymous": false,
      "inputs": [
        {
          "indexed": false,
          "internalType": "address",
          "name": "StakerAddress",
          "type": "address"
        },
        {
          "indexed": false,
          "internalType": "uint32",
          "name": "TimeStamp",
          "type": "uint32"
        },
        {
          "indexed": false,
          "internalType": "uint256",
          "name": "Amount",
          "type": "uint256"
        }
      ],
      "name": "UnStake",
      "type": "event"
    },
    {
      "inputs": [
        {
          "internalType": "address",
          "name": "",
          "type": "address"
        }
      ],
      "name": "AddressToWareHouse",
      "outputs": [
        {
          "internalType": "uint256",
          "name": "ID",
          "type": "uint256"
        },
        {
          "internalType": "uint32",
          "name": "TimeStamp",
          "type": "uint32"
        },
        {
          "internalType": "string",
          "name": "CompanyName",
          "type": "string"
        },
        {
          "internalType": "string",
          "name": "Status",
          "type": "string"
        },
        {
          "internalType": "string",
          "name": "Image",
          "type": "string"
        },
        {
          "internalType": "address",
          "name": "MerchandiseAddress",
          "type": "address"
        },
        {
          "internalType": "address",
          "name": "ManagerAddress",
          "type": "address"
        },
        {
          "internalType": "address",
          "name": "WareMerchandiseAddress",
          "type": "address"
        },
        {
          "internalType": "address",
          "name": "PrevProcessAddress",
          "type": "address"
        }
      ],
      "stateMutability": "view",
      "type": "function"
    },
    {
      "inputs": [
        {
          "internalType": "uint256",
          "name": "",
          "type": "uint256"
        }
      ],
      "name": "WareHouseList",
      "outputs": [
        {
          "internalType": "uint256",
          "name": "ID",
          "type": "uint256"
        },
        {
          "internalType": "uint32",
          "name": "TimeStamp",
          "type": "uint32"
        },
        {
          "internalType": "string",
          "name": "CompanyName",
          "type": "string"
        },
        {
          "internalType": "string",
          "name": "Status",
          "type": "string"
        },
        {
          "internalType": "string",
          "name": "Image",
          "type": "string"
        },
        {
          "internalType": "address",
          "name": "MerchandiseAddress",
          "type": "address"
        },
        {
          "internalType": "address",
          "name": "ManagerAddress",
          "type": "address"
        },
        {
          "internalType": "address",
          "name": "WareMerchandiseAddress",
          "type": "address"
        },
        {
          "internalType": "address",
          "name": "PrevProcessAddress",
          "type": "address"
        }
      ],
      "stateMutability": "view",
      "type": "function"
    },
    {
      "inputs": [
        {
          "internalType": "string",
          "name": "CompanyName",
          "type": "string"
        },
        {
          "internalType": "string",
          "name": "Status",
          "type": "string"
        },
        {
          "internalType": "string",
          "name": "Image",
          "type": "string"
        },
        {
          "internalType": "address",
          "name": "MerchandiseAddress",
          "type": "address"
        },
        {
          "internalType": "address",
          "name": "PrevProcessAddress",
          "type": "address"
        }
      ],
      "name": "CreateWareHouse",
      "outputs": [],
      "stateMutability": "nonpayable",
      "type": "function"
    }
  ],
  "bytecode": "0x6080604052737ef2e0048f5baede046f6bf797943daf4ed8cb476000806101000a81548173ffffffffffffffffffffffffffffffffffffffff021916908373ffffffffffffffffffffffffffffffffffffffff16021790555073fb7628067f0821938fe6d388cd3caf71dd88636b600160006101000a81548173ffffffffffffffffffffffffffffffffffffffff021916908373ffffffffffffffffffffffffffffffffffffffff16021790555060008054906101000a900473ffffffffffffffffffffffffffffffffffffffff16600260006101000a81548173ffffffffffffffffffffffffffffffffffffffff021916908373ffffffffffffffffffffffffffffffffffffffff16021790555034801561011a57600080fd5b506113808061012a6000396000f3fe608060405234801561001057600080fd5b50600436106100415760003560e01c80632a2fa6321461004657806355308af5146100625780639f235cdf1461009a575b600080fd5b610060600480360381019061005b9190610d62565b6100d2565b005b61007c60048036038101906100779190610e21565b610647565b60405161009199989796959493929190610ff7565b60405180910390f35b6100b460048036038101906100af9190610d10565b6108cd565b6040516100c999989796959493929190610ff7565b60405180910390f35b60011515600260009054906101000a900473ffffffffffffffffffffffffffffffffffffffff1673ffffffffffffffffffffffffffffffffffffffff1663db343539336040518263ffffffff1660e01b81526004016101319190610fc9565b60206040518083038186803b15801561014957600080fd5b505afa15801561015d573d6000803e3d6000fd5b505050506040513d601f19601f820116820180604052508101906101819190610d39565b15151461018d57600080fd5b60006101a186854233600380549050610b43565b9050600060405180610120016040528060038054905081526020014263ffffffff1681526020018881526020018781526020018681526020018573ffffffffffffffffffffffffffffffffffffffff1681526020013373ffffffffffffffffffffffffffffffffffffffff1681526020018373ffffffffffffffffffffffffffffffffffffffff1681526020018473ffffffffffffffffffffffffffffffffffffffff16815250905060038190806001815401808255809150506001900390600052602060002090600902016000909190919091506000820151816000015560208201518160010160006101000a81548163ffffffff021916908363ffffffff16021790555060408201518160020190805190602001906102c3929190610bc6565b5060608201518160030190805190602001906102e0929190610bc6565b5060808201518160040190805190602001906102fd929190610bc6565b5060a08201518160050160006101000a81548173ffffffffffffffffffffffffffffffffffffffff021916908373ffffffffffffffffffffffffffffffffffffffff16021790555060c08201518160060160006101000a81548173ffffffffffffffffffffffffffffffffffffffff021916908373ffffffffffffffffffffffffffffffffffffffff16021790555060e08201518160070160006101000a81548173ffffffffffffffffffffffffffffffffffffffff021916908373ffffffffffffffffffffffffffffffffffffffff1602179055506101008201518160080160006101000a81548173ffffffffffffffffffffffffffffffffffffffff021916908373ffffffffffffffffffffffffffffffffffffffff160217905550505080600460008473ffffffffffffffffffffffffffffffffffffffff1673ffffffffffffffffffffffffffffffffffffffff1681526020019081526020016000206000820151816000015560208201518160010160006101000a81548163ffffffff021916908363ffffffff16021790555060408201518160020190805190602001906104aa929190610bc6565b5060608201518160030190805190602001906104c7929190610bc6565b5060808201518160040190805190602001906104e4929190610bc6565b5060a08201518160050160006101000a81548173ffffffffffffffffffffffffffffffffffffffff021916908373ffffffffffffffffffffffffffffffffffffffff16021790555060c08201518160060160006101000a81548173ffffffffffffffffffffffffffffffffffffffff021916908373ffffffffffffffffffffffffffffffffffffffff16021790555060e08201518160070160006101000a81548173ffffffffffffffffffffffffffffffffffffffff021916908373ffffffffffffffffffffffffffffffffffffffff1602179055506101008201518160080160006101000a81548173ffffffffffffffffffffffffffffffffffffffff021916908373ffffffffffffffffffffffffffffffffffffffff1602179055509050507f2eab9bbcd3573a37c80df886e181d345b1b44fb6fd6a220f526b8992e332b0fa3383604051610636929190610fa0565b60405180910390a150505050505050565b6003818154811061065757600080fd5b90600052602060002090600902016000915090508060000154908060010160009054906101000a900463ffffffff1690806002018054610696906111b0565b80601f01602080910402602001604051908101604052809291908181526020018280546106c2906111b0565b801561070f5780601f106106e45761010080835404028352916020019161070f565b820191906000526020600020905b8154815290600101906020018083116106f257829003601f168201915b505050505090806003018054610724906111b0565b80601f0160208091040260200160405190810160405280929190818152602001828054610750906111b0565b801561079d5780601f106107725761010080835404028352916020019161079d565b820191906000526020600020905b81548152906001019060200180831161078057829003601f168201915b5050505050908060040180546107b2906111b0565b80601f01602080910402602001604051908101604052809291908181526020018280546107de906111b0565b801561082b5780601f106108005761010080835404028352916020019161082b565b820191906000526020600020905b81548152906001019060200180831161080e57829003601f168201915b5050505050908060050160009054906101000a900473ffffffffffffffffffffffffffffffffffffffff16908060060160009054906101000a900473ffffffffffffffffffffffffffffffffffffffff16908060070160009054906101000a900473ffffffffffffffffffffffffffffffffffffffff16908060080160009054906101000a900473ffffffffffffffffffffffffffffffffffffffff16905089565b60046020528060005260406000206000915090508060000154908060010160009054906101000a900463ffffffff169080600201805461090c906111b0565b80601f0160208091040260200160405190810160405280929190818152602001828054610938906111b0565b80156109855780601f1061095a57610100808354040283529160200191610985565b820191906000526020600020905b81548152906001019060200180831161096857829003601f168201915b50505050509080600301805461099a906111b0565b80601f01602080910402602001604051908101604052809291908181526020018280546109c6906111b0565b8015610a135780601f106109e857610100808354040283529160200191610a13565b820191906000526020600020905b8154815290600101906020018083116109f657829003601f168201915b505050505090806004018054610a28906111b0565b80601f0160208091040260200160405190810160405280929190818152602001828054610a54906111b0565b8015610aa15780601f10610a7657610100808354040283529160200191610aa1565b820191906000526020600020905b815481529060010190602001808311610a8457829003601f168201915b5050505050908060050160009054906101000a900473ffffffffffffffffffffffffffffffffffffffff16908060060160009054906101000a900473ffffffffffffffffffffffffffffffffffffffff16908060070160009054906101000a900473ffffffffffffffffffffffffffffffffffffffff16908060080160009054906101000a900473ffffffffffffffffffffffffffffffffffffffff16905089565b60008273ffffffffffffffffffffffffffffffffffffffff163373ffffffffffffffffffffffffffffffffffffffff1614610b7d57600080fd5b60008686868686604051602001610b98959493929190610f49565b60405160208183030381529060405280519060200120905060008160601c9050809250505095945050505050565b828054610bd2906111b0565b90600052602060002090601f016020900481019282610bf45760008555610c3b565b82601f10610c0d57805160ff1916838001178555610c3b565b82800160010185558215610c3b579182015b82811115610c3a578251825591602001919060010190610c1f565b5b509050610c489190610c4c565b5090565b5b80821115610c65576000816000905550600101610c4d565b5090565b6000610c7c610c77846110be565b611099565b905082815260208101848484011115610c9457600080fd5b610c9f84828561116e565b509392505050565b600081359050610cb681611305565b92915050565b600081519050610ccb8161131c565b92915050565b600082601f830112610ce257600080fd5b8135610cf2848260208601610c69565b91505092915050565b600081359050610d0a81611333565b92915050565b600060208284031215610d2257600080fd5b6000610d3084828501610ca7565b91505092915050565b600060208284031215610d4b57600080fd5b6000610d5984828501610cbc565b91505092915050565b600080600080600060a08688031215610d7a57600080fd5b600086013567ffffffffffffffff811115610d9457600080fd5b610da088828901610cd1565b955050602086013567ffffffffffffffff811115610dbd57600080fd5b610dc988828901610cd1565b945050604086013567ffffffffffffffff811115610de657600080fd5b610df288828901610cd1565b9350506060610e0388828901610ca7565b9250506080610e1488828901610ca7565b9150509295509295909350565b600060208284031215610e3357600080fd5b6000610e4184828501610cfb565b91505092915050565b610e5381611116565b82525050565b610e6a610e6582611116565b611213565b82525050565b6000610e7b826110ef565b610e8581856110fa565b9350610e9581856020860161117d565b610e9e816112b1565b840191505092915050565b6000610eb4826110ef565b610ebe818561110b565b9350610ece81856020860161117d565b80840191505092915050565b6000610ee76009836110fa565b9150610ef2826112dc565b602082019050919050565b610f0681611154565b82525050565b610f1d610f1882611154565b611237565b82525050565b610f2c8161115e565b82525050565b610f43610f3e8261115e565b611241565b82525050565b6000610f558288610ea9565b9150610f618287610ea9565b9150610f6d8286610f32565b600482019150610f7d8285610e59565b601482019150610f8d8284610f0c565b6020820191508190509695505050505050565b6000604082019050610fb56000830185610e4a565b610fc26020830184610e4a565b9392505050565b60006040820190508181036000830152610fe281610eda565b9050610ff16020830184610e4a565b92915050565b60006101208201905061100d600083018c610efd565b61101a602083018b610f23565b818103604083015261102c818a610e70565b905081810360608301526110408189610e70565b905081810360808301526110548188610e70565b905061106360a0830187610e4a565b61107060c0830186610e4a565b61107d60e0830185610e4a565b61108b610100830184610e4a565b9a9950505050505050505050565b60006110a36110b4565b90506110af82826111e2565b919050565b6000604051905090565b600067ffffffffffffffff8211156110d9576110d8611282565b5b6110e2826112b1565b9050602081019050919050565b600081519050919050565b600082825260208201905092915050565b600081905092915050565b600061112182611134565b9050919050565b60008115159050919050565b600073ffffffffffffffffffffffffffffffffffffffff82169050919050565b6000819050919050565b600063ffffffff82169050919050565b82818337600083830152505050565b60005b8381101561119b578082015181840152602081019050611180565b838111156111aa576000848401525b50505050565b600060028204905060018216806111c857607f821691505b602082108114156111dc576111db611253565b5b50919050565b6111eb826112b1565b810181811067ffffffffffffffff8211171561120a57611209611282565b5b80604052505050565b600061121e82611225565b9050919050565b6000611230826112cf565b9050919050565b6000819050919050565b600061124c826112c2565b9050919050565b7f4e487b7100000000000000000000000000000000000000000000000000000000600052602260045260246000fd5b7f4e487b7100000000000000000000000000000000000000000000000000000000600052604160045260246000fd5b6000601f19601f8301169050919050565b60008160e01b9050919050565b60008160601b9050919050565b7f57617265486f7573650000000000000000000000000000000000000000000000600082015250565b61130e81611116565b811461131957600080fd5b50565b61132581611128565b811461133057600080fd5b50565b61133c81611154565b811461134757600080fd5b5056fea264697066735822122025533d1c3da6607e9a0e98e8187d299f4444a9cdfb4ed8c698ac6e2c98a4462e64736f6c63430008040033",
  "immutableReferences": {},
  "source": "// SPDX-License-Identifier: GPL-3.0\r\n\r\npragma solidity >=0.7.0 <0.9.0;\r\nimport \"../Essential/Essential_Event.sol\";\r\nimport \"../Essential/Essential_Encode.sol\";\r\nimport \"../Essential/Essential_Constant.sol\";\r\nimport \"../Stake/Stake_Staking.sol\";\r\n\r\n/**\r\n * @title Storage\r\n * @dev Store & retrieve value in a variable\r\n */\r\ncontract WareHouseFactory is Event, Encode, Constant{\r\n    struct WareHouse {\r\n        uint        ID;\r\n        uint32      TimeStamp;\r\n        string      CompanyName;\r\n        string      Status;\r\n        string      Image;\r\n        address     MerchandiseAddress;\r\n        address     ManagerAddress;\r\n        address     WareMerchandiseAddress;\r\n        address     PrevProcessAddress;\r\n    }\r\n\r\n    StakePool                     private _Stake = StakePool(StakeContractAddress);\r\n    WareHouse[]                   public WareHouseList;\r\n    mapping(address => WareHouse) public AddressToWareHouse;\r\n    \r\n    function CreateWareHouse(\r\n        string memory CompanyName,\r\n        string memory Status,\r\n        string memory Image,\r\n        address       MerchandiseAddress,\r\n        address       PrevProcessAddress\r\n    )\r\n    public\r\n    {\r\n        require(_Stake.StakeForFunction(\"WareHouse\",msg.sender) == true);\r\n        address WareMerchandiseAddress = CreateAddress(CompanyName, Image, uint32(block.timestamp), msg.sender, WareHouseList.length);\r\n        WareHouse memory NewWareHouse = WareHouse(WareHouseList.length, uint32(block.timestamp), CompanyName, Status, Image, MerchandiseAddress, msg.sender, WareMerchandiseAddress, PrevProcessAddress);\r\n        WareHouseList.push(NewWareHouse);\r\n        AddressToWareHouse[WareMerchandiseAddress] = NewWareHouse;\r\n        emit NewEvent(msg.sender, WareMerchandiseAddress);\r\n    }\r\n}",
  "sourcePath": "C:/Users/user/mew-supplychain/contracts/contracts/Factory/Factory_WareHouse.sol",
  "compiler": {
    "name": "solc",
    "version": "0.8.4+commit.c7e474f2.Emscripten.clang"
  },
  "schemaVersion": "3.4.1",
  "updatedAt": "2021-08-05T19:56:57.862Z",
  "devdoc": {
    "details": "Store & retrieve value in a variable",
    "kind": "dev",
    "methods": {},
    "title": "Storage",
    "version": 1
  },
  "userdoc": {
    "kind": "user",
    "methods": {},
    "version": 1
  }
}